{
  "contractName": "Exchange",
  "abi": [
    {
      "inputs": [
        {
          "internalType": "address",
          "name": "stakingContractAddress",
          "type": "address"
        },
        {
          "internalType": "address",
          "name": "orionToken",
          "type": "address"
        },
        {
          "internalType": "address",
          "name": "priceOracleAddress",
          "type": "address"
        },
        {
          "internalType": "address",
          "name": "allowedMatcher",
          "type": "address"
        }
      ],
      "stateMutability": "nonpayable",
      "type": "constructor"
    },
    {
      "anonymous": false,
      "inputs": [
        {
          "indexed": true,
          "internalType": "address",
          "name": "user",
          "type": "address"
        },
        {
          "indexed": true,
          "internalType": "address",
          "name": "assetAddress",
          "type": "address"
        },
        {
          "indexed": false,
          "internalType": "bool",
          "name": "isDeposit",
          "type": "bool"
        },
        {
          "indexed": false,
          "internalType": "uint112",
          "name": "amount",
          "type": "uint112"
        },
        {
          "indexed": false,
          "internalType": "uint64",
          "name": "timestamp",
          "type": "uint64"
        }
      ],
      "name": "NewAssetTransaction",
      "type": "event"
    },
    {
      "anonymous": false,
      "inputs": [
        {
          "indexed": true,
          "internalType": "address",
          "name": "buyer",
          "type": "address"
        },
        {
          "indexed": true,
          "internalType": "address",
          "name": "seller",
          "type": "address"
        },
        {
          "indexed": false,
          "internalType": "address",
          "name": "baseAsset",
          "type": "address"
        },
        {
          "indexed": false,
          "internalType": "address",
          "name": "quoteAsset",
          "type": "address"
        },
        {
          "indexed": false,
          "internalType": "uint64",
          "name": "filledPrice",
          "type": "uint64"
        },
        {
          "indexed": false,
          "internalType": "uint192",
          "name": "filledAmount",
          "type": "uint192"
        },
        {
          "indexed": false,
          "internalType": "uint192",
          "name": "amountQuote",
          "type": "uint192"
        }
      ],
      "name": "NewTrade",
      "type": "event"
    },
    {
      "anonymous": false,
      "inputs": [
        {
          "indexed": true,
          "internalType": "address",
          "name": "previousOwner",
          "type": "address"
        },
        {
          "indexed": true,
          "internalType": "address",
          "name": "newOwner",
          "type": "address"
        }
      ],
      "name": "OwnershipTransferred",
      "type": "event"
    },
    {
      "stateMutability": "nonpayable",
      "type": "fallback"
    },
    {
      "inputs": [
        {
          "internalType": "address",
          "name": "",
          "type": "address"
        }
      ],
      "name": "assetRisks",
      "outputs": [
        {
          "internalType": "uint8",
          "name": "",
          "type": "uint8"
        }
      ],
      "stateMutability": "view",
      "type": "function",
      "constant": true
    },
    {
      "inputs": [
        {
          "internalType": "address",
          "name": "",
          "type": "address"
        },
        {
          "internalType": "uint256",
          "name": "",
          "type": "uint256"
        }
      ],
      "name": "liabilities",
      "outputs": [
        {
          "internalType": "address",
          "name": "asset",
          "type": "address"
        },
        {
          "internalType": "uint64",
          "name": "timestamp",
          "type": "uint64"
        },
        {
          "internalType": "uint192",
          "name": "outstandingAmount",
          "type": "uint192"
        }
      ],
      "stateMutability": "view",
      "type": "function",
      "constant": true
    },
    {
      "inputs": [],
      "name": "liquidationPremium",
      "outputs": [
        {
          "internalType": "uint8",
          "name": "",
          "type": "uint8"
        }
      ],
      "stateMutability": "view",
      "type": "function",
      "constant": true
    },
    {
      "inputs": [],
      "name": "owner",
      "outputs": [
        {
          "internalType": "address",
          "name": "",
          "type": "address"
        }
      ],
      "stateMutability": "view",
      "type": "function",
      "constant": true
    },
    {
      "inputs": [],
      "name": "positionOverdue",
      "outputs": [
        {
          "internalType": "uint64",
          "name": "",
          "type": "uint64"
        }
      ],
      "stateMutability": "view",
      "type": "function",
      "constant": true
    },
    {
      "inputs": [],
      "name": "priceOverdue",
      "outputs": [
        {
          "internalType": "uint64",
          "name": "",
          "type": "uint64"
        }
      ],
      "stateMutability": "view",
      "type": "function",
      "constant": true
    },
    {
      "inputs": [],
      "name": "renounceOwnership",
      "outputs": [],
      "stateMutability": "nonpayable",
      "type": "function"
    },
    {
      "inputs": [],
      "name": "stakeRisk",
      "outputs": [
        {
          "internalType": "uint8",
          "name": "",
          "type": "uint8"
        }
      ],
      "stateMutability": "view",
      "type": "function",
      "constant": true
    },
    {
      "inputs": [
        {
          "internalType": "bytes32",
          "name": "",
          "type": "bytes32"
        },
        {
          "internalType": "uint256",
          "name": "",
          "type": "uint256"
        }
      ],
      "name": "trades",
      "outputs": [
        {
          "internalType": "uint64",
          "name": "filledPrice",
          "type": "uint64"
        },
        {
          "internalType": "uint192",
          "name": "filledAmount",
          "type": "uint192"
        },
        {
          "internalType": "uint192",
          "name": "feePaid",
          "type": "uint192"
        },
        {
          "internalType": "uint64",
          "name": "timestamp",
          "type": "uint64"
        }
      ],
      "stateMutability": "view",
      "type": "function",
      "constant": true
    },
    {
      "inputs": [
        {
          "internalType": "address",
          "name": "newOwner",
          "type": "address"
        }
      ],
      "name": "transferOwnership",
      "outputs": [],
      "stateMutability": "nonpayable",
      "type": "function"
    },
    {
      "inputs": [
        {
          "internalType": "address[]",
          "name": "_collateralAssets",
          "type": "address[]"
        },
        {
          "internalType": "uint8",
          "name": "_stakeRisk",
          "type": "uint8"
        },
        {
          "internalType": "uint8",
          "name": "_liquidationPremium",
          "type": "uint8"
        },
        {
          "internalType": "uint64",
          "name": "_priceOverdue",
          "type": "uint64"
        },
        {
          "internalType": "uint64",
          "name": "_positionOverdue",
          "type": "uint64"
        }
      ],
      "name": "updateMarginalSettings",
      "outputs": [],
      "stateMutability": "nonpayable",
      "type": "function"
    },
    {
      "inputs": [
        {
          "internalType": "address[]",
          "name": "assets",
          "type": "address[]"
        },
        {
          "internalType": "uint8[]",
          "name": "risks",
          "type": "uint8[]"
        }
      ],
      "name": "updateAssetRisks",
      "outputs": [],
      "stateMutability": "nonpayable",
      "type": "function"
    },
    {
      "inputs": [
        {
          "internalType": "address",
          "name": "assetAddress",
          "type": "address"
        },
        {
          "internalType": "uint112",
          "name": "amount",
          "type": "uint112"
        }
      ],
      "name": "depositAsset",
      "outputs": [],
      "stateMutability": "nonpayable",
      "type": "function"
    },
    {
      "inputs": [],
      "name": "deposit",
      "outputs": [],
      "stateMutability": "payable",
      "type": "function",
      "payable": true
    },
    {
      "inputs": [
        {
          "internalType": "address",
          "name": "assetAddress",
          "type": "address"
        },
        {
          "internalType": "uint112",
          "name": "amount",
          "type": "uint112"
        }
      ],
      "name": "withdraw",
      "outputs": [],
      "stateMutability": "nonpayable",
      "type": "function"
    },
    {
      "inputs": [
        {
          "internalType": "address",
          "name": "user",
          "type": "address"
        },
        {
          "internalType": "uint64",
          "name": "amount",
          "type": "uint64"
        }
      ],
      "name": "moveToStake",
      "outputs": [],
      "stateMutability": "nonpayable",
      "type": "function"
    },
    {
      "inputs": [
        {
          "internalType": "address",
          "name": "user",
          "type": "address"
        },
        {
          "internalType": "uint64",
          "name": "amount",
          "type": "uint64"
        }
      ],
      "name": "moveFromStake",
      "outputs": [],
      "stateMutability": "nonpayable",
      "type": "function"
    },
    {
      "inputs": [
        {
          "internalType": "address",
          "name": "assetAddress",
          "type": "address"
        },
        {
          "internalType": "address",
          "name": "user",
          "type": "address"
        }
      ],
      "name": "getBalance",
      "outputs": [
        {
          "internalType": "int192",
          "name": "assetBalance",
          "type": "int192"
        }
      ],
      "stateMutability": "view",
      "type": "function",
      "constant": true
    },
    {
      "inputs": [
        {
          "internalType": "address[]",
          "name": "assetsAddresses",
          "type": "address[]"
        },
        {
          "internalType": "address",
          "name": "user",
          "type": "address"
        }
      ],
      "name": "getBalances",
      "outputs": [
        {
          "internalType": "int192[]",
          "name": "",
          "type": "int192[]"
        }
      ],
      "stateMutability": "view",
      "type": "function",
      "constant": true
    },
    {
      "inputs": [
        {
          "internalType": "address",
          "name": "user",
          "type": "address"
        }
      ],
      "name": "getLiabilities",
      "outputs": [
        {
          "components": [
            {
              "internalType": "address",
              "name": "asset",
              "type": "address"
            },
            {
              "internalType": "uint64",
              "name": "timestamp",
              "type": "uint64"
            },
            {
              "internalType": "uint192",
              "name": "outstandingAmount",
              "type": "uint192"
            }
          ],
          "internalType": "struct MarginalFunctionality.Liability[]",
          "name": "liabilitiesArray",
          "type": "tuple[]"
        }
      ],
      "stateMutability": "view",
      "type": "function",
      "constant": true
    },
    {
      "inputs": [],
      "name": "getCollateralAssets",
      "outputs": [
        {
          "internalType": "address[]",
          "name": "",
          "type": "address[]"
        }
      ],
      "stateMutability": "view",
      "type": "function",
      "constant": true
    },
    {
      "inputs": [
        {
          "components": [
            {
              "internalType": "address",
              "name": "senderAddress",
              "type": "address"
            },
            {
              "internalType": "address",
              "name": "matcherAddress",
              "type": "address"
            },
            {
              "internalType": "address",
              "name": "baseAsset",
              "type": "address"
            },
            {
              "internalType": "address",
              "name": "quoteAsset",
              "type": "address"
            },
            {
              "internalType": "address",
              "name": "matcherFeeAsset",
              "type": "address"
            },
            {
              "internalType": "uint64",
              "name": "amount",
              "type": "uint64"
            },
            {
              "internalType": "uint64",
              "name": "price",
              "type": "uint64"
            },
            {
              "internalType": "uint64",
              "name": "matcherFee",
              "type": "uint64"
            },
            {
              "internalType": "uint64",
              "name": "nonce",
              "type": "uint64"
            },
            {
              "internalType": "uint64",
              "name": "expiration",
              "type": "uint64"
            },
            {
              "internalType": "uint8",
              "name": "buySide",
              "type": "uint8"
            },
            {
              "internalType": "bytes",
              "name": "signature",
              "type": "bytes"
            }
          ],
          "internalType": "struct LibValidator.Order",
          "name": "order",
          "type": "tuple"
        }
      ],
      "name": "getOrderHash",
      "outputs": [
        {
          "internalType": "bytes32",
          "name": "",
          "type": "bytes32"
        }
      ],
      "stateMutability": "pure",
      "type": "function",
      "constant": true
    },
    {
      "inputs": [
        {
          "components": [
            {
              "internalType": "address",
              "name": "senderAddress",
              "type": "address"
            },
            {
              "internalType": "address",
              "name": "matcherAddress",
              "type": "address"
            },
            {
              "internalType": "address",
              "name": "baseAsset",
              "type": "address"
            },
            {
              "internalType": "address",
              "name": "quoteAsset",
              "type": "address"
            },
            {
              "internalType": "address",
              "name": "matcherFeeAsset",
              "type": "address"
            },
            {
              "internalType": "uint64",
              "name": "amount",
              "type": "uint64"
            },
            {
              "internalType": "uint64",
              "name": "price",
              "type": "uint64"
            },
            {
              "internalType": "uint64",
              "name": "matcherFee",
              "type": "uint64"
            },
            {
              "internalType": "uint64",
              "name": "nonce",
              "type": "uint64"
            },
            {
              "internalType": "uint64",
              "name": "expiration",
              "type": "uint64"
            },
            {
              "internalType": "uint8",
              "name": "buySide",
              "type": "uint8"
            },
            {
              "internalType": "bytes",
              "name": "signature",
              "type": "bytes"
            }
          ],
          "internalType": "struct LibValidator.Order",
          "name": "order",
          "type": "tuple"
        }
      ],
      "name": "getOrderTrades",
      "outputs": [
        {
          "components": [
            {
              "internalType": "uint64",
              "name": "filledPrice",
              "type": "uint64"
            },
            {
              "internalType": "uint192",
              "name": "filledAmount",
              "type": "uint192"
            },
            {
              "internalType": "uint192",
              "name": "feePaid",
              "type": "uint192"
            },
            {
              "internalType": "uint64",
              "name": "timestamp",
              "type": "uint64"
            }
          ],
          "internalType": "struct Exchange.Trade[]",
          "name": "",
          "type": "tuple[]"
        }
      ],
      "stateMutability": "view",
      "type": "function",
      "constant": true
    },
    {
      "inputs": [
        {
          "internalType": "bytes32",
          "name": "orderHash",
          "type": "bytes32"
        }
      ],
      "name": "getFilledAmounts",
      "outputs": [
        {
          "internalType": "int192",
          "name": "totalFilled",
          "type": "int192"
        },
        {
          "internalType": "int192",
          "name": "totalFeesPaid",
          "type": "int192"
        }
      ],
      "stateMutability": "view",
      "type": "function",
      "constant": true
    },
    {
      "inputs": [
        {
          "components": [
            {
              "internalType": "address",
              "name": "senderAddress",
              "type": "address"
            },
            {
              "internalType": "address",
              "name": "matcherAddress",
              "type": "address"
            },
            {
              "internalType": "address",
              "name": "baseAsset",
              "type": "address"
            },
            {
              "internalType": "address",
              "name": "quoteAsset",
              "type": "address"
            },
            {
              "internalType": "address",
              "name": "matcherFeeAsset",
              "type": "address"
            },
            {
              "internalType": "uint64",
              "name": "amount",
              "type": "uint64"
            },
            {
              "internalType": "uint64",
              "name": "price",
              "type": "uint64"
            },
            {
              "internalType": "uint64",
              "name": "matcherFee",
              "type": "uint64"
            },
            {
              "internalType": "uint64",
              "name": "nonce",
              "type": "uint64"
            },
            {
              "internalType": "uint64",
              "name": "expiration",
              "type": "uint64"
            },
            {
              "internalType": "uint8",
              "name": "buySide",
              "type": "uint8"
            },
            {
              "internalType": "bytes",
              "name": "signature",
              "type": "bytes"
            }
          ],
          "internalType": "struct LibValidator.Order",
          "name": "buyOrder",
          "type": "tuple"
        },
        {
          "components": [
            {
              "internalType": "address",
              "name": "senderAddress",
              "type": "address"
            },
            {
              "internalType": "address",
              "name": "matcherAddress",
              "type": "address"
            },
            {
              "internalType": "address",
              "name": "baseAsset",
              "type": "address"
            },
            {
              "internalType": "address",
              "name": "quoteAsset",
              "type": "address"
            },
            {
              "internalType": "address",
              "name": "matcherFeeAsset",
              "type": "address"
            },
            {
              "internalType": "uint64",
              "name": "amount",
              "type": "uint64"
            },
            {
              "internalType": "uint64",
              "name": "price",
              "type": "uint64"
            },
            {
              "internalType": "uint64",
              "name": "matcherFee",
              "type": "uint64"
            },
            {
              "internalType": "uint64",
              "name": "nonce",
              "type": "uint64"
            },
            {
              "internalType": "uint64",
              "name": "expiration",
              "type": "uint64"
            },
            {
              "internalType": "uint8",
              "name": "buySide",
              "type": "uint8"
            },
            {
              "internalType": "bytes",
              "name": "signature",
              "type": "bytes"
            }
          ],
          "internalType": "struct LibValidator.Order",
          "name": "sellOrder",
          "type": "tuple"
        },
        {
          "internalType": "uint64",
          "name": "filledPrice",
          "type": "uint64"
        },
        {
          "internalType": "uint112",
          "name": "filledAmount",
          "type": "uint112"
        }
      ],
      "name": "fillOrders",
      "outputs": [],
      "stateMutability": "nonpayable",
      "type": "function"
    },
    {
      "inputs": [
        {
          "components": [
            {
              "internalType": "address",
              "name": "senderAddress",
              "type": "address"
            },
            {
              "internalType": "address",
              "name": "matcherAddress",
              "type": "address"
            },
            {
              "internalType": "address",
              "name": "baseAsset",
              "type": "address"
            },
            {
              "internalType": "address",
              "name": "quoteAsset",
              "type": "address"
            },
            {
              "internalType": "address",
              "name": "matcherFeeAsset",
              "type": "address"
            },
            {
              "internalType": "uint64",
              "name": "amount",
              "type": "uint64"
            },
            {
              "internalType": "uint64",
              "name": "price",
              "type": "uint64"
            },
            {
              "internalType": "uint64",
              "name": "matcherFee",
              "type": "uint64"
            },
            {
              "internalType": "uint64",
              "name": "nonce",
              "type": "uint64"
            },
            {
              "internalType": "uint64",
              "name": "expiration",
              "type": "uint64"
            },
            {
              "internalType": "uint8",
              "name": "buySide",
              "type": "uint8"
            },
            {
              "internalType": "bytes",
              "name": "signature",
              "type": "bytes"
            }
          ],
          "internalType": "struct LibValidator.Order",
          "name": "order",
          "type": "tuple"
        }
      ],
      "name": "validateOrder",
      "outputs": [
        {
          "internalType": "bool",
          "name": "isValid",
          "type": "bool"
        }
      ],
      "stateMutability": "pure",
      "type": "function",
      "constant": true
    },
    {
      "inputs": [
        {
          "internalType": "address",
          "name": "user",
          "type": "address"
        }
      ],
      "name": "checkPosition",
      "outputs": [
        {
          "internalType": "bool",
          "name": "",
          "type": "bool"
        }
      ],
      "stateMutability": "view",
      "type": "function",
      "constant": true
    },
    {
      "inputs": [
        {
          "internalType": "address",
          "name": "user",
          "type": "address"
        }
      ],
      "name": "calcPosition",
      "outputs": [
        {
          "components": [
            {
              "internalType": "enum MarginalFunctionality.PositionState",
              "name": "state",
              "type": "uint8"
            },
            {
              "internalType": "int256",
              "name": "weightedPosition",
              "type": "int256"
            },
            {
              "internalType": "int256",
              "name": "totalPosition",
              "type": "int256"
            },
            {
              "internalType": "int256",
              "name": "totalLiabilities",
              "type": "int256"
            }
          ],
          "internalType": "struct MarginalFunctionality.Position",
          "name": "",
          "type": "tuple"
        }
      ],
      "stateMutability": "view",
      "type": "function",
      "constant": true
    },
    {
      "inputs": [
        {
          "internalType": "address",
          "name": "broker",
          "type": "address"
        },
        {
          "internalType": "address",
          "name": "redeemedAsset",
          "type": "address"
        },
        {
          "internalType": "uint112",
          "name": "amount",
          "type": "uint112"
        }
      ],
      "name": "partiallyLiquidate",
      "outputs": [],
      "stateMutability": "nonpayable",
      "type": "function"
    }
  ],
  "bytecode": "0x60806040523480156200001157600080fd5b5060405162005ff338038062005ff383398181016040526200003791908101906200032c565b6001600081905550600062000051620002f660201b60201c565b905080600160006101000a81548173ffffffffffffffffffffffffffffffffffffffff021916908373ffffffffffffffffffffffffffffffffffffffff1602179055508073ffffffffffffffffffffffffffffffffffffffff16600073ffffffffffffffffffffffffffffffffffffffff167f8be0079c531659141344cd1fd0a4f28419497f9722a3daafe3b4186f6b6457e060405160405180910390a35083600860006101000a81548173ffffffffffffffffffffffffffffffffffffffff021916908373ffffffffffffffffffffffffffffffffffffffff16021790555082600960006101000a81548173ffffffffffffffffffffffffffffffffffffffff021916908373ffffffffffffffffffffffffffffffffffffffff160217905550600960009054906101000a900473ffffffffffffffffffffffffffffffffffffffff1673ffffffffffffffffffffffffffffffffffffffff1663095ea7b3600860009054906101000a900473ffffffffffffffffffffffffffffffffffffffff167fffffffffffffffffffffffffffffffffffffffffffffffffffffffffffffffff6040518363ffffffff1660e01b815260040162000213929190620003e6565b602060405180830381600087803b1580156200022e57600080fd5b505af115801562000243573d6000803e3d6000fd5b505050506040513d601f19601f8201168201806040525062000269919081019062000398565b5081600a60006101000a81548173ffffffffffffffffffffffffffffffffffffffff021916908373ffffffffffffffffffffffffffffffffffffffff16021790555080600b60006101000a81548173ffffffffffffffffffffffffffffffffffffffff021916908373ffffffffffffffffffffffffffffffffffffffff16021790555050505050620004a5565b600033905090565b6000815190506200030f8162000471565b92915050565b60008151905062000326816200048b565b92915050565b600080600080608085870312156200034357600080fd5b60006200035387828801620002fe565b94505060206200036687828801620002fe565b93505060406200037987828801620002fe565b92505060606200038c87828801620002fe565b91505092959194509250565b600060208284031215620003ab57600080fd5b6000620003bb8482850162000315565b91505092915050565b620003cf8162000413565b82525050565b620003e0816200045d565b82525050565b6000604082019050620003fd6000830185620003c4565b6200040c6020830184620003d5565b9392505050565b6000620004208262000433565b9050919050565b60008115159050919050565b600073ffffffffffffffffffffffffffffffffffffffff82169050919050565b6000819050919050565b60006200046a8262000453565b9050919050565b6200047c8162000413565b81146200048857600080fd5b50565b620004968162000427565b8114620004a257600080fd5b50565b615b3e80620004b56000396000f3fe6080604052600436106101c65760003560e01c8063a1ff9bee116100f7578063dcffd7cb11610095578063f2fde38b11610064578063f2fde38b146106a3578063f721599e146106cc578063f7522af614610709578063ff782d9b14610748576101c7565b8063dcffd7cb146105e7578063e0c3ebcf14610612578063e4fd7d011461063b578063e6b8b82514610678576101c7565b8063c18c9d93116100d1578063c18c9d9314610526578063d0e30db014610563578063d1c070281461056d578063d4fac45d146105aa576101c7565b8063a1ff9bee14610494578063a9d5ec76146104bf578063bf3e6eaf146104e8576101c7565b80636241d768116101645780638293e9af1161013e5780638293e9af146103ee57806388a0ec62146104175780638da5cb5b14610440578063a02fbb781461046b576101c7565b80636241d7681461035d5780637074631a1461039a578063715018a6146103d7576101c7565b8063120b5a3c116101a0578063120b5a3c1461028c57806328d0a326146102c95780634445c997146102f457806350ef1f5d1461031d576101c7565b80630a87dcee1461020f5780630fe31c0f1461023857806311fbc30914610261576101c7565b5b3480156101d357600080fd5b506040517f08c379a000000000000000000000000000000000000000000000000000000000815260040161020690615408565b60405180910390fd5b34801561021b57600080fd5b5061023660048036036102319190810190613fd0565b610785565b005b34801561024457600080fd5b5061025f600480360361025a9190810190613f09565b6109e1565b005b34801561026d57600080fd5b50610276610a71565b6040516102839190615602565b60405180910390f35b34801561029857600080fd5b506102b360048036036102ae9190810190614212565b610a8b565b6040516102c0919061526d565b60405180910390f35b3480156102d557600080fd5b506102de610a9d565b6040516102eb9190615602565b60405180910390f35b34801561030057600080fd5b5061031b60048036036103169190810190613fd0565b610ab7565b005b34801561032957600080fd5b50610344600480360361033f91908101906141ad565b610c4f565b604051610354949392919061561d565b60405180910390f35b34801561036957600080fd5b50610384600480360361037f9190810190613ea4565b610d09565b6040516103919190615662565b60405180910390f35b3480156103a657600080fd5b506103c160048036036103bc9190810190614212565b610d29565b6040516103ce91906151f9565b60405180910390f35b3480156103e357600080fd5b506103ec610ed1565b005b3480156103fa57600080fd5b5061041560048036036104109190810190613f58565b611029565b005b34801561042357600080fd5b5061043e60048036036104399190810190613f58565b611468565b005b34801561044c57600080fd5b506104556114b3565b6040516104629190614f15565b60405180910390f35b34801561047757600080fd5b50610492600480360361048d9190810190614060565b6114dd565b005b3480156104a057600080fd5b506104a961161c565b6040516104b691906150cd565b60405180910390f35b3480156104cb57600080fd5b506104e660048036036104e19190810190614253565b6116aa565b005b3480156104f457600080fd5b5061050f600480360361050a9190810190614184565b6119e2565b60405161051d92919061535d565b60405180910390f35b34801561053257600080fd5b5061054d60048036036105489190810190613ea4565b611ab7565b60405161055a919061521b565b60405180910390f35b61056b611b3a565b005b34801561057957600080fd5b50610594600480360361058f919081019061400c565b611b47565b6040516105a191906151b5565b60405180910390f35b3480156105b657600080fd5b506105d160048036036105cc9190810190613ecd565b611c6a565b6040516105de9190615342565b60405180910390f35b3480156105f357600080fd5b506105fc611cfe565b6040516106099190615662565b60405180910390f35b34801561061e57600080fd5b50610639600480360361063491908101906140cc565b611d11565b005b34801561064757600080fd5b50610662600480360361065d9190810190614212565b611e4e565b60405161066f919061521b565b60405180910390f35b34801561068457600080fd5b5061068d611ede565b60405161069a9190615662565b60405180910390f35b3480156106af57600080fd5b506106ca60048036036106c59190810190613ea4565b611ef1565b005b3480156106d857600080fd5b506106f360048036036106ee9190810190613ea4565b6120b8565b60405161070091906151d7565b60405180910390f35b34801561071557600080fd5b50610730600480360361072b9190810190613f94565b612240565b60405161073f93929190615096565b60405180910390f35b34801561075457600080fd5b5061076f600480360361076a9190810190613ea4565b6122dc565b60405161077c91906155e7565b60405180910390f35b600860009054906101000a900473ffffffffffffffffffffffffffffffffffffffff1673ffffffffffffffffffffffffffffffffffffffff163373ffffffffffffffffffffffffffffffffffffffff1614610815576040517f08c379a000000000000000000000000000000000000000000000000000000000815260040161080c90615428565b60405180910390fd5b8067ffffffffffffffff16600360008473ffffffffffffffffffffffffffffffffffffffff1673ffffffffffffffffffffffffffffffffffffffff1681526020019081526020016000206000600960009054906101000a900473ffffffffffffffffffffffffffffffffffffffff1673ffffffffffffffffffffffffffffffffffffffff1673ffffffffffffffffffffffffffffffffffffffff16815260200190815260200160002060009054906101000a900460170b60170b136108d957600080fd5b8067ffffffffffffffff16600360008473ffffffffffffffffffffffffffffffffffffffff1673ffffffffffffffffffffffffffffffffffffffff1681526020019081526020016000206000600960009054906101000a900473ffffffffffffffffffffffffffffffffffffffff1673ffffffffffffffffffffffffffffffffffffffff1673ffffffffffffffffffffffffffffffffffffffff16815260200190815260200160002060008282829054906101000a900460170b0392506101000a81548177ffffffffffffffffffffffffffffffffffffffffffffffff021916908360170b77ffffffffffffffffffffffffffffffffffffffffffffffff1602179055505050565b6109e9613917565b6109f284612392565b905073__MarginalFunctionality_________________63f96d18e160056004600360068689896040518863ffffffff1660e01b8152600401610a3b9796959493929190615143565b60006040518083038186803b158015610a5357600080fd5b505af4158015610a67573d6000803e3d6000fd5b5050505050505050565b600760029054906101000a900467ffffffffffffffff1681565b6000610a96826124fd565b9050919050565b6007600a9054906101000a900467ffffffffffffffff1681565b600860009054906101000a900473ffffffffffffffffffffffffffffffffffffffff1673ffffffffffffffffffffffffffffffffffffffff163373ffffffffffffffffffffffffffffffffffffffff1614610b47576040517f08c379a0000000000000000000000000000000000000000000000000000000008152600401610b3e90615488565b60405180910390fd5b8067ffffffffffffffff16600360008473ffffffffffffffffffffffffffffffffffffffff1673ffffffffffffffffffffffffffffffffffffffff1681526020019081526020016000206000600960009054906101000a900473ffffffffffffffffffffffffffffffffffffffff1673ffffffffffffffffffffffffffffffffffffffff1673ffffffffffffffffffffffffffffffffffffffff16815260200190815260200160002060008282829054906101000a900460170b0192506101000a81548177ffffffffffffffffffffffffffffffffffffffffffffffff021916908360170b77ffffffffffffffffffffffffffffffffffffffffffffffff1602179055505050565b60026020528160005260406000208181548110610c6857fe5b9060005260206000209060020201600091509150508060000160009054906101000a900467ffffffffffffffff16908060000160089054906101000a900477ffffffffffffffffffffffffffffffffffffffffffffffff16908060010160009054906101000a900477ffffffffffffffffffffffffffffffffffffffffffffffff16908060010160189054906101000a900467ffffffffffffffff16905084565b60066020528060005260406000206000915054906101000a900460ff1681565b60606000610d36836124fd565b905060026000828152602001908152602001600020805480602002602001604051908101604052809291908181526020016000905b82821015610ec557838290600052602060002090600202016040518060800160405290816000820160009054906101000a900467ffffffffffffffff1667ffffffffffffffff1667ffffffffffffffff1681526020016000820160089054906101000a900477ffffffffffffffffffffffffffffffffffffffffffffffff1677ffffffffffffffffffffffffffffffffffffffffffffffff1677ffffffffffffffffffffffffffffffffffffffffffffffff1681526020016001820160009054906101000a900477ffffffffffffffffffffffffffffffffffffffffffffffff1677ffffffffffffffffffffffffffffffffffffffffffffffff1677ffffffffffffffffffffffffffffffffffffffffffffffff1681526020016001820160189054906101000a900467ffffffffffffffff1667ffffffffffffffff1667ffffffffffffffff168152505081526020019060010190610d6b565b50505050915050919050565b610ed961259b565b73ffffffffffffffffffffffffffffffffffffffff16600160009054906101000a900473ffffffffffffffffffffffffffffffffffffffff1673ffffffffffffffffffffffffffffffffffffffff1614610f68576040517f08c379a0000000000000000000000000000000000000000000000000000000008152600401610f5f90615468565b60405180910390fd5b600073ffffffffffffffffffffffffffffffffffffffff16600160009054906101000a900473ffffffffffffffffffffffffffffffffffffffff1673ffffffffffffffffffffffffffffffffffffffff167f8be0079c531659141344cd1fd0a4f28419497f9722a3daafe3b4186f6b6457e060405160405180910390a36000600160006101000a81548173ffffffffffffffffffffffffffffffffffffffff021916908373ffffffffffffffffffffffffffffffffffffffff160217905550565b6002600054141561106f576040517f08c379a000000000000000000000000000000000000000000000000000000000815260040161106690615508565b60405180910390fd5b6002600081905550600073__LibUnitConverter______________________634324960684846040518363ffffffff1660e01b81526004016110b2929190615044565b60206040518083038186803b1580156110ca57600080fd5b505af41580156110de573d6000803e3d6000fd5b505050506040513d601f19601f8201168201806040525061110291908101906141e9565b9050600033905081600d0b600360008373ffffffffffffffffffffffffffffffffffffffff1673ffffffffffffffffffffffffffffffffffffffff16815260200190815260200160002060008673ffffffffffffffffffffffffffffffffffffffff1673ffffffffffffffffffffffffffffffffffffffff16815260200190815260200160002060009054906101000a900460170b60170b121580156111ad57506111ac81611ab7565b5b6111ec576040517f08c379a00000000000000000000000000000000000000000000000000000000081526004016111e390615448565b60405180910390fd5b81600d0b600360008373ffffffffffffffffffffffffffffffffffffffff1673ffffffffffffffffffffffffffffffffffffffff16815260200190815260200160002060008673ffffffffffffffffffffffffffffffffffffffff1673ffffffffffffffffffffffffffffffffffffffff16815260200190815260200160002060008282829054906101000a900460170b0392506101000a81548177ffffffffffffffffffffffffffffffffffffffffffffffff021916908360170b77ffffffffffffffffffffffffffffffffffffffffffffffff1602179055506000836dffffffffffffffffffffffffffff169050600073ffffffffffffffffffffffffffffffffffffffff168573ffffffffffffffffffffffffffffffffffffffff1614156113c35760008273ffffffffffffffffffffffffffffffffffffffff168260405161133790614f00565b60006040518083038185875af1925050503d8060008114611374576040519150601f19603f3d011682016040523d82523d6000602084013e611379565b606091505b50509050806113bd576040517f08c379a00000000000000000000000000000000000000000000000000000000081526004016113b490615408565b60405180910390fd5b506113ef565b6113ee82828773ffffffffffffffffffffffffffffffffffffffff166125a39092919063ffffffff16565b5b8473ffffffffffffffffffffffffffffffffffffffff168273ffffffffffffffffffffffffffffffffffffffff167f680bf27edbd578e3c9c5afd420badcf2fe53be197a76c602d30480831c2a85876000864260405161145193929190615236565b60405180910390a350505060016000819055505050565b6114a53330836dffffffffffffffffffffffffffff168573ffffffffffffffffffffffffffffffffffffffff16612629909392919063ffffffff16565b6114af82826126b2565b5050565b6000600160009054906101000a900473ffffffffffffffffffffffffffffffffffffffff16905090565b6114e561259b565b73ffffffffffffffffffffffffffffffffffffffff16600160009054906101000a900473ffffffffffffffffffffffffffffffffffffffff1673ffffffffffffffffffffffffffffffffffffffff1614611574576040517f08c379a000000000000000000000000000000000000000000000000000000000815260040161156b90615468565b60405180910390fd5b60005b82518161ffff16101561161757818161ffff168151811061159457fe5b602002602001015160066000858461ffff16815181106115b057fe5b602002602001015173ffffffffffffffffffffffffffffffffffffffff1673ffffffffffffffffffffffffffffffffffffffff16815260200190815260200160002060006101000a81548160ff021916908360ff1602179055508080600101915050611577565b505050565b606060058054806020026020016040519081016040528092919081815260200182805480156116a057602002820191906000526020600020905b8160009054906101000a900473ffffffffffffffffffffffffffffffffffffffff1673ffffffffffffffffffffffffffffffffffffffff1681526020019060010190808311611656575b5050505050905090565b600260005414156116f0576040517f08c379a00000000000000000000000000000000000000000000000000000000081526004016116e790615508565b60405180910390fd5b600260008190555060006305f5e1008367ffffffffffffffff16836dffffffffffffffffffffffffffff16028161172357fe5b0490506dffffffffffffffffffffffffffff8110611776576040517f08c379a000000000000000000000000000000000000000000000000000000000815260040161176d90615528565b60405180910390fd5b60008190506000611786876124fd565b90506000611793876124fd565b905073__LibValidator__________________________63c956a3b7898933898b42600b60009054906101000a900473ffffffffffffffffffffffffffffffffffffffff166040518863ffffffff1660e01b81526004016117fa979695949392919061556a565b60206040518083038186803b15801561181257600080fd5b505af4158015611826573d6000803e3d6000fd5b505050506040513d601f19601f8201168201806040525061184a919081019061415b565b611889576040517f08c379a0000000000000000000000000000000000000000000000000000000008152600401611880906153a8565b60405180910390fd5b6118968886856001612a3d565b6118a38786856000612a3d565b6118b08860000151611ab7565b6118ef576040517f08c379a00000000000000000000000000000000000000000000000000000000081526004016118e6906154e8565b60405180910390fd5b6118fc8760000151611ab7565b61193b576040517f08c379a0000000000000000000000000000000000000000000000000000000008152600401611932906153e8565b60405180910390fd5b611947828987896132a3565b611953818887896132a3565b866000015173ffffffffffffffffffffffffffffffffffffffff16886000015173ffffffffffffffffffffffffffffffffffffffff167f2cb48e3cb1f0f27852a167ba54cb02d89bd8bf1beb99be6d42fa9d6535da5ad78a604001518b606001518a8a896040516119c8959493929190614ff1565b60405180910390a350505050600160008190555050505050565b600080600060026000858152602001908152602001600020905060005b81805490508161ffff161015611ab057818161ffff1681548110611a1f57fe5b906000526020600020906002020160000160089054906101000a900477ffffffffffffffffffffffffffffffffffffffffffffffff1684019350818161ffff1681548110611a6957fe5b906000526020600020906002020160010160009054906101000a900477ffffffffffffffffffffffffffffffffffffffffffffffff168301925080806001019150506119ff565b5050915091565b600080600460008473ffffffffffffffffffffffffffffffffffffffff1673ffffffffffffffffffffffffffffffffffffffff168152602001908152602001600020805490501415611b0c5760019050611b35565b60006004811115611b1957fe5b611b22836122dc565b600001516004811115611b3157fe5b1490505b919050565b611b456000346126b2565b565b6060808351604051908082528060200260200182016040528015611b7a5781602001602082028038833980820191505090505b50905060005b84518161ffff161015611c5f57600360008573ffffffffffffffffffffffffffffffffffffffff1673ffffffffffffffffffffffffffffffffffffffff1681526020019081526020016000206000868361ffff1681518110611bde57fe5b602002602001015173ffffffffffffffffffffffffffffffffffffffff1673ffffffffffffffffffffffffffffffffffffffff16815260200190815260200160002060009054906101000a900460170b828261ffff1681518110611c3e57fe5b602002602001019060170b908160170b815250508080600101915050611b80565b508091505092915050565b6000600360008373ffffffffffffffffffffffffffffffffffffffff1673ffffffffffffffffffffffffffffffffffffffff16815260200190815260200160002060008473ffffffffffffffffffffffffffffffffffffffff1673ffffffffffffffffffffffffffffffffffffffff16815260200190815260200160002060009054906101000a900460170b905092915050565b600760009054906101000a900460ff1681565b611d1961259b565b73ffffffffffffffffffffffffffffffffffffffff16600160009054906101000a900473ffffffffffffffffffffffffffffffffffffffff1673ffffffffffffffffffffffffffffffffffffffff1614611da8576040517f08c379a0000000000000000000000000000000000000000000000000000000008152600401611d9f90615468565b60405180910390fd5b8460059080519060200190611dbe9291906139ce565b5083600760006101000a81548160ff021916908360ff16021790555082600760016101000a81548160ff021916908360ff16021790555081600760026101000a81548167ffffffffffffffff021916908367ffffffffffffffff160217905550806007600a6101000a81548167ffffffffffffffff021916908367ffffffffffffffff1602179055505050505050565b600073__LibValidator__________________________63e7e652ed836040518263ffffffff1660e01b8152600401611e879190615548565b60206040518083038186803b158015611e9f57600080fd5b505af4158015611eb3573d6000803e3d6000fd5b505050506040513d601f19601f82011682018060405250611ed7919081019061415b565b9050919050565b600760019054906101000a900460ff1681565b611ef961259b565b73ffffffffffffffffffffffffffffffffffffffff16600160009054906101000a900473ffffffffffffffffffffffffffffffffffffffff1673ffffffffffffffffffffffffffffffffffffffff1614611f88576040517f08c379a0000000000000000000000000000000000000000000000000000000008152600401611f7f90615468565b60405180910390fd5b600073ffffffffffffffffffffffffffffffffffffffff168173ffffffffffffffffffffffffffffffffffffffff161415611ff8576040517f08c379a0000000000000000000000000000000000000000000000000000000008152600401611fef906153c8565b60405180910390fd5b8073ffffffffffffffffffffffffffffffffffffffff16600160009054906101000a900473ffffffffffffffffffffffffffffffffffffffff1673ffffffffffffffffffffffffffffffffffffffff167f8be0079c531659141344cd1fd0a4f28419497f9722a3daafe3b4186f6b6457e060405160405180910390a380600160006101000a81548173ffffffffffffffffffffffffffffffffffffffff021916908373ffffffffffffffffffffffffffffffffffffffff16021790555050565b6060600460008373ffffffffffffffffffffffffffffffffffffffff1673ffffffffffffffffffffffffffffffffffffffff168152602001908152602001600020805480602002602001604051908101604052809291908181526020016000905b8282101561223557838290600052602060002090600202016040518060600160405290816000820160009054906101000a900473ffffffffffffffffffffffffffffffffffffffff1673ffffffffffffffffffffffffffffffffffffffff1673ffffffffffffffffffffffffffffffffffffffff1681526020016000820160149054906101000a900467ffffffffffffffff1667ffffffffffffffff1667ffffffffffffffff1681526020016001820160009054906101000a900477ffffffffffffffffffffffffffffffffffffffffffffffff1677ffffffffffffffffffffffffffffffffffffffffffffffff1677ffffffffffffffffffffffffffffffffffffffffffffffff168152505081526020019060010190612119565b505050509050919050565b6004602052816000526040600020818154811061225957fe5b9060005260206000209060020201600091509150508060000160009054906101000a900473ffffffffffffffffffffffffffffffffffffffff16908060000160149054906101000a900467ffffffffffffffff16908060010160009054906101000a900477ffffffffffffffffffffffffffffffffffffffffffffffff16905083565b6122e4613a58565b6122ec613917565b6122f583612392565b905073__MarginalFunctionality_________________63f127baa16005600460036006866040518663ffffffff1660e01b815260040161233a9594939291906150ef565b60806040518083038186803b15801561235257600080fd5b505af4158015612366573d6000803e3d6000fd5b505050506040513d601f19601f8201168201806040525061238a91908101906142e6565b915050919050565b61239a613917565b6040518061010001604052808373ffffffffffffffffffffffffffffffffffffffff168152602001600a60009054906101000a900473ffffffffffffffffffffffffffffffffffffffff1673ffffffffffffffffffffffffffffffffffffffff168152602001600860009054906101000a900473ffffffffffffffffffffffffffffffffffffffff1673ffffffffffffffffffffffffffffffffffffffff168152602001600960009054906101000a900473ffffffffffffffffffffffffffffffffffffffff1673ffffffffffffffffffffffffffffffffffffffff1681526020016007600a9054906101000a900467ffffffffffffffff1667ffffffffffffffff168152602001600760029054906101000a900467ffffffffffffffff1667ffffffffffffffff168152602001600760009054906101000a900460ff1660ff168152602001600760019054906101000a900460ff1660ff168152509050919050565b60008060405160200161250f90614eeb565b60405160208183030381529060405280519060200120905080836000015184602001518560400151866060015187608001518860a001518960c001518a60e001518b61010001518c61012001518d610140015160405160200161257d9c9b9a99989796959493929190615288565b60405160208183030381529060405280519060200120915050919050565b600033905090565b6126248363a9059cbb60e01b84846040516024016125c292919061506d565b604051602081830303815290604052907bffffffffffffffffffffffffffffffffffffffffffffffffffffffff19166020820180517bffffffffffffffffffffffffffffffffffffffffffffffffffffffff8381831617835250505050613576565b505050565b6126ac846323b872dd60e01b85858560405160240161264a93929190614fba565b604051602081830303815290604052907bffffffffffffffffffffffffffffffffffffffffffffffffffffffff19166020820180517bffffffffffffffffffffffffffffffffffffffffffffffffffffffff8381831617835250505050613576565b50505050565b6000339050600080600360008473ffffffffffffffffffffffffffffffffffffffff1673ffffffffffffffffffffffffffffffffffffffff16815260200190815260200160002060008673ffffffffffffffffffffffffffffffffffffffff1673ffffffffffffffffffffffffffffffffffffffff16815260200190815260200160002060009054906101000a900460170b60170b129050600073__LibUnitConverter______________________634324960686866040518363ffffffff1660e01b8152600401612785929190615044565b60206040518083038186803b15801561279d57600080fd5b505af41580156127b1573d6000803e3d6000fd5b505050506040513d601f19601f820116820180604052506127d591908101906141e9565b905080600d0b600360008573ffffffffffffffffffffffffffffffffffffffff1673ffffffffffffffffffffffffffffffffffffffff16815260200190815260200160002060008773ffffffffffffffffffffffffffffffffffffffff1673ffffffffffffffffffffffffffffffffffffffff16815260200190815260200160002060008282829054906101000a900460170b0192506101000a81548177ffffffffffffffffffffffffffffffffffffffffffffffff021916908360170b77ffffffffffffffffffffffffffffffffffffffffffffffff1602179055506000846dffffffffffffffffffffffffffff161115612936578473ffffffffffffffffffffffffffffffffffffffff168373ffffffffffffffffffffffffffffffffffffffff167f680bf27edbd578e3c9c5afd420badcf2fe53be197a76c602d30480831c2a85876001844260405161292d93929190615236565b60405180910390a35b8115612a365773__MarginalFunctionality_________________63c8d1ef468487600485600360008a73ffffffffffffffffffffffffffffffffffffffff1673ffffffffffffffffffffffffffffffffffffffff16815260200190815260200160002060008c73ffffffffffffffffffffffffffffffffffffffff1673ffffffffffffffffffffffffffffffffffffffff16815260200190815260200160002060009054906101000a900460170b6040518663ffffffff1660e01b8152600401612a05959493929190614f67565b60006040518083038186803b158015612a1d57600080fd5b505af4158015612a31573d6000803e3d6000fd5b505050505b5050505050565b6000846000015190508460a0015167ffffffffffffffff16846dffffffffffffffffffffffffffff168660e0015167ffffffffffffffff160281612a7d57fe5b048560e0019067ffffffffffffffff16908167ffffffffffffffff168152505081612aad57828480945081955050505b600080600360008473ffffffffffffffffffffffffffffffffffffffff1673ffffffffffffffffffffffffffffffffffffffff1681526020019081526020016000206000886080015173ffffffffffffffffffffffffffffffffffffffff1673ffffffffffffffffffffffffffffffffffffffff16815260200190815260200160002060009054906101000a900460170b60170b12905060008084612b5b5787604001518860600151612b66565b876060015188604001515b915091506000600360008673ffffffffffffffffffffffffffffffffffffffff1673ffffffffffffffffffffffffffffffffffffffff16815260200190815260200160002060008473ffffffffffffffffffffffffffffffffffffffff1673ffffffffffffffffffffffffffffffffffffffff16815260200190815260200160002060009054906101000a900460170b90506000600360008773ffffffffffffffffffffffffffffffffffffffff1673ffffffffffffffffffffffffffffffffffffffff16815260200190815260200160002060008473ffffffffffffffffffffffffffffffffffffffff1673ffffffffffffffffffffffffffffffffffffffff16815260200190815260200160002060009054906101000a900460170b905060008060008460170b1290506000808460170b1290508a6dffffffffffffffffffffffffffff16600360008b73ffffffffffffffffffffffffffffffffffffffff1673ffffffffffffffffffffffffffffffffffffffff16815260200190815260200160002060008973ffffffffffffffffffffffffffffffffffffffff1673ffffffffffffffffffffffffffffffffffffffff16815260200190815260200160002060009054906101000a900460170b03925082600360008b73ffffffffffffffffffffffffffffffffffffffff1673ffffffffffffffffffffffffffffffffffffffff16815260200190815260200160002060008973ffffffffffffffffffffffffffffffffffffffff1673ffffffffffffffffffffffffffffffffffffffff16815260200190815260200160002060006101000a81548177ffffffffffffffffffffffffffffffffffffffffffffffff021916908360170b77ffffffffffffffffffffffffffffffffffffffffffffffff1602179055508b6dffffffffffffffffffffffffffff16600360008b73ffffffffffffffffffffffffffffffffffffffff1673ffffffffffffffffffffffffffffffffffffffff16815260200190815260200160002060008873ffffffffffffffffffffffffffffffffffffffff1673ffffffffffffffffffffffffffffffffffffffff16815260200190815260200160002060008282829054906101000a900460170b0192506101000a81548177ffffffffffffffffffffffffffffffffffffffffffffffff021916908360170b77ffffffffffffffffffffffffffffffffffffffffffffffff16021790555081158015612ef9575060008360170b125b15612f0a57612f0989888561363d565b5b808015612fa457506000600360008b73ffffffffffffffffffffffffffffffffffffffff1673ffffffffffffffffffffffffffffffffffffffff16815260200190815260200160002060008873ffffffffffffffffffffffffffffffffffffffff1673ffffffffffffffffffffffffffffffffffffffff16815260200190815260200160002060009054906101000a900460170b60170b12155b156130165773__MarginalFunctionality_________________63bb1902ff8a8860046040518463ffffffff1660e01b8152600401612fe593929190614f30565b60006040518083038186803b158015612ffd57600080fd5b505af4158015613011573d6000803e3d6000fd5b505050505b8c60e0015167ffffffffffffffff16600360008b73ffffffffffffffffffffffffffffffffffffffff1673ffffffffffffffffffffffffffffffffffffffff16815260200190815260200160002060008f6080015173ffffffffffffffffffffffffffffffffffffffff1673ffffffffffffffffffffffffffffffffffffffff16815260200190815260200160002060009054906101000a900460170b03925082600360008b73ffffffffffffffffffffffffffffffffffffffff1673ffffffffffffffffffffffffffffffffffffffff16815260200190815260200160002060008f6080015173ffffffffffffffffffffffffffffffffffffffff1673ffffffffffffffffffffffffffffffffffffffff16815260200190815260200160002060006101000a81548177ffffffffffffffffffffffffffffffffffffffffffffffff021916908360170b77ffffffffffffffffffffffffffffffffffffffffffffffff16021790555087158015613191575060008360170b125b156131a6576131a5898e608001518561363d565b5b8c60e0015167ffffffffffffffff16600360008f6020015173ffffffffffffffffffffffffffffffffffffffff1673ffffffffffffffffffffffffffffffffffffffff16815260200190815260200160002060008f6080015173ffffffffffffffffffffffffffffffffffffffff1673ffffffffffffffffffffffffffffffffffffffff16815260200190815260200160002060008282829054906101000a900460170b0192506101000a81548177ffffffffffffffffffffffffffffffffffffffffffffffff021916908360170b77ffffffffffffffffffffffffffffffffffffffffffffffff16021790555050505050505050505050505050565b60008360a0015167ffffffffffffffff16836dffffffffffffffffffffffffffff168560e0015167ffffffffffffffff1602816132dc57fe5b0490506000806132eb876119e2565b915091506000856dffffffffffffffffffffffffffff168360170b01905060008460170b8360170b0190508760a0015167ffffffffffffffff16821115613367576040517f08c379a000000000000000000000000000000000000000000000000000000000815260040161335e906153a8565b60405180910390fd5b8760e0015167ffffffffffffffff168111156133b8576040517f08c379a00000000000000000000000000000000000000000000000000000000081526004016133af906153a8565b60405180910390fd5b600260008a815260200190815260200160002060405180608001604052808867ffffffffffffffff168152602001896dffffffffffffffffffffffffffff1677ffffffffffffffffffffffffffffffffffffffffffffffff1681526020018777ffffffffffffffffffffffffffffffffffffffffffffffff1681526020014267ffffffffffffffff16815250908060018154018082558091505060019003906000526020600020906002020160009091909190915060008201518160000160006101000a81548167ffffffffffffffff021916908367ffffffffffffffff16021790555060208201518160000160086101000a81548177ffffffffffffffffffffffffffffffffffffffffffffffff021916908377ffffffffffffffffffffffffffffffffffffffffffffffff16021790555060408201518160010160006101000a81548177ffffffffffffffffffffffffffffffffffffffffffffffff021916908377ffffffffffffffffffffffffffffffffffffffffffffffff16021790555060608201518160010160186101000a81548167ffffffffffffffff021916908367ffffffffffffffff1602179055505050505050505050505050565b60606135d8826040518060400160405280602081526020017f5361666545524332303a206c6f772d6c6576656c2063616c6c206661696c65648152508573ffffffffffffffffffffffffffffffffffffffff166137c99092919063ffffffff16565b905060008151111561363857808060200190516135f8919081019061415b565b613637576040517f08c379a000000000000000000000000000000000000000000000000000000000815260040161362e906154c8565b60405180910390fd5b5b505050565b600460008473ffffffffffffffffffffffffffffffffffffffff1673ffffffffffffffffffffffffffffffffffffffff16815260200190815260200160002060405180606001604052808473ffffffffffffffffffffffffffffffffffffffff1681526020014267ffffffffffffffff1681526020018360000377ffffffffffffffffffffffffffffffffffffffffffffffff16815250908060018154018082558091505060019003906000526020600020906002020160009091909190915060008201518160000160006101000a81548173ffffffffffffffffffffffffffffffffffffffff021916908373ffffffffffffffffffffffffffffffffffffffff16021790555060208201518160000160146101000a81548167ffffffffffffffff021916908367ffffffffffffffff16021790555060408201518160010160006101000a81548177ffffffffffffffffffffffffffffffffffffffffffffffff021916908377ffffffffffffffffffffffffffffffffffffffffffffffff1602179055505050505050565b60606137d884846000856137e1565b90509392505050565b60606137ec85613904565b61382b576040517f08c379a0000000000000000000000000000000000000000000000000000000008152600401613822906154a8565b60405180910390fd5b600060608673ffffffffffffffffffffffffffffffffffffffff1685876040516138559190614ed4565b60006040518083038185875af1925050503d8060008114613892576040519150601f19603f3d011682016040523d82523d6000602084013e613897565b606091505b509150915081156138ac5780925050506138fc565b6000815111156138bf5780518082602001fd5b836040517f08c379a00000000000000000000000000000000000000000000000000000000081526004016138f39190615386565b60405180910390fd5b949350505050565b600080823b905060008111915050919050565b604051806101000160405280600073ffffffffffffffffffffffffffffffffffffffff168152602001600073ffffffffffffffffffffffffffffffffffffffff168152602001600073ffffffffffffffffffffffffffffffffffffffff168152602001600073ffffffffffffffffffffffffffffffffffffffff168152602001600067ffffffffffffffff168152602001600067ffffffffffffffff168152602001600060ff168152602001600060ff1681525090565b828054828255906000526020600020908101928215613a47579160200282015b82811115613a465782518260006101000a81548173ffffffffffffffffffffffffffffffffffffffff021916908373ffffffffffffffffffffffffffffffffffffffff160217905550916020019190600101906139ee565b5b509050613a549190613a8b565b5090565b604051806080016040528060006004811115613a7057fe5b81526020016000815260200160008152602001600081525090565b613acb91905b80821115613ac757600081816101000a81549073ffffffffffffffffffffffffffffffffffffffff021916905550600101613a91565b5090565b90565b600081359050613add81615a29565b92915050565b600082601f830112613af457600080fd5b8135613b07613b02826156aa565b61567d565b91508181835260208401935060208101905083856020840282011115613b2c57600080fd5b60005b83811015613b5c5781613b428882613ace565b845260208401935060208301925050600181019050613b2f565b5050505092915050565b600082601f830112613b7757600080fd5b8135613b8a613b85826156d2565b61567d565b91508181835260208401935060208101905083856020840282011115613baf57600080fd5b60005b83811015613bdf5781613bc58882613e8f565b845260208401935060208301925050600181019050613bb2565b5050505092915050565b600081519050613bf881615a40565b92915050565b600081359050613c0d81615a57565b92915050565b600082601f830112613c2457600080fd5b8135613c37613c32826156fa565b61567d565b91508082526020830160208301858383011115613c5357600080fd5b613c5e8382846159c9565b50505092915050565b600081519050613c7681615a6e565b92915050565b600081519050613c8b81615a7e565b92915050565b600081519050613ca081615a95565b92915050565b60006101808284031215613cb957600080fd5b613cc461018061567d565b90506000613cd484828501613ace565b6000830152506020613ce884828501613ace565b6020830152506040613cfc84828501613ace565b6040830152506060613d1084828501613ace565b6060830152506080613d2484828501613ace565b60808301525060a0613d3884828501613e7a565b60a08301525060c0613d4c84828501613e7a565b60c08301525060e0613d6084828501613e7a565b60e083015250610100613d7584828501613e7a565b61010083015250610120613d8b84828501613e7a565b61012083015250610140613da184828501613e8f565b6101408301525061016082013567ffffffffffffffff811115613dc357600080fd5b613dcf84828501613c13565b6101608301525092915050565b600060808284031215613dee57600080fd5b613df8608061567d565b90506000613e0884828501613c67565b6000830152506020613e1c84828501613c91565b6020830152506040613e3084828501613c91565b6040830152506060613e4484828501613c91565b60608301525092915050565b600081359050613e5f81615aac565b92915050565b600081359050613e7481615ac3565b92915050565b600081359050613e8981615ada565b92915050565b600081359050613e9e81615af1565b92915050565b600060208284031215613eb657600080fd5b6000613ec484828501613ace565b91505092915050565b60008060408385031215613ee057600080fd5b6000613eee85828601613ace565b9250506020613eff85828601613ace565b9150509250929050565b600080600060608486031215613f1e57600080fd5b6000613f2c86828701613ace565b9350506020613f3d86828701613ace565b9250506040613f4e86828701613e50565b9150509250925092565b60008060408385031215613f6b57600080fd5b6000613f7985828601613ace565b9250506020613f8a85828601613e50565b9150509250929050565b60008060408385031215613fa757600080fd5b6000613fb585828601613ace565b9250506020613fc685828601613e65565b9150509250929050565b60008060408385031215613fe357600080fd5b6000613ff185828601613ace565b925050602061400285828601613e7a565b9150509250929050565b6000806040838503121561401f57600080fd5b600083013567ffffffffffffffff81111561403957600080fd5b61404585828601613ae3565b925050602061405685828601613ace565b9150509250929050565b6000806040838503121561407357600080fd5b600083013567ffffffffffffffff81111561408d57600080fd5b61409985828601613ae3565b925050602083013567ffffffffffffffff8111156140b657600080fd5b6140c285828601613b66565b9150509250929050565b600080600080600060a086880312156140e457600080fd5b600086013567ffffffffffffffff8111156140fe57600080fd5b61410a88828901613ae3565b955050602061411b88828901613e8f565b945050604061412c88828901613e8f565b935050606061413d88828901613e7a565b925050608061414e88828901613e7a565b9150509295509295909350565b60006020828403121561416d57600080fd5b600061417b84828501613be9565b91505092915050565b60006020828403121561419657600080fd5b60006141a484828501613bfe565b91505092915050565b600080604083850312156141c057600080fd5b60006141ce85828601613bfe565b92505060206141df85828601613e65565b9150509250929050565b6000602082840312156141fb57600080fd5b600061420984828501613c7c565b91505092915050565b60006020828403121561422457600080fd5b600082013567ffffffffffffffff81111561423e57600080fd5b61424a84828501613ca6565b91505092915050565b6000806000806080858703121561426957600080fd5b600085013567ffffffffffffffff81111561428357600080fd5b61428f87828801613ca6565b945050602085013567ffffffffffffffff8111156142ac57600080fd5b6142b887828801613ca6565b93505060406142c987828801613e7a565b92505060606142da87828801613e50565b91505092959194509250565b6000608082840312156142f857600080fd5b600061430684828501613ddc565b91505092915050565b600061431b838361437e565b60208301905092915050565b600061433383836145d0565b60208301905092915050565b600061434b8383614b70565b60608301905092915050565b60006143638383614d0b565b60808301905092915050565b6143788161594b565b82525050565b61438781615863565b82525050565b61439681615863565b82525050565b6143a581615863565b82525050565b6143b481615863565b82525050565b60006143c582615766565b6143cf81856157e7565b93506143da83615726565b8060005b8381101561440b5781516143f2888261430f565b97506143fd836157b3565b9250506001810190506143de565b5085935050505092915050565b8082525050565b600061442a82615771565b61443481856157f8565b935061443f83615736565b8060005b838110156144705781516144578882614327565b9750614462836157c0565b925050600181019050614443565b5085935050505092915050565b60006144888261577c565b6144928185615809565b935061449d83615746565b8060005b838110156144ce5781516144b5888261433f565b97506144c0836157cd565b9250506001810190506144a1565b5085935050505092915050565b60006144e682615787565b6144f0818561581a565b93506144fb83615756565b8060005b8381101561452c5781516145138882614357565b975061451e836157da565b9250506001810190506144ff565b5085935050505092915050565b61454281615875565b82525050565b61455181615881565b82525050565b60006145628261579d565b61456c818561583c565b935061457c8185602086016159d8565b80840191505092915050565b600061459382615792565b61459d818561582b565b93506145ad8185602086016159d8565b6145b681615a0b565b840191505092915050565b6145ca8161595d565b82525050565b6145d9816158ab565b82525050565b6145e8816158ab565b82525050565b6145f7816158ab565b82525050565b614606816158b8565b82525050565b8082525050565b8082525050565b8082525050565b600061462c826157a8565b6146368185615847565b93506146468185602086016159d8565b61464f81615a0b565b840191505092915050565b6000614667600283615847565b91507f45330000000000000000000000000000000000000000000000000000000000006000830152602082019050919050565b60006146a7602683615847565b91507f4f776e61626c653a206e6577206f776e657220697320746865207a65726f206160008301527f64647265737300000000000000000000000000000000000000000000000000006020830152604082019050919050565b600061470d602483615847565b91507f496e636f7272656374206d617267696e20706f736974696f6e20666f7220736560008301527f6c6c6572000000000000000000000000000000000000000000000000000000006020830152604082019050919050565b6000614773600283615847565b91507f45360000000000000000000000000000000000000000000000000000000000006000830152602082019050919050565b60006147b3601883615847565b91507f556e617574686f72697a6564206d6f7665546f5374616b6500000000000000006000830152602082019050919050565b60006147f3600283615847565b91507f45310000000000000000000000000000000000000000000000000000000000006000830152602082019050919050565b6000614833602083615847565b91507f4f776e61626c653a2063616c6c6572206973206e6f7420746865206f776e65726000830152602082019050919050565b6000614873601a83615847565b91507f556e617574686f72697a6564206d6f766546726f6d5374616b650000000000006000830152602082019050919050565b60006148b360ca83615858565b91507f4f7264657228616464726573732073656e646572416464726573732c6164647260008301527f657373206d617463686572416464726573732c6164647265737320626173654160208301527f737365742c616464726573732071756f746541737365742c616464726573732060408301527f6d61746368657246656541737365742c75696e74363420616d6f756e742c756960608301527f6e7436342070726963652c75696e743634206d6174636865724665652c75696e60808301527f743634206e6f6e63652c75696e7436342065787069726174696f6e2c75696e7460a08301527f382062757953696465290000000000000000000000000000000000000000000060c083015260ca82019050919050565b60006149d760008361583c565b9150600082019050919050565b60006149f1601d83615847565b91507f416464726573733a2063616c6c20746f206e6f6e2d636f6e74726163740000006000830152602082019050919050565b6000614a31602a83615847565b91507f5361666545524332303a204552433230206f7065726174696f6e20646964206e60008301527f6f742073756363656564000000000000000000000000000000000000000000006020830152604082019050919050565b6000614a97602383615847565b91507f496e636f7272656374206d617267696e20706f736974696f6e20666f7220627560008301527f79657200000000000000000000000000000000000000000000000000000000006020830152604082019050919050565b6000614afd601f83615847565b91507f5265656e7472616e637947756172643a207265656e7472616e742063616c6c006000830152602082019050919050565b6000614b3d600c83615847565b91507f57726f6e6720616d6f756e7400000000000000000000000000000000000000006000830152602082019050919050565b606082016000820151614b86600085018261437e565b506020820151614b996020850182614e89565b506040820151614bac6040850182614e3e565b50505050565b600061018083016000830151614bcb60008601826143ab565b506020830151614bde60208601826143ab565b506040830151614bf160408601826143ab565b506060830151614c0460608601826143ab565b506080830151614c1760808601826143ab565b5060a0830151614c2a60a0860182614ea7565b5060c0830151614c3d60c0860182614ea7565b5060e0830151614c5060e0860182614ea7565b50610100830151614c65610100860182614ea7565b50610120830151614c7a610120860182614ea7565b50610140830151614c8f610140860182614ec5565b50610160830151848203610160860152614ca98282614588565b9150508091505092915050565b608082016000820151614ccc60008501826145c1565b506020820151614cdf60208501826145fd565b506040820151614cf260408501826145fd565b506060820151614d0560608501826145fd565b50505050565b608082016000820151614d216000850182614e89565b506020820151614d346020850182614e3e565b506040820151614d476040850182614e3e565b506060820151614d5a6060850182614e89565b50505050565b61010082016000820151614d7760008501826143ab565b506020820151614d8a60208501826143ab565b506040820151614d9d60408501826143ab565b506060820151614db060608501826143ab565b506080820151614dc36080850182614ea7565b5060a0820151614dd660a0850182614ea7565b5060c0820151614de960c0850182614ec5565b5060e0820151614dfc60e0850182614ec5565b50505050565b614e0b816158c2565b82525050565b614e1a816158c2565b82525050565b614e298161596f565b82525050565b614e3881615981565b82525050565b614e47816158fc565b82525050565b614e56816158fc565b82525050565b614e6581615920565b82525050565b614e7481615920565b82525050565b614e83816159b7565b82525050565b614e928161592a565b82525050565b614ea18161592a565b82525050565b614eb08161592a565b82525050565b614ebf8161593e565b82525050565b614ece8161593e565b82525050565b6000614ee08284614557565b915081905092915050565b6000614ef6826148a6565b9150819050919050565b6000614f0b826149ca565b9150819050919050565b6000602082019050614f2a600083018461438d565b92915050565b6000606082019050614f45600083018661439c565b614f52602083018561439c565b614f5f604083018461460c565b949350505050565b600060a082019050614f7c600083018861439c565b614f89602083018761439c565b614f96604083018661460c565b614fa36060830185614e11565b614fb060808301846145ee565b9695505050505050565b6000606082019050614fcf600083018661438d565b614fdc602083018561438d565b614fe96040830184614e5c565b949350505050565b600060a082019050615006600083018861438d565b615013602083018761438d565b6150206040830186614e98565b61502d6060830185614e20565b61503a6080830184614e20565b9695505050505050565b6000604082019050615059600083018561439c565b6150666020830184614e2f565b9392505050565b6000604082019050615082600083018561438d565b61508f6020830184614e5c565b9392505050565b60006060820190506150ab600083018661438d565b6150b86020830185614e98565b6150c56040830184614e4d565b949350505050565b600060208201905081810360008301526150e781846143ba565b905092915050565b6000610180820190506151056000830188614418565b615112602083018761460c565b61511f6040830186614613565b61512c606083018561461a565b6151396080830184614d60565b9695505050505050565b60006101c082019050615159600083018a614418565b615166602083018961460c565b6151736040830188614613565b615180606083018761461a565b61518d6080830186614d60565b61519b61018083018561439c565b6151a96101a0830184614e11565b98975050505050505050565b600060208201905081810360008301526151cf818461441f565b905092915050565b600060208201905081810360008301526151f1818461447d565b905092915050565b6000602082019050818103600083015261521381846144db565b905092915050565b60006020820190506152306000830184614539565b92915050565b600060608201905061524b6000830186614539565b6152586020830185614e02565b6152656040830184614e98565b949350505050565b60006020820190506152826000830184614548565b92915050565b60006101808201905061529e600083018f614548565b6152ab602083018e61438d565b6152b8604083018d61438d565b6152c5606083018c61438d565b6152d2608083018b61438d565b6152df60a083018a61438d565b6152ec60c0830189614e98565b6152f960e0830188614e98565b615307610100830187614e98565b615315610120830186614e98565b615323610140830185614e98565b615331610160830184614eb6565b9d9c50505050505050505050505050565b600060208201905061535760008301846145df565b92915050565b600060408201905061537260008301856145df565b61537f60208301846145df565b9392505050565b600060208201905081810360008301526153a08184614621565b905092915050565b600060208201905081810360008301526153c18161465a565b9050919050565b600060208201905081810360008301526153e18161469a565b9050919050565b6000602082019050818103600083015261540181614700565b9050919050565b6000602082019050818103600083015261542181614766565b9050919050565b60006020820190508181036000830152615441816147a6565b9050919050565b60006020820190508181036000830152615461816147e6565b9050919050565b6000602082019050818103600083015261548181614826565b9050919050565b600060208201905081810360008301526154a181614866565b9050919050565b600060208201905081810360008301526154c1816149e4565b9050919050565b600060208201905081810360008301526154e181614a24565b9050919050565b6000602082019050818103600083015261550181614a8a565b9050919050565b6000602082019050818103600083015261552181614af0565b9050919050565b6000602082019050818103600083015261554181614b30565b9050919050565b600060208201905081810360008301526155628184614bb2565b905092915050565b600060e0820190508181036000830152615584818a614bb2565b905081810360208301526155988189614bb2565b90506155a7604083018861436f565b6155b46060830187614e2f565b6155c16080830186614e7a565b6155ce60a0830185614e6b565b6155db60c083018461439c565b98975050505050505050565b60006080820190506155fc6000830184614cb6565b92915050565b60006020820190506156176000830184614e98565b92915050565b60006080820190506156326000830187614e98565b61563f6020830186614e4d565b61564c6040830185614e4d565b6156596060830184614e98565b95945050505050565b60006020820190506156776000830184614eb6565b92915050565b6000604051905081810181811067ffffffffffffffff821117156156a057600080fd5b8060405250919050565b600067ffffffffffffffff8211156156c157600080fd5b602082029050602081019050919050565b600067ffffffffffffffff8211156156e957600080fd5b602082029050602081019050919050565b600067ffffffffffffffff82111561571157600080fd5b601f19601f8301169050602081019050919050565b6000819050602082019050919050565b6000819050602082019050919050565b6000819050602082019050919050565b6000819050602082019050919050565b600081519050919050565b600081519050919050565b600081519050919050565b600081519050919050565b600081519050919050565b600081519050919050565b600081519050919050565b6000602082019050919050565b6000602082019050919050565b6000602082019050919050565b6000602082019050919050565b600082825260208201905092915050565b600082825260208201905092915050565b600082825260208201905092915050565b600082825260208201905092915050565b600082825260208201905092915050565b600081905092915050565b600082825260208201905092915050565b600081905092915050565b600061586e826158dc565b9050919050565b60008115159050919050565b6000819050919050565b600081905061589982615a1c565b919050565b600081600d0b9050919050565b60008160170b9050919050565b6000819050919050565b60006dffffffffffffffffffffffffffff82169050919050565b600073ffffffffffffffffffffffffffffffffffffffff82169050919050565b600077ffffffffffffffffffffffffffffffffffffffffffffffff82169050919050565b6000819050919050565b600067ffffffffffffffff82169050919050565b600060ff82169050919050565b600061595682615993565b9050919050565b60006159688261588b565b9050919050565b600061597a826158c2565b9050919050565b600061598c826158c2565b9050919050565b600061599e826159a5565b9050919050565b60006159b0826158dc565b9050919050565b60006159c28261592a565b9050919050565b82818337600083830152505050565b60005b838110156159f65780820151818401526020810190506159db565b83811115615a05576000848401525b50505050565b6000601f19601f8301169050919050565b60058110615a2657fe5b50565b615a3281615863565b8114615a3d57600080fd5b50565b615a4981615875565b8114615a5457600080fd5b50565b615a6081615881565b8114615a6b57600080fd5b50565b60058110615a7b57600080fd5b50565b615a878161589e565b8114615a9257600080fd5b50565b615a9e816158b8565b8114615aa957600080fd5b50565b615ab5816158c2565b8114615ac057600080fd5b50565b615acc81615920565b8114615ad757600080fd5b50565b615ae38161592a565b8114615aee57600080fd5b50565b615afa8161593e565b8114615b0557600080fd5b5056fea2646970667358221220bae98f6aad326306e281df4fa69bdb8705ada0fcd77c669bc7cd593048b83b9e64736f6c63430006020033",
  "source": "pragma solidity ^0.6.0;\npragma experimental ABIEncoderV2;\n\nimport \"@openzeppelin/contracts/token/ERC20/IERC20.sol\";\nimport \"@openzeppelin/contracts/token/ERC20/SafeERC20.sol\";\nimport \"@openzeppelin/contracts/access/Ownable.sol\";\nimport \"@openzeppelin/contracts/utils/Address.sol\";\nimport \"./Utils.sol\";\nimport \"./libs/LibUnitConverter.sol\";\nimport \"./libs/LibValidator.sol\";\nimport \"./libs/MarginalFunctionality.sol\";\n\n/**\n * @title Exchange\n * @dev Exchange contract for the Orion Protocol\n * @author @wafflemakr\n */\n\n/*\n\n  Overflow safety:\n  We do not use SafeMath and control overflows by\n  not accepting large ints on input.\n\n  Balances inside contract are stored as int192.\n\n  Allowed input amounts are int112 or uint112: it is enough for all\n  practically used tokens: for instance if decimal unit is 1e18, int112\n  allow to encode up to 2.5e15 decimal units.\n  That way adding/subtracting any amount from balances won't overflow, since\n  minimum number of operations to reach max int is practically infinite: ~1e24.\n\n  Allowed prices are uint64. Note, that price is represented as\n  price per 1e8 tokens. That means that amount*price always fit uint256,\n  while amount*price/1e8 not only fit int192, but also can be added, subtracted\n  without overflow checks: number of malicion operations to overflow ~1e13.\n*/\ncontract Exchange is Utils, Ownable {\n\n    using LibValidator for LibValidator.Order;\n    using SafeERC20 for IERC20;\n\n    // EVENTS\n    event NewAssetTransaction(\n        address indexed user,\n        address indexed assetAddress,\n        bool isDeposit,\n        uint112 amount,\n        uint64 timestamp\n    );\n\n    event NewTrade(\n        address indexed buyer,\n        address indexed seller,\n        address baseAsset,\n        address quoteAsset,\n        uint64 filledPrice,\n        uint192 filledAmount,\n        uint192 amountQuote\n    );\n\n    // GLOBAL VARIABLES\n\n    struct Trade {\n        uint64 filledPrice;\n        uint192 filledAmount;\n        uint192 feePaid;\n        uint64 timestamp;\n    }\n\n    // Get trades by orderHash\n    mapping(bytes32 => Trade[]) public trades;\n\n    // Get user balance by address and asset address\n    mapping(address => mapping(address => int192)) private assetBalances;\n    // List of assets with negative balance for each user\n    mapping(address => MarginalFunctionality.Liability[]) public liabilities;\n    // List of assets which can be used as collateral and risk coefficients for them\n    address[] private collateralAssets;\n    mapping(address => uint8) public assetRisks;\n    // Risk coefficient for locked ORN\n    uint8 public stakeRisk;\n    // Liquidation premium\n    uint8 public liquidationPremium;\n    // Delays after which price and position become outdated\n    uint64 public priceOverdue;\n    uint64 public positionOverdue;\n\n    address _stakingContractAddress;\n    IERC20 _orionToken;\n    address _oracleAddress;\n    address _allowedMatcher;\n\n    // MAIN FUNCTIONS\n\n    constructor(address stakingContractAddress, address orionToken, address priceOracleAddress, address allowedMatcher) public {\n      _stakingContractAddress = stakingContractAddress;\n      _orionToken = IERC20(orionToken);\n      _orionToken.approve(_stakingContractAddress, 2**256-1);\n      _oracleAddress = priceOracleAddress;\n      _allowedMatcher = allowedMatcher;\n    }\n\n    function updateMarginalSettings(address[] memory _collateralAssets,\n                                    uint8 _stakeRisk,\n                                    uint8 _liquidationPremium,\n                                    uint64 _priceOverdue,\n                                    uint64 _positionOverdue) public onlyOwner {\n      collateralAssets = _collateralAssets;\n      stakeRisk = _stakeRisk;\n      liquidationPremium = _liquidationPremium;\n      priceOverdue = _priceOverdue;\n      positionOverdue = _positionOverdue;\n    }\n\n    function updateAssetRisks(address[] memory assets, uint8[] memory risks) public onlyOwner {\n        for(uint16 i; i< assets.length; i++)\n         assetRisks[assets[i]] = risks[i];\n    }\n\n    /**\n     * @dev Deposit ERC20 tokens to the exchange contract\n     * @dev User needs to approve token contract first\n     * @param amount asset amount to deposit in its base unit\n     */\n    function depositAsset(address assetAddress, uint112 amount) external {\n        //require(asset.transferFrom(msg.sender, address(this), uint256(amount)), \"E6\");\n        IERC20(assetAddress).safeTransferFrom(msg.sender, address(this), uint256(amount));\n        generalDeposit(assetAddress,amount);\n    }\n\n    /**\n     * @notice Deposit ETH to the exchange contract\n     * @dev deposit event will be emitted with the amount in decimal format (10^8)\n     * @dev balance will be stored in decimal format too\n     */\n    function deposit() external payable {\n        generalDeposit(address(0), uint112(msg.value));\n    }\n\n    function generalDeposit(address assetAddress, uint112 amount) internal {\n        address user = msg.sender;\n        bool wasLiability = assetBalances[user][assetAddress]<0;\n        int112 safeAmountDecimal = LibUnitConverter.baseUnitToDecimal(\n            assetAddress,\n            amount\n        );\n        assetBalances[user][assetAddress] += safeAmountDecimal;\n        if(amount>0)\n          emit NewAssetTransaction(user, assetAddress, true, uint112(safeAmountDecimal), uint64(now));\n        if(wasLiability)\n          MarginalFunctionality.updateLiability(user, assetAddress, liabilities, uint112(safeAmountDecimal), assetBalances[user][assetAddress]);\n\n    }\n    /**\n     * @dev Withdrawal of remaining funds from the contract back to the address\n     * @param assetAddress address of the asset to withdraw\n     * @param amount asset amount to withdraw in its base unit\n     */\n    function withdraw(address assetAddress, uint112 amount)\n        external\n        nonReentrant\n    {\n        int112 safeAmountDecimal = LibUnitConverter.baseUnitToDecimal(\n            assetAddress,\n            amount\n        );\n\n        address user = msg.sender;\n\n        require(assetBalances[user][assetAddress]>=safeAmountDecimal && checkPosition(user), \"E1\"); //TODO\n        assetBalances[user][assetAddress] -= safeAmountDecimal;\n        \n        uint256 _amount = uint256(amount);\n        if(assetAddress == address(0)) {\n          (bool success, ) = user.call.value(_amount)(\"\");\n          require(success, \"E6\");\n        } else {\n          IERC20(assetAddress).safeTransfer(user, _amount);\n        }\n\n\n        emit NewAssetTransaction(user, assetAddress, false, uint112(safeAmountDecimal), uint64(now));\n    }\n\n\n    function moveToStake(address user, uint64 amount) public {\n      require(msg.sender == _stakingContractAddress, \"Unauthorized moveToStake\");\n      require(assetBalances[user][address(_orionToken)]>amount);\n      assetBalances[user][address(_orionToken)] -= amount;\n    }\n\n    function moveFromStake(address user, uint64 amount) public {\n      require(msg.sender == _stakingContractAddress, \"Unauthorized moveFromStake\");\n      assetBalances[user][address(_orionToken)] += amount;\n    }\n\n    /**\n     * @dev Get asset balance for a specific address\n     * @param assetAddress address of the asset to query\n     * @param user user address to query\n     */\n    function getBalance(address assetAddress, address user)\n        public\n        view\n        returns (int192 assetBalance)\n    {\n        return assetBalances[user][assetAddress];\n    }\n\n\n    /**\n     * @dev Batch query of asset balances for a user\n     * @param assetsAddresses array of addresses of teh assets to query\n     * @param user user address to query\n     */\n    function getBalances(address[] memory assetsAddresses, address user)\n        public\n        view\n        returns (int192[] memory)\n    {\n        int192[] memory balances = new int192[](assetsAddresses.length);\n        for (uint16 i; i < assetsAddresses.length; i++) {\n            balances[i] = assetBalances[user][assetsAddresses[i]];\n        }\n        return balances;\n    }\n\n    function getLiabilities(address user)\n        public\n        view\n        returns (MarginalFunctionality.Liability[] memory liabilitiesArray)\n    {\n        return liabilities[user];\n    }\n    \n\n    function getCollateralAssets() public view returns (address[] memory) {\n        return collateralAssets;\n    }\n\n    /**\n     * @dev get hash for an order\n     */\n    function getOrderHash(LibValidator.Order memory order) public pure returns (bytes32){\n      return order.getTypeValueHash();\n    }\n\n    /**\n     * @dev get trades for a specific order\n     */\n    function getOrderTrades(LibValidator.Order memory order)\n        public\n        view\n        returns (Trade[] memory)\n    {\n        bytes32 orderHash = order.getTypeValueHash();\n        return trades[orderHash];\n    }\n\n    /**\n     * @dev get trades for a specific order\n     */\n    function getFilledAmounts(bytes32 orderHash)\n        public\n        view\n        returns (int192 totalFilled, int192 totalFeesPaid)\n    {\n        Trade[] storage orderTrades = trades[orderHash];\n\n        for (uint16 i; i < orderTrades.length; i++) {\n            // Note while filledAmount and feePaid are int192\n            // they are guaranteed to be less that 2**156\n            // it is safe to add them without checks\n            totalFilled = totalFilled + int192(orderTrades[i].filledAmount);\n            totalFeesPaid = totalFeesPaid + int192(orderTrades[i].feePaid);\n        }\n    }\n\n\n    /**\n     * @notice Settle a trade with two orders, filled price and amount\n     * @dev 2 orders are submitted, it is necessary to match them:\n        check conditions in orders for compliance filledPrice, filledAmountbuyOrderHash\n        change balances on the contract respectively with buyer, seller, matcbuyOrderHashher\n     * @param buyOrder structure of buy side orderbuyOrderHash\n     * @param sellOrder structure of sell side order\n     * @param filledPrice price at which the order was settled\n     * @param filledAmount amount settled between orders\n     */\n    function fillOrders(\n        LibValidator.Order memory buyOrder,\n        LibValidator.Order memory sellOrder,\n        uint64 filledPrice,\n        uint112 filledAmount\n    ) public nonReentrant {\n        // --- VARIABLES --- //\n        // Amount of quote asset\n        uint256 _amountQuote = uint256(filledAmount)*filledPrice/(10**8);\n        require(_amountQuote<2**112-1, \"Wrong amount\");\n        uint112 amountQuote = uint112(_amountQuote);\n\n        // Order Hashes\n        bytes32 buyOrderHash = buyOrder.getTypeValueHash();\n        bytes32 sellOrderHash = sellOrder.getTypeValueHash();\n\n        // --- VALIDATIONS --- //\n\n        // Validate signatures using eth typed sign V1\n        require(\n            LibValidator.checkOrdersInfo(\n                buyOrder,\n                sellOrder,\n                msg.sender,\n                filledAmount,\n                filledPrice,\n                now,\n                _allowedMatcher\n            ),\n            \"E3\"\n        );\n\n\n        // --- UPDATES --- //\n\n        // Update User's balances\n        updateOrderBalance(buyOrder, filledAmount, amountQuote, true);\n        updateOrderBalance(sellOrder, filledAmount, amountQuote, false);\n        require(checkPosition(buyOrder.senderAddress), \"Incorrect margin position for buyer\");\n        require(checkPosition(sellOrder.senderAddress), \"Incorrect margin position for seller\");\n\n        // Update trades\n        updateTrade(buyOrderHash, buyOrder, filledAmount, filledPrice);\n        updateTrade(sellOrderHash, sellOrder, filledAmount, filledPrice);\n\n        emit NewTrade(\n            buyOrder.senderAddress,\n            sellOrder.senderAddress,\n            buyOrder.baseAsset,\n            buyOrder.quoteAsset,\n            filledPrice,\n            filledAmount,\n            amountQuote\n        );\n    }\n\n    function validateOrder(LibValidator.Order memory order)\n        public\n        pure\n        returns (bool isValid)\n    {\n        isValid = LibValidator.validateV3(order);\n    }\n\n    /**\n     *  @notice update user balances and send matcher fee\n     *  @param isBuyer boolean, indicating true if the update is for buyer, false for seller\n     */\n    function updateOrderBalance(\n        LibValidator.Order memory order,\n        uint112 filledAmount,\n        uint112 amountQuote,\n        bool isBuyer\n    ) internal {\n        address user = order.senderAddress;\n\n        // matcherFee: u64, filledAmount u128 => matcherFee*filledAmount fit u256\n        // result matcherFee fit u64\n        order.matcherFee = uint64(uint256(order.matcherFee)*filledAmount/order.amount); //rewrite in memory only\n        if(!isBuyer)\n          (filledAmount, amountQuote) = (amountQuote, filledAmount);\n\n        bool feeAssetInLiabilities  = assetBalances[user][order.matcherFeeAsset]<0;\n        (address firstAsset, address secondAsset) = isBuyer?\n                                                     (order.quoteAsset, order.baseAsset):\n                                                     (order.baseAsset, order.quoteAsset);\n        int192 firstBalance = assetBalances[user][firstAsset];\n        int192 secondBalance = assetBalances[user][secondAsset];\n        int192 temp; // this variable will be used for temporary variable storage (optimization purpose)\n        bool firstInLiabilities = firstBalance<0;\n        bool secondInLiabilities  = secondBalance<0;\n\n        temp = assetBalances[user][firstAsset] - amountQuote;\n        assetBalances[user][firstAsset] = temp;\n        assetBalances[user][secondAsset] += filledAmount;\n        if(!firstInLiabilities && (temp<0)){\n          setLiability(user, firstAsset, temp);\n        }\n        if(secondInLiabilities && (assetBalances[user][secondAsset]>=0)) {\n          MarginalFunctionality.removeLiability(user, secondAsset, liabilities);\n        }\n\n        // User pay for fees\n        temp = assetBalances[user][order.matcherFeeAsset] - order.matcherFee;\n        assetBalances[user][order.matcherFeeAsset] = temp;\n        if(!feeAssetInLiabilities && (temp<0)) {\n            setLiability(user, order.matcherFeeAsset, temp);\n        }\n        assetBalances[order.matcherAddress][order.matcherFeeAsset] += order.matcherFee;\n        //generalTransfer(order.matcherFeeAsset, order.matcherAddress, order.matcherFee, true);\n        //IERC20(order.matcherFeeAsset).safeTransfer(order.matcherAddress, uint256(order.matcherFee)); //TODO not transfer, but add to balance\n    }\n\n    /**\n     *  @notice Store trade and update order\n     */\n    function updateTrade(\n        bytes32 orderHash,\n        LibValidator.Order memory order,\n        uint112 filledAmount,\n        uint64 filledPrice\n    ) internal {\n        // matcherFee: u64, filledAmount u128 => matcherFee*filledAmount fit u256\n        // result matcherFee fit u64\n        int192 matcherFee = int192(uint256(order.matcherFee)*filledAmount/order.amount);\n\n        (int192 totalFilled, int192 totalFeesPaid) = getFilledAmounts(orderHash);\n\n        uint256 afterFilled = uint256(totalFilled)+uint256(filledAmount);\n        uint256 afterFee = uint256(totalFeesPaid)+uint256(matcherFee);\n\n        require(afterFilled <= order.amount, \"E3\");\n        require(afterFee <= order.matcherFee, \"E3\");\n\n        // Store Trade\n        trades[orderHash].push(\n            Trade(filledPrice, uint192(filledAmount), uint192(matcherFee), uint64(now))\n        );\n    }\n\n    /**\n     * @notice users can cancel an order\n     * @dev write an orderHash in the contract so that such an order cannot be filled (executed)\n     */\n    /* Unused for now\n    function cancelOrder(LibValidator.Order memory order) public {\n        require(order.validateV3(), \"E2\");\n        require(msg.sender == order.senderAddress, \"Not owner\");\n\n        bytes32 orderHash = order.getTypeValueHash();\n\n        require(!isOrderCancelled(orderHash), \"E4\");\n\n        (\n            int192 totalFilled, //uint totalFeesPaid\n\n        ) = getFilledAmounts(orderHash);\n\n        if (totalFilled > 0)\n            orderStatus[orderHash] = Status.PARTIALLY_CANCELLED;\n        else orderStatus[orderHash] = Status.CANCELLED;\n\n        emit OrderUpdate(orderHash, msg.sender, orderStatus[orderHash]);\n\n        assert(\n            orderStatus[orderHash] == Status.PARTIALLY_CANCELLED ||\n                orderStatus[orderHash] == Status.CANCELLED\n        );\n    }\n    */\n\n    function checkPosition(address user) public view returns (bool) {\n        if(liabilities[user].length == 0)\n          return true;\n        return calcPosition(user).state == MarginalFunctionality.PositionState.POSITIVE;\n    }\n\n    function getConstants(address user)\n             internal\n             view\n             returns (MarginalFunctionality.UsedConstants memory) {\n       return MarginalFunctionality.UsedConstants(user,\n                                                  _oracleAddress,\n                                                  _stakingContractAddress,\n                                                  address(_orionToken),\n                                                  positionOverdue,\n                                                  priceOverdue,\n                                                  stakeRisk,\n                                                  liquidationPremium);\n    }\n\n    function calcPosition(address user) public view returns (MarginalFunctionality.Position memory) {\n        MarginalFunctionality.UsedConstants memory constants =\n          getConstants(user);\n        return MarginalFunctionality.calcPosition(collateralAssets,\n                                           liabilities,\n                                           assetBalances,\n                                           assetRisks,\n                                           constants);\n\n    }\n\n    function partiallyLiquidate(address broker, address redeemedAsset, uint112 amount) public {\n        MarginalFunctionality.UsedConstants memory constants =\n          getConstants(broker);\n        MarginalFunctionality.partiallyLiquidate(collateralAssets,\n                                           liabilities,\n                                           assetBalances,\n                                           assetRisks,\n                                           constants,\n                                           redeemedAsset,\n                                           amount);\n    }\n\n    function setLiability(address user, address asset, int192 balance) internal {\n        liabilities[user].push(\n          MarginalFunctionality.Liability({\n                                             asset: asset,\n                                             timestamp: uint64(now),\n                                             outstandingAmount: uint192(-balance)})\n        );\n    }\n\n    /**\n     *  @dev  revert on fallback function\n     */\n    fallback() external {\n        revert(\"E6\");\n    }\n\n    /* Error Codes\n\n        E1: Insufficient Balance,\n        E2: Invalid Signature,\n        E3: Invalid Order Info,\n        E4: Order cancelled or expired,\n        E5: Contract not active,\n        E6: Transfer error\n        E7: Incorrect state prior to liquidation\n        E8: Liquidator doesn't satisfy requirements\n        E9: Data for liquidation handling is outdated\n        E10: Incorrect state after liquidation\n        E11: Amount overflow\n    */\n}\n",
  "sourcePath": "/root/orion-exchange/contracts/Exchange.sol",
  "compiler": {
    "name": "solc",
    "version": "0.6.2+commit.bacdbe57.Emscripten.clang"
  },
  "schemaVersion": "3.3.0",
  "updatedAt": "2020-11-22T18:15:08.360Z",
  "networkType": "ethereum",
  "devdoc": {
    "author": "@wafflemakr",
    "details": "Exchange contract for the Orion Protocol",
    "methods": {
      "checkPosition(address)": {
        "details": "write an orderHash in the contract so that such an order cannot be filled (executed)"
      },
      "deposit()": {
        "details": "deposit event will be emitted with the amount in decimal format (10^8)balance will be stored in decimal format too"
      },
      "depositAsset(address,uint112)": {
        "details": "Deposit ERC20 tokens to the exchange contractUser needs to approve token contract first",
        "params": {
          "amount": "asset amount to deposit in its base unit"
        }
      },
      "fillOrders((address,address,address,address,address,uint64,uint64,uint64,uint64,uint64,uint8,bytes),(address,address,address,address,address,uint64,uint64,uint64,uint64,uint64,uint8,bytes),uint64,uint112)": {
        "details": "2 orders are submitted, it is necessary to match them: check conditions in orders for compliance filledPrice, filledAmountbuyOrderHash change balances on the contract respectively with buyer, seller, matcbuyOrderHashher",
        "params": {
          "buyOrder": "structure of buy side orderbuyOrderHash",
          "filledAmount": "amount settled between orders",
          "filledPrice": "price at which the order was settled",
          "sellOrder": "structure of sell side order"
        }
      },
      "getBalance(address,address)": {
        "details": "Get asset balance for a specific address",
        "params": {
          "assetAddress": "address of the asset to query",
          "user": "user address to query"
        }
      },
      "getBalances(address[],address)": {
        "details": "Batch query of asset balances for a user",
        "params": {
          "assetsAddresses": "array of addresses of teh assets to query",
          "user": "user address to query"
        }
      },
      "getFilledAmounts(bytes32)": {
        "details": "get trades for a specific order"
      },
      "getOrderHash((address,address,address,address,address,uint64,uint64,uint64,uint64,uint64,uint8,bytes))": {
        "details": "get hash for an order"
      },
      "getOrderTrades((address,address,address,address,address,uint64,uint64,uint64,uint64,uint64,uint8,bytes))": {
        "details": "get trades for a specific order"
      },
      "owner()": {
        "details": "Returns the address of the current owner."
      },
      "renounceOwnership()": {
        "details": "Leaves the contract without owner. It will not be possible to call `onlyOwner` functions anymore. Can only be called by the current owner.     * NOTE: Renouncing ownership will leave the contract without an owner, thereby removing any functionality that is only available to the owner."
      },
      "transferOwnership(address)": {
        "details": "Transfers ownership of the contract to a new account (`newOwner`). Can only be called by the current owner."
      },
      "withdraw(address,uint112)": {
        "details": "Withdrawal of remaining funds from the contract back to the address",
        "params": {
          "amount": "asset amount to withdraw in its base unit",
          "assetAddress": "address of the asset to withdraw"
        }
      }
    },
    "title": "Exchange"
  },
  "userdoc": {
    "methods": {
      "checkPosition(address)": {
        "notice": "users can cancel an order"
      },
      "deposit()": {
        "notice": "Deposit ETH to the exchange contract"
      },
      "fillOrders((address,address,address,address,address,uint64,uint64,uint64,uint64,uint64,uint8,bytes),(address,address,address,address,address,uint64,uint64,uint64,uint64,uint64,uint8,bytes),uint64,uint112)": {
        "notice": "Settle a trade with two orders, filled price and amount"
      }
    }
  }
}