{
  "contractName": "Staking",
  "abi": [
    {
      "inputs": [
        {
          "internalType": "address",
          "name": "orionTokenAddress",
          "type": "address"
        }
      ],
      "stateMutability": "nonpayable",
      "type": "constructor"
    },
    {
      "anonymous": false,
      "inputs": [
        {
          "indexed": true,
          "internalType": "address",
          "name": "previousOwner",
          "type": "address"
        },
        {
          "indexed": true,
          "internalType": "address",
          "name": "newOwner",
          "type": "address"
        }
      ],
      "name": "OwnershipTransferred",
      "type": "event"
    },
    {
      "inputs": [],
      "name": "owner",
      "outputs": [
        {
          "internalType": "address",
          "name": "",
          "type": "address"
        }
      ],
      "stateMutability": "view",
      "type": "function",
      "constant": true
    },
    {
      "inputs": [],
      "name": "renounceOwnership",
      "outputs": [],
      "stateMutability": "nonpayable",
      "type": "function"
    },
    {
      "inputs": [
        {
          "internalType": "address",
          "name": "newOwner",
          "type": "address"
        }
      ],
      "name": "transferOwnership",
      "outputs": [],
      "stateMutability": "nonpayable",
      "type": "function"
    },
    {
      "inputs": [
        {
          "internalType": "address",
          "name": "exchange",
          "type": "address"
        }
      ],
      "name": "setExchangeAddress",
      "outputs": [],
      "stateMutability": "nonpayable",
      "type": "function"
    },
    {
      "inputs": [
        {
          "internalType": "address",
          "name": "user",
          "type": "address"
        },
        {
          "internalType": "address",
          "name": "receiver",
          "type": "address"
        },
        {
          "internalType": "uint64",
          "name": "amount",
          "type": "uint64"
        }
      ],
      "name": "seizeFromStake",
      "outputs": [],
      "stateMutability": "nonpayable",
      "type": "function"
    },
    {
      "inputs": [
        {
          "internalType": "uint64",
          "name": "amount",
          "type": "uint64"
        }
      ],
      "name": "lockStake",
      "outputs": [],
      "stateMutability": "nonpayable",
      "type": "function"
    },
    {
      "inputs": [],
      "name": "requestReleaseStake",
      "outputs": [],
      "stateMutability": "nonpayable",
      "type": "function"
    },
    {
      "inputs": [
        {
          "internalType": "address",
          "name": "user",
          "type": "address"
        }
      ],
      "name": "postponeStakeRelease",
      "outputs": [],
      "stateMutability": "nonpayable",
      "type": "function"
    },
    {
      "inputs": [
        {
          "internalType": "address",
          "name": "user",
          "type": "address"
        }
      ],
      "name": "allowStakeRelease",
      "outputs": [],
      "stateMutability": "nonpayable",
      "type": "function"
    },
    {
      "inputs": [
        {
          "internalType": "address",
          "name": "user",
          "type": "address"
        },
        {
          "internalType": "address",
          "name": "receiver",
          "type": "address"
        }
      ],
      "name": "seize",
      "outputs": [],
      "stateMutability": "nonpayable",
      "type": "function"
    },
    {
      "inputs": [
        {
          "internalType": "address",
          "name": "user",
          "type": "address"
        }
      ],
      "name": "getStake",
      "outputs": [
        {
          "components": [
            {
              "internalType": "uint64",
              "name": "amount",
              "type": "uint64"
            },
            {
              "internalType": "enum Staking.StakePhase",
              "name": "phase",
              "type": "uint8"
            },
            {
              "internalType": "uint64",
              "name": "lastActionTimestamp",
              "type": "uint64"
            }
          ],
          "internalType": "struct Staking.Stake",
          "name": "",
          "type": "tuple"
        }
      ],
      "stateMutability": "view",
      "type": "function",
      "constant": true
    },
    {
      "inputs": [
        {
          "internalType": "address",
          "name": "user",
          "type": "address"
        }
      ],
      "name": "getStakeBalance",
      "outputs": [
        {
          "internalType": "uint256",
          "name": "",
          "type": "uint256"
        }
      ],
      "stateMutability": "view",
      "type": "function",
      "constant": true
    },
    {
      "inputs": [
        {
          "internalType": "address",
          "name": "user",
          "type": "address"
        }
      ],
      "name": "getStakePhase",
      "outputs": [
        {
          "internalType": "enum Staking.StakePhase",
          "name": "",
          "type": "uint8"
        }
      ],
      "stateMutability": "view",
      "type": "function",
      "constant": true
    },
    {
      "inputs": [
        {
          "internalType": "address",
          "name": "user",
          "type": "address"
        }
      ],
      "name": "getLockedStakeBalance",
      "outputs": [
        {
          "internalType": "uint256",
          "name": "",
          "type": "uint256"
        }
      ],
      "stateMutability": "view",
      "type": "function",
      "constant": true
    }
  ],
  "bytecode": "0x60806040523480156200001157600080fd5b50604051620022b2380380620022b283398181016040526200003791908101906200014e565b6000620000496200012f60201b60201c565b9050806000806101000a81548173ffffffffffffffffffffffffffffffffffffffff021916908373ffffffffffffffffffffffffffffffffffffffff1602179055508073ffffffffffffffffffffffffffffffffffffffff16600073ffffffffffffffffffffffffffffffffffffffff167f8be0079c531659141344cd1fd0a4f28419497f9722a3daafe3b4186f6b6457e060405160405180910390a35080600160006101000a81548173ffffffffffffffffffffffffffffffffffffffff021916908373ffffffffffffffffffffffffffffffffffffffff16021790555050620001c8565b600033905090565b6000815190506200014881620001ae565b92915050565b6000602082840312156200016157600080fd5b6000620001718482850162000137565b91505092915050565b600062000187826200018e565b9050919050565b600073ffffffffffffffffffffffffffffffffffffffff82169050919050565b620001b9816200017a565b8114620001c557600080fd5b50565b6120da80620001d86000396000f3fe608060405234801561001057600080fd5b50600436106100ea5760003560e01c8063904aa2161161008c578063ef86977311610066578063ef86977314610221578063f2fde38b14610251578063f4b91c7a1461026d578063fcc0c68014610289576100ea565b8063904aa216146101cd578063c72a8a14146101e9578063d082ea8c14610205576100ea565b806355664d37116100c857806355664d3714610145578063715018a6146101755780637a7664601461017f5780638da5cb5b146101af576100ea565b806325e4a36e146100ef5780634e91d2c61461011f578063548dd4371461013b575b600080fd5b61010960048036036101049190810190611884565b6102a5565b6040516101169190611dcd565b60405180910390f35b6101396004803603610134919081019061198a565b6102bb565b005b610143610392565b005b61015f600480360361015a9190810190611884565b6105b2565b60405161016c9190611ee3565b60405180910390f35b61017d610630565b005b61019960048036036101949190810190611884565b610785565b6040516101a69190611ec8565b60405180910390f35b6101b761095e565b6040516101c49190611cae565b60405180910390f35b6101e760048036036101e291908101906118e9565b610987565b005b61020360048036036101fe9190810190611884565b610cb9565b005b61021f600480360361021a9190810190611884565b610dbc565b005b61023b60048036036102369190810190611884565b610e96565b6040516102489190611ee3565b60405180910390f35b61026b60048036036102669190810190611884565b610eb6565b005b61028760048036036102829190810190611884565b61107a565b005b6102a3600480360361029e91908101906118ad565b61117d565b005b60006102b082610785565b602001519050919050565b600060058111156102c857fe5b6102d86102d3611217565b6102a5565b60058111156102e357fe5b146102ea57fe5b6102f38161121f565b600060036000610301611217565b73ffffffffffffffffffffffffffffffffffffffff1673ffffffffffffffffffffffffffffffffffffffff168152602001908152602001600020905060018160000160086101000a81548160ff0219169083600581111561035e57fe5b0217905550428160000160096101000a81548167ffffffffffffffff021916908367ffffffffffffffff1602179055505050565b60006103a461039f611217565b6102a5565b90506103b66103b1611217565b61144a565b6103f5576040517f08c379a00000000000000000000000000000000000000000000000000000000081526004016103ec90611de8565b60405180910390fd5b6001600581111561040257fe5b81600581111561040e57fe5b148061043057506004600581111561042257fe5b81600581111561042e57fe5b145b156104b35761043d61150d565b60006003600061044b611217565b73ffffffffffffffffffffffffffffffffffffffff1673ffffffffffffffffffffffffffffffffffffffff168152602001908152602001600020905060008160000160086101000a81548160ff021916908360058111156104a857fe5b0217905550506105af565b600260058111156104c057fe5b8160058111156104cc57fe5b1415610573576000600360006104e0611217565b73ffffffffffffffffffffffffffffffffffffffff1673ffffffffffffffffffffffffffffffffffffffff168152602001908152602001600020905060038160000160086101000a81548160ff0219169083600581111561053d57fe5b0217905550428160000160096101000a81548167ffffffffffffffff021916908367ffffffffffffffff160217905550506105ae565b6040517f08c379a00000000000000000000000000000000000000000000000000000000081526004016105a590611ea8565b60405180910390fd5b5b50565b60006105bc611766565b6105c583610785565b9050600260058111156105d457fe5b816020015160058111156105e457fe5b148061060957506005808111156105f757fe5b8160200151600581111561060757fe5b145b1561062557806000015167ffffffffffffffff1691505061062b565b60009150505b919050565b610638611217565b73ffffffffffffffffffffffffffffffffffffffff166000809054906101000a900473ffffffffffffffffffffffffffffffffffffffff1673ffffffffffffffffffffffffffffffffffffffff16146106c6576040517f08c379a00000000000000000000000000000000000000000000000000000000081526004016106bd90611e88565b60405180910390fd5b600073ffffffffffffffffffffffffffffffffffffffff166000809054906101000a900473ffffffffffffffffffffffffffffffffffffffff1673ffffffffffffffffffffffffffffffffffffffff167f8be0079c531659141344cd1fd0a4f28419497f9722a3daafe3b4186f6b6457e060405160405180910390a360008060006101000a81548173ffffffffffffffffffffffffffffffffffffffff021916908373ffffffffffffffffffffffffffffffffffffffff160217905550565b61078d611766565b610795611766565b600360008473ffffffffffffffffffffffffffffffffffffffff1673ffffffffffffffffffffffffffffffffffffffff1681526020019081526020016000206040518060600160405290816000820160009054906101000a900467ffffffffffffffff1667ffffffffffffffff1667ffffffffffffffff1681526020016000820160089054906101000a900460ff16600581111561082f57fe5b600581111561083a57fe5b81526020016000820160099054906101000a900467ffffffffffffffff1667ffffffffffffffff1667ffffffffffffffff168152505090506001600581111561087f57fe5b8160200151600581111561088f57fe5b1480156108b857506201518067ffffffffffffffff16816040015167ffffffffffffffff164203115b156108e5576002816020019060058111156108cf57fe5b908160058111156108dc57fe5b81525050610955565b600360058111156108f257fe5b8160200151600581111561090257fe5b14801561092b57506201518067ffffffffffffffff16816040015167ffffffffffffffff164203115b156109545760048160200190600581111561094257fe5b9081600581111561094f57fe5b815250505b5b80915050919050565b60008060009054906101000a900473ffffffffffffffffffffffffffffffffffffffff16905090565b600260009054906101000a900473ffffffffffffffffffffffffffffffffffffffff1673ffffffffffffffffffffffffffffffffffffffff166109c8611217565b73ffffffffffffffffffffffffffffffffffffffff1614610a1e576040517f08c379a0000000000000000000000000000000000000000000000000000000008152600401610a1590611e48565b60405180910390fd5b6000600360008573ffffffffffffffffffffffffffffffffffffffff1673ffffffffffffffffffffffffffffffffffffffff16815260200190815260200160002090508167ffffffffffffffff168160000160009054906101000a900467ffffffffffffffff1667ffffffffffffffff161015610ad0576040517f08c379a0000000000000000000000000000000000000000000000000000000008152600401610ac790611e68565b60405180910390fd5b818160000160008282829054906101000a900467ffffffffffffffff160392506101000a81548167ffffffffffffffff021916908367ffffffffffffffff160217905550600160009054906101000a900473ffffffffffffffffffffffffffffffffffffffff1673ffffffffffffffffffffffffffffffffffffffff1663a9059cbb600260009054906101000a900473ffffffffffffffffffffffffffffffffffffffff16846040518363ffffffff1660e01b8152600401610b93929190611d7b565b602060405180830381600087803b158015610bad57600080fd5b505af1158015610bc1573d6000803e3d6000fd5b505050506040513d601f19601f82011682018060405250610be59190810190611938565b610c24576040517f08c379a0000000000000000000000000000000000000000000000000000000008152600401610c1b90611e28565b60405180910390fd5b600260009054906101000a900473ffffffffffffffffffffffffffffffffffffffff1673ffffffffffffffffffffffffffffffffffffffff16634445c99784846040518363ffffffff1660e01b8152600401610c81929190611da4565b600060405180830381600087803b158015610c9b57600080fd5b505af1158015610caf573d6000803e3d6000fd5b5050505050505050565b610cc1611217565b73ffffffffffffffffffffffffffffffffffffffff166000809054906101000a900473ffffffffffffffffffffffffffffffffffffffff1673ffffffffffffffffffffffffffffffffffffffff1614610d4f576040517f08c379a0000000000000000000000000000000000000000000000000000000008152600401610d4690611e88565b60405180910390fd5b6000600360008373ffffffffffffffffffffffffffffffffffffffff1673ffffffffffffffffffffffffffffffffffffffff168152602001908152602001600020905060048160000160086101000a81548160ff02191690836005811115610db357fe5b02179055505050565b610dc4611217565b73ffffffffffffffffffffffffffffffffffffffff166000809054906101000a900473ffffffffffffffffffffffffffffffffffffffff1673ffffffffffffffffffffffffffffffffffffffff1614610e52576040517f08c379a0000000000000000000000000000000000000000000000000000000008152600401610e4990611e88565b60405180910390fd5b80600260006101000a81548173ffffffffffffffffffffffffffffffffffffffff021916908373ffffffffffffffffffffffffffffffffffffffff16021790555050565b6000610ea182610785565b6000015167ffffffffffffffff169050919050565b610ebe611217565b73ffffffffffffffffffffffffffffffffffffffff166000809054906101000a900473ffffffffffffffffffffffffffffffffffffffff1673ffffffffffffffffffffffffffffffffffffffff1614610f4c576040517f08c379a0000000000000000000000000000000000000000000000000000000008152600401610f4390611e88565b60405180910390fd5b600073ffffffffffffffffffffffffffffffffffffffff168173ffffffffffffffffffffffffffffffffffffffff161415610fbc576040517f08c379a0000000000000000000000000000000000000000000000000000000008152600401610fb390611e08565b60405180910390fd5b8073ffffffffffffffffffffffffffffffffffffffff166000809054906101000a900473ffffffffffffffffffffffffffffffffffffffff1673ffffffffffffffffffffffffffffffffffffffff167f8be0079c531659141344cd1fd0a4f28419497f9722a3daafe3b4186f6b6457e060405160405180910390a3806000806101000a81548173ffffffffffffffffffffffffffffffffffffffff021916908373ffffffffffffffffffffffffffffffffffffffff16021790555050565b611082611217565b73ffffffffffffffffffffffffffffffffffffffff166000809054906101000a900473ffffffffffffffffffffffffffffffffffffffff1673ffffffffffffffffffffffffffffffffffffffff1614611110576040517f08c379a000000000000000000000000000000000000000000000000000000000815260040161110790611e88565b60405180910390fd5b6000600360008373ffffffffffffffffffffffffffffffffffffffff1673ffffffffffffffffffffffffffffffffffffffff168152602001908152602001600020905060058160000160086101000a81548160ff0219169083600581111561117457fe5b02179055505050565b611185611217565b73ffffffffffffffffffffffffffffffffffffffff166000809054906101000a900473ffffffffffffffffffffffffffffffffffffffff1673ffffffffffffffffffffffffffffffffffffffff1614611213576040517f08c379a000000000000000000000000000000000000000000000000000000000815260040161120a90611e88565b60405180910390fd5b5050565b600033905090565b600160009054906101000a900473ffffffffffffffffffffffffffffffffffffffff1673ffffffffffffffffffffffffffffffffffffffff166323b872dd600260009054906101000a900473ffffffffffffffffffffffffffffffffffffffff16308467ffffffffffffffff166040518463ffffffff1660e01b81526004016112aa93929190611cf2565b602060405180830381600087803b1580156112c457600080fd5b505af11580156112d8573d6000803e3d6000fd5b505050506040513d601f19601f820116820180604052506112fc9190810190611938565b61133b576040517f08c379a000000000000000000000000000000000000000000000000000000000815260040161133290611e28565b60405180910390fd5b600260009054906101000a900473ffffffffffffffffffffffffffffffffffffffff1673ffffffffffffffffffffffffffffffffffffffff16630a87dcee611381611217565b836040518363ffffffff1660e01b815260040161139f929190611cc9565b600060405180830381600087803b1580156113b957600080fd5b505af11580156113cd573d6000803e3d6000fd5b505050506000600360006113df611217565b73ffffffffffffffffffffffffffffffffffffffff1673ffffffffffffffffffffffffffffffffffffffff1681526020019081526020016000209050818160000160006101000a81548167ffffffffffffffff021916908367ffffffffffffffff1602179055505050565b6000600260009054906101000a900473ffffffffffffffffffffffffffffffffffffffff1673ffffffffffffffffffffffffffffffffffffffff1663f7522af68360006040518363ffffffff1660e01b81526004016114aa929190611d29565b606060405180830381600087803b1580156114c457600080fd5b505af19250505080156114f557506040513d601f19601f820116820180604052506114f29190810190611961565b60015b6115025760019050611508565b50600090505b919050565b60006003600061151b611217565b73ffffffffffffffffffffffffffffffffffffffff1673ffffffffffffffffffffffffffffffffffffffff1681526020019081526020016000209050600160009054906101000a900473ffffffffffffffffffffffffffffffffffffffff1673ffffffffffffffffffffffffffffffffffffffff1663a9059cbb600260009054906101000a900473ffffffffffffffffffffffffffffffffffffffff168360000160009054906101000a900467ffffffffffffffff1667ffffffffffffffff166040518363ffffffff1660e01b81526004016115f8929190611d52565b602060405180830381600087803b15801561161257600080fd5b505af1158015611626573d6000803e3d6000fd5b505050506040513d601f19601f8201168201806040525061164a9190810190611938565b611689576040517f08c379a000000000000000000000000000000000000000000000000000000000815260040161168090611e28565b60405180910390fd5b600260009054906101000a900473ffffffffffffffffffffffffffffffffffffffff1673ffffffffffffffffffffffffffffffffffffffff16634445c9976116cf611217565b8360000160009054906101000a900467ffffffffffffffff166040518363ffffffff1660e01b8152600401611705929190611cc9565b600060405180830381600087803b15801561171f57600080fd5b505af1158015611733573d6000803e3d6000fd5b5050505060008160000160006101000a81548167ffffffffffffffff021916908367ffffffffffffffff16021790555050565b6040518060600160405280600067ffffffffffffffff1681526020016000600581111561178f57fe5b8152602001600067ffffffffffffffff1681525090565b6000813590506117b581612048565b92915050565b6000815190506117ca81612048565b92915050565b6000815190506117df8161205f565b92915050565b6000606082840312156117f757600080fd5b6118016060611efe565b90506000611811848285016117bb565b60008301525060206118258482850161186f565b602083015250604061183984828501611845565b60408301525092915050565b60008151905061185481612076565b92915050565b6000813590506118698161208d565b92915050565b60008151905061187e8161208d565b92915050565b60006020828403121561189657600080fd5b60006118a4848285016117a6565b91505092915050565b600080604083850312156118c057600080fd5b60006118ce858286016117a6565b92505060206118df858286016117a6565b9150509250929050565b6000806000606084860312156118fe57600080fd5b600061190c868287016117a6565b935050602061191d868287016117a6565b925050604061192e8682870161185a565b9150509250925092565b60006020828403121561194a57600080fd5b6000611958848285016117d0565b91505092915050565b60006060828403121561197357600080fd5b6000611981848285016117e5565b91505092915050565b60006020828403121561199c57600080fd5b60006119aa8482850161185a565b91505092915050565b6119bc81611fcf565b82525050565b6119cb81611f3c565b82525050565b6119da81611fe1565b82525050565b6119e981611fe1565b82525050565b6119f881611ff3565b82525050565b6000611a0b602b83611f2b565b91507f43616e206e6f742072656c65617365207374616b653a2075736572206861732060008301527f6c696162696c69746965730000000000000000000000000000000000000000006020830152604082019050919050565b6000611a71602683611f2b565b91507f4f776e61626c653a206e6577206f776e657220697320746865207a65726f206160008301527f64647265737300000000000000000000000000000000000000000000000000006020830152604082019050919050565b6000611ad7600283611f2b565b91507f45360000000000000000000000000000000000000000000000000000000000006000830152602082019050919050565b6000611b17601b83611f2b565b91507f556e617574686f72697a6564207365697a6546726f6d5374616b6500000000006000830152602082019050919050565b6000611b57600283611f2b565b91507f55580000000000000000000000000000000000000000000000000000000000006000830152602082019050919050565b6000611b97602083611f2b565b91507f4f776e61626c653a2063616c6c6572206973206e6f7420746865206f776e65726000830152602082019050919050565b6000611bd7602583611f2b565b91507f43616e206e6f742072656c656173652066756e64732066726f6d20746869732060008301527f70686173650000000000000000000000000000000000000000000000000000006020830152604082019050919050565b606082016000820151611c466000850182611c90565b506020820151611c5960208501826119d1565b506040820151611c6c6040850182611c90565b50505050565b611c7b81611fb1565b82525050565b611c8a81612029565b82525050565b611c9981611fbb565b82525050565b611ca881611fbb565b82525050565b6000602082019050611cc360008301846119c2565b92915050565b6000604082019050611cde60008301856119b3565b611ceb6020830184611c9f565b9392505050565b6000606082019050611d0760008301866119c2565b611d1460208301856119c2565b611d216040830184611c72565b949350505050565b6000604082019050611d3e60008301856119c2565b611d4b60208301846119ef565b9392505050565b6000604082019050611d6760008301856119c2565b611d746020830184611c72565b9392505050565b6000604082019050611d9060008301856119c2565b611d9d6020830184611c81565b9392505050565b6000604082019050611db960008301856119c2565b611dc66020830184611c9f565b9392505050565b6000602082019050611de260008301846119e0565b92915050565b60006020820190508181036000830152611e01816119fe565b9050919050565b60006020820190508181036000830152611e2181611a64565b9050919050565b60006020820190508181036000830152611e4181611aca565b9050919050565b60006020820190508181036000830152611e6181611b0a565b9050919050565b60006020820190508181036000830152611e8181611b4a565b9050919050565b60006020820190508181036000830152611ea181611b8a565b9050919050565b60006020820190508181036000830152611ec181611bca565b9050919050565b6000606082019050611edd6000830184611c30565b92915050565b6000602082019050611ef86000830184611c72565b92915050565b6000604051905081810181811067ffffffffffffffff82111715611f2157600080fd5b8060405250919050565b600082825260208201905092915050565b6000611f4782611f6d565b9050919050565b60008115159050919050565b6000819050611f688261203b565b919050565b600073ffffffffffffffffffffffffffffffffffffffff82169050919050565b600077ffffffffffffffffffffffffffffffffffffffffffffffff82169050919050565b6000819050919050565b600067ffffffffffffffff82169050919050565b6000611fda82612005565b9050919050565b6000611fec82611f5a565b9050919050565b6000611ffe82611fb1565b9050919050565b600061201082612017565b9050919050565b600061202282611f6d565b9050919050565b600061203482611fbb565b9050919050565b6006811061204557fe5b50565b61205181611f3c565b811461205c57600080fd5b50565b61206881611f4e565b811461207357600080fd5b50565b61207f81611f8d565b811461208a57600080fd5b50565b61209681611fbb565b81146120a157600080fd5b5056fea2646970667358221220efcf152ef010d4cf938471059afc226f435b74ac56abfcbbef487f208ff582db64736f6c63430006020033",
  "source": "pragma solidity ^0.6.0;\npragma experimental ABIEncoderV2;\nimport \"@openzeppelin/contracts/access/Ownable.sol\";\nimport \"@openzeppelin/contracts/token/ERC20/IERC20.sol\";\nimport \"./ExchangeInterface.sol\";\n\n/**\n * @title Staking\n * @dev Staking contract for the Orion Protocol\n * @author @EmelyanenkoK\n */\ncontract Staking is Ownable {\n\n    enum StakePhase{ NOTSTAKED, LOCKING, LOCKED, RELEASING, READYTORELEASE, FROZEN }\n\n    struct Stake {\n      uint64 amount; // 100m ORN in circulation fits uint64\n      StakePhase phase;\n      uint64 lastActionTimestamp;\n    }\n\n    uint64 constant lockingDuration = 3600*24;\n    uint64 constant releasingDuration = 3600*24;\n\n    //Asset for staking\n    IERC20 baseAsset;\n    ExchangeInterface _exchange;\n\n    // Get user balance by address and asset address\n    mapping(address => Stake) private stakingData;\n\n\n    constructor(address orionTokenAddress) public {\n        baseAsset = IERC20(orionTokenAddress);\n    }\n\n    function setExchangeAddress(address exchange) external onlyOwner {\n        _exchange = ExchangeInterface(exchange);\n    }\n\n\n    function moveFromBalance(uint64 amount) internal {\n        require(baseAsset.transferFrom(address(_exchange), address(this), uint256(amount)), \"E6\");\n        _exchange.moveToStake(_msgSender(),amount);\n        Stake storage stake = stakingData[_msgSender()];\n        stake.amount = amount;\n    }\n\n    function moveToBalance() internal {\n        Stake storage stake = stakingData[_msgSender()];\n        require(baseAsset.transfer(address(_exchange), uint256(stake.amount)), \"E6\");\n        _exchange.moveFromStake(_msgSender(), stake.amount);\n        stake.amount = 0;\n    }\n\n    function seizeFromStake(address user, address receiver, uint64 amount) external {\n        require(_msgSender() == address(_exchange), \"Unauthorized seizeFromStake\");\n        Stake storage stake = stakingData[user];\n        require(stake.amount >= amount, \"UX\"); //TODO\n        stake.amount -= amount;\n        require(baseAsset.transfer(address(_exchange), amount), \"E6\");\n        _exchange.moveFromStake(receiver, amount);\n    }\n\n\n    function lockStake(uint64 amount) external {\n        assert(getStakePhase(_msgSender()) == StakePhase.NOTSTAKED);\n        moveFromBalance(amount);\n        Stake storage stake = stakingData[_msgSender()];\n        stake.phase = StakePhase.LOCKING;\n        stake.lastActionTimestamp = uint64(now);\n    }\n\n    function checkLiabilityAbsence(address user) internal returns (bool) {\n      try _exchange.liabilities(user,0) {\n        return false;\n      } catch {\n        return true;\n      }\n    }\n\n    function requestReleaseStake() external {\n        StakePhase currentPhase = getStakePhase(_msgSender());\n        require(checkLiabilityAbsence(_msgSender()), \"Can not release stake: user has liabilities\");\n        if(currentPhase == StakePhase.LOCKING || currentPhase == StakePhase.READYTORELEASE) {\n          moveToBalance();\n          Stake storage stake = stakingData[_msgSender()];\n          stake.phase = StakePhase.NOTSTAKED;\n        } else if (currentPhase == StakePhase.LOCKED) {\n          Stake storage stake = stakingData[_msgSender()];\n          stake.phase = StakePhase.RELEASING;\n          stake.lastActionTimestamp = uint64(now);\n        } else {\n          revert(\"Can not release funds from this phase\");\n        }\n\n    }\n\n    function postponeStakeRelease(address user) external onlyOwner{\n        Stake storage stake = stakingData[user];\n        stake.phase = StakePhase.FROZEN;\n    }\n\n    function allowStakeRelease(address user) external onlyOwner {\n        Stake storage stake = stakingData[user];\n        stake.phase = StakePhase.READYTORELEASE;\n    }\n\n    function seize(address user, address receiver) external onlyOwner {\n    }\n\n    function getStake(address user) public view returns (Stake memory){\n        Stake memory stake = stakingData[user];\n        if(stake.phase == StakePhase.LOCKING && (now - stake.lastActionTimestamp) > lockingDuration) {\n          stake.phase = StakePhase.LOCKED;\n        } else if(stake.phase == StakePhase.RELEASING && (now - stake.lastActionTimestamp) > releasingDuration) {\n          stake.phase = StakePhase.READYTORELEASE;\n        }\n        return stake;\n    }\n\n    function getStakeBalance(address user) public view returns (uint256) {\n        return getStake(user).amount;\n    }\n\n    function getStakePhase(address user) public view returns (StakePhase) {\n        return getStake(user).phase;\n    }\n\n    function getLockedStakeBalance(address user) public view returns (uint256) {\n      Stake memory stake = getStake(user);\n      if(stake.phase == StakePhase.LOCKED || stake.phase == StakePhase.FROZEN)\n        return stake.amount;\n      return 0;\n    }\n}\n",
  "sourcePath": "/root/orion-exchange/contracts/Staking.sol",
  "compiler": {
    "name": "solc",
    "version": "0.6.2+commit.bacdbe57.Emscripten.clang"
  },
  "schemaVersion": "3.3.0",
  "updatedAt": "2020-11-22T18:15:08.316Z",
  "networkType": "ethereum",
  "devdoc": {
    "author": "@EmelyanenkoK",
    "details": "Staking contract for the Orion Protocol",
    "methods": {
      "owner()": {
        "details": "Returns the address of the current owner."
      },
      "renounceOwnership()": {
        "details": "Leaves the contract without owner. It will not be possible to call `onlyOwner` functions anymore. Can only be called by the current owner.     * NOTE: Renouncing ownership will leave the contract without an owner, thereby removing any functionality that is only available to the owner."
      },
      "transferOwnership(address)": {
        "details": "Transfers ownership of the contract to a new account (`newOwner`). Can only be called by the current owner."
      }
    },
    "title": "Staking"
  },
  "userdoc": {
    "methods": {}
  }
}