{
  "contractName": "Exchange",
  "abi": [
    {
      "anonymous": false,
      "inputs": [
        {
          "indexed": true,
          "internalType": "address",
          "name": "user",
          "type": "address"
        },
        {
          "indexed": true,
          "internalType": "address",
          "name": "assetAddress",
          "type": "address"
        },
        {
          "indexed": false,
          "internalType": "bool",
          "name": "isDeposit",
          "type": "bool"
        },
        {
          "indexed": false,
          "internalType": "uint112",
          "name": "amount",
          "type": "uint112"
        },
        {
          "indexed": false,
          "internalType": "uint64",
          "name": "timestamp",
          "type": "uint64"
        }
      ],
      "name": "NewAssetTransaction",
      "type": "event"
    },
    {
      "anonymous": false,
      "inputs": [
        {
          "indexed": true,
          "internalType": "address",
          "name": "buyer",
          "type": "address"
        },
        {
          "indexed": true,
          "internalType": "address",
          "name": "seller",
          "type": "address"
        },
        {
          "indexed": false,
          "internalType": "address",
          "name": "baseAsset",
          "type": "address"
        },
        {
          "indexed": false,
          "internalType": "address",
          "name": "quoteAsset",
          "type": "address"
        },
        {
          "indexed": false,
          "internalType": "uint64",
          "name": "filledPrice",
          "type": "uint64"
        },
        {
          "indexed": false,
          "internalType": "uint192",
          "name": "filledAmount",
          "type": "uint192"
        },
        {
          "indexed": false,
          "internalType": "uint192",
          "name": "amountQuote",
          "type": "uint192"
        }
      ],
      "name": "NewTrade",
      "type": "event"
    },
    {
      "anonymous": false,
      "inputs": [
        {
          "indexed": true,
          "internalType": "address",
          "name": "previousOwner",
          "type": "address"
        },
        {
          "indexed": true,
          "internalType": "address",
          "name": "newOwner",
          "type": "address"
        }
      ],
      "name": "OwnershipTransferred",
      "type": "event"
    },
    {
      "stateMutability": "nonpayable",
      "type": "fallback"
    },
    {
      "inputs": [
        {
          "internalType": "address",
          "name": "",
          "type": "address"
        }
      ],
      "name": "assetRisks",
      "outputs": [
        {
          "internalType": "uint8",
          "name": "",
          "type": "uint8"
        }
      ],
      "stateMutability": "view",
      "type": "function",
      "constant": true
    },
    {
      "inputs": [
        {
          "internalType": "bytes32",
          "name": "",
          "type": "bytes32"
        }
      ],
      "name": "filledAmounts",
      "outputs": [
        {
          "internalType": "uint192",
          "name": "",
          "type": "uint192"
        }
      ],
      "stateMutability": "view",
      "type": "function",
      "constant": true
    },
    {
      "inputs": [
        {
          "internalType": "address",
          "name": "",
          "type": "address"
        },
        {
          "internalType": "uint256",
          "name": "",
          "type": "uint256"
        }
      ],
      "name": "liabilities",
      "outputs": [
        {
          "internalType": "address",
          "name": "asset",
          "type": "address"
        },
        {
          "internalType": "uint64",
          "name": "timestamp",
          "type": "uint64"
        },
        {
          "internalType": "uint192",
          "name": "outstandingAmount",
          "type": "uint192"
        }
      ],
      "stateMutability": "view",
      "type": "function",
      "constant": true
    },
    {
      "inputs": [],
      "name": "liquidationPremium",
      "outputs": [
        {
          "internalType": "uint8",
          "name": "",
          "type": "uint8"
        }
      ],
      "stateMutability": "view",
      "type": "function",
      "constant": true
    },
    {
      "inputs": [],
      "name": "owner",
      "outputs": [
        {
          "internalType": "address",
          "name": "",
          "type": "address"
        }
      ],
      "stateMutability": "view",
      "type": "function",
      "constant": true
    },
    {
      "inputs": [],
      "name": "positionOverdue",
      "outputs": [
        {
          "internalType": "uint64",
          "name": "",
          "type": "uint64"
        }
      ],
      "stateMutability": "view",
      "type": "function",
      "constant": true
    },
    {
      "inputs": [],
      "name": "priceOverdue",
      "outputs": [
        {
          "internalType": "uint64",
          "name": "",
          "type": "uint64"
        }
      ],
      "stateMutability": "view",
      "type": "function",
      "constant": true
    },
    {
      "inputs": [],
      "name": "renounceOwnership",
      "outputs": [],
      "stateMutability": "nonpayable",
      "type": "function"
    },
    {
      "inputs": [],
      "name": "stakeRisk",
      "outputs": [
        {
          "internalType": "uint8",
          "name": "",
          "type": "uint8"
        }
      ],
      "stateMutability": "view",
      "type": "function",
      "constant": true
    },
    {
      "inputs": [
        {
          "internalType": "address",
          "name": "newOwner",
          "type": "address"
        }
      ],
      "name": "transferOwnership",
      "outputs": [],
      "stateMutability": "nonpayable",
      "type": "function"
    },
    {
      "inputs": [],
      "name": "initialize",
      "outputs": [],
      "stateMutability": "payable",
      "type": "function",
      "payable": true
    },
    {
      "inputs": [
        {
          "internalType": "address",
          "name": "orionVaultContractAddress",
          "type": "address"
        },
        {
          "internalType": "address",
          "name": "orionToken",
          "type": "address"
        },
        {
          "internalType": "address",
          "name": "priceOracleAddress",
          "type": "address"
        },
        {
          "internalType": "address",
          "name": "allowedMatcher",
          "type": "address"
        }
      ],
      "name": "setBasicParams",
      "outputs": [],
      "stateMutability": "nonpayable",
      "type": "function"
    },
    {
      "inputs": [
        {
          "internalType": "address[]",
          "name": "_collateralAssets",
          "type": "address[]"
        },
        {
          "internalType": "uint8",
          "name": "_stakeRisk",
          "type": "uint8"
        },
        {
          "internalType": "uint8",
          "name": "_liquidationPremium",
          "type": "uint8"
        },
        {
          "internalType": "uint64",
          "name": "_priceOverdue",
          "type": "uint64"
        },
        {
          "internalType": "uint64",
          "name": "_positionOverdue",
          "type": "uint64"
        }
      ],
      "name": "updateMarginalSettings",
      "outputs": [],
      "stateMutability": "nonpayable",
      "type": "function"
    },
    {
      "inputs": [
        {
          "internalType": "address[]",
          "name": "assets",
          "type": "address[]"
        },
        {
          "internalType": "uint8[]",
          "name": "risks",
          "type": "uint8[]"
        }
      ],
      "name": "updateAssetRisks",
      "outputs": [],
      "stateMutability": "nonpayable",
      "type": "function"
    },
    {
      "inputs": [
        {
          "internalType": "address",
          "name": "assetAddress",
          "type": "address"
        },
        {
          "internalType": "uint112",
          "name": "amount",
          "type": "uint112"
        }
      ],
      "name": "depositAsset",
      "outputs": [],
      "stateMutability": "nonpayable",
      "type": "function"
    },
    {
      "inputs": [],
      "name": "deposit",
      "outputs": [],
      "stateMutability": "payable",
      "type": "function",
      "payable": true
    },
    {
      "inputs": [
        {
          "internalType": "address",
          "name": "assetAddress",
          "type": "address"
        },
        {
          "internalType": "uint112",
          "name": "amount",
          "type": "uint112"
        }
      ],
      "name": "withdraw",
      "outputs": [],
      "stateMutability": "nonpayable",
      "type": "function"
    },
    {
      "inputs": [
        {
          "internalType": "address",
          "name": "assetAddress",
          "type": "address"
        },
        {
          "internalType": "address",
          "name": "user",
          "type": "address"
        }
      ],
      "name": "getBalance",
      "outputs": [
        {
          "internalType": "int192",
          "name": "assetBalance",
          "type": "int192"
        }
      ],
      "stateMutability": "view",
      "type": "function",
      "constant": true
    },
    {
      "inputs": [
        {
          "internalType": "address[]",
          "name": "assetsAddresses",
          "type": "address[]"
        },
        {
          "internalType": "address",
          "name": "user",
          "type": "address"
        }
      ],
      "name": "getBalances",
      "outputs": [
        {
          "internalType": "int192[]",
          "name": "",
          "type": "int192[]"
        }
      ],
      "stateMutability": "view",
      "type": "function",
      "constant": true
    },
    {
      "inputs": [
        {
          "internalType": "address",
          "name": "user",
          "type": "address"
        }
      ],
      "name": "getLiabilities",
      "outputs": [
        {
          "components": [
            {
              "internalType": "address",
              "name": "asset",
              "type": "address"
            },
            {
              "internalType": "uint64",
              "name": "timestamp",
              "type": "uint64"
            },
            {
              "internalType": "uint192",
              "name": "outstandingAmount",
              "type": "uint192"
            }
          ],
          "internalType": "struct MarginalFunctionality.Liability[]",
          "name": "liabilitiesArray",
          "type": "tuple[]"
        }
      ],
      "stateMutability": "view",
      "type": "function",
      "constant": true
    },
    {
      "inputs": [],
      "name": "getCollateralAssets",
      "outputs": [
        {
          "internalType": "address[]",
          "name": "",
          "type": "address[]"
        }
      ],
      "stateMutability": "view",
      "type": "function",
      "constant": true
    },
    {
      "inputs": [
        {
          "components": [
            {
              "internalType": "address",
              "name": "senderAddress",
              "type": "address"
            },
            {
              "internalType": "address",
              "name": "matcherAddress",
              "type": "address"
            },
            {
              "internalType": "address",
              "name": "baseAsset",
              "type": "address"
            },
            {
              "internalType": "address",
              "name": "quoteAsset",
              "type": "address"
            },
            {
              "internalType": "address",
              "name": "matcherFeeAsset",
              "type": "address"
            },
            {
              "internalType": "uint64",
              "name": "amount",
              "type": "uint64"
            },
            {
              "internalType": "uint64",
              "name": "price",
              "type": "uint64"
            },
            {
              "internalType": "uint64",
              "name": "matcherFee",
              "type": "uint64"
            },
            {
              "internalType": "uint64",
              "name": "nonce",
              "type": "uint64"
            },
            {
              "internalType": "uint64",
              "name": "expiration",
              "type": "uint64"
            },
            {
              "internalType": "uint8",
              "name": "buySide",
              "type": "uint8"
            },
            {
              "internalType": "bytes",
              "name": "signature",
              "type": "bytes"
            }
          ],
          "internalType": "struct LibValidator.Order",
          "name": "order",
          "type": "tuple"
        }
      ],
      "name": "getOrderHash",
      "outputs": [
        {
          "internalType": "bytes32",
          "name": "",
          "type": "bytes32"
        }
      ],
      "stateMutability": "pure",
      "type": "function",
      "constant": true
    },
    {
      "inputs": [
        {
          "internalType": "bytes32",
          "name": "orderHash",
          "type": "bytes32"
        },
        {
          "components": [
            {
              "internalType": "address",
              "name": "senderAddress",
              "type": "address"
            },
            {
              "internalType": "address",
              "name": "matcherAddress",
              "type": "address"
            },
            {
              "internalType": "address",
              "name": "baseAsset",
              "type": "address"
            },
            {
              "internalType": "address",
              "name": "quoteAsset",
              "type": "address"
            },
            {
              "internalType": "address",
              "name": "matcherFeeAsset",
              "type": "address"
            },
            {
              "internalType": "uint64",
              "name": "amount",
              "type": "uint64"
            },
            {
              "internalType": "uint64",
              "name": "price",
              "type": "uint64"
            },
            {
              "internalType": "uint64",
              "name": "matcherFee",
              "type": "uint64"
            },
            {
              "internalType": "uint64",
              "name": "nonce",
              "type": "uint64"
            },
            {
              "internalType": "uint64",
              "name": "expiration",
              "type": "uint64"
            },
            {
              "internalType": "uint8",
              "name": "buySide",
              "type": "uint8"
            },
            {
              "internalType": "bytes",
              "name": "signature",
              "type": "bytes"
            }
          ],
          "internalType": "struct LibValidator.Order",
          "name": "order",
          "type": "tuple"
        }
      ],
      "name": "getFilledAmounts",
      "outputs": [
        {
          "internalType": "int192",
          "name": "totalFilled",
          "type": "int192"
        },
        {
          "internalType": "int192",
          "name": "totalFeesPaid",
          "type": "int192"
        }
      ],
      "stateMutability": "view",
      "type": "function",
      "constant": true
    },
    {
      "inputs": [
        {
          "components": [
            {
              "internalType": "address",
              "name": "senderAddress",
              "type": "address"
            },
            {
              "internalType": "address",
              "name": "matcherAddress",
              "type": "address"
            },
            {
              "internalType": "address",
              "name": "baseAsset",
              "type": "address"
            },
            {
              "internalType": "address",
              "name": "quoteAsset",
              "type": "address"
            },
            {
              "internalType": "address",
              "name": "matcherFeeAsset",
              "type": "address"
            },
            {
              "internalType": "uint64",
              "name": "amount",
              "type": "uint64"
            },
            {
              "internalType": "uint64",
              "name": "price",
              "type": "uint64"
            },
            {
              "internalType": "uint64",
              "name": "matcherFee",
              "type": "uint64"
            },
            {
              "internalType": "uint64",
              "name": "nonce",
              "type": "uint64"
            },
            {
              "internalType": "uint64",
              "name": "expiration",
              "type": "uint64"
            },
            {
              "internalType": "uint8",
              "name": "buySide",
              "type": "uint8"
            },
            {
              "internalType": "bytes",
              "name": "signature",
              "type": "bytes"
            }
          ],
          "internalType": "struct LibValidator.Order",
          "name": "buyOrder",
          "type": "tuple"
        },
        {
          "components": [
            {
              "internalType": "address",
              "name": "senderAddress",
              "type": "address"
            },
            {
              "internalType": "address",
              "name": "matcherAddress",
              "type": "address"
            },
            {
              "internalType": "address",
              "name": "baseAsset",
              "type": "address"
            },
            {
              "internalType": "address",
              "name": "quoteAsset",
              "type": "address"
            },
            {
              "internalType": "address",
              "name": "matcherFeeAsset",
              "type": "address"
            },
            {
              "internalType": "uint64",
              "name": "amount",
              "type": "uint64"
            },
            {
              "internalType": "uint64",
              "name": "price",
              "type": "uint64"
            },
            {
              "internalType": "uint64",
              "name": "matcherFee",
              "type": "uint64"
            },
            {
              "internalType": "uint64",
              "name": "nonce",
              "type": "uint64"
            },
            {
              "internalType": "uint64",
              "name": "expiration",
              "type": "uint64"
            },
            {
              "internalType": "uint8",
              "name": "buySide",
              "type": "uint8"
            },
            {
              "internalType": "bytes",
              "name": "signature",
              "type": "bytes"
            }
          ],
          "internalType": "struct LibValidator.Order",
          "name": "sellOrder",
          "type": "tuple"
        },
        {
          "internalType": "uint64",
          "name": "filledPrice",
          "type": "uint64"
        },
        {
          "internalType": "uint112",
          "name": "filledAmount",
          "type": "uint112"
        }
      ],
      "name": "fillOrders",
      "outputs": [],
      "stateMutability": "nonpayable",
      "type": "function"
    },
    {
      "inputs": [
        {
          "components": [
            {
              "internalType": "address",
              "name": "senderAddress",
              "type": "address"
            },
            {
              "internalType": "address",
              "name": "matcherAddress",
              "type": "address"
            },
            {
              "internalType": "address",
              "name": "baseAsset",
              "type": "address"
            },
            {
              "internalType": "address",
              "name": "quoteAsset",
              "type": "address"
            },
            {
              "internalType": "address",
              "name": "matcherFeeAsset",
              "type": "address"
            },
            {
              "internalType": "uint64",
              "name": "amount",
              "type": "uint64"
            },
            {
              "internalType": "uint64",
              "name": "price",
              "type": "uint64"
            },
            {
              "internalType": "uint64",
              "name": "matcherFee",
              "type": "uint64"
            },
            {
              "internalType": "uint64",
              "name": "nonce",
              "type": "uint64"
            },
            {
              "internalType": "uint64",
              "name": "expiration",
              "type": "uint64"
            },
            {
              "internalType": "uint8",
              "name": "buySide",
              "type": "uint8"
            },
            {
              "internalType": "bytes",
              "name": "signature",
              "type": "bytes"
            }
          ],
          "internalType": "struct LibValidator.Order",
          "name": "order",
          "type": "tuple"
        }
      ],
      "name": "validateOrder",
      "outputs": [
        {
          "internalType": "bool",
          "name": "isValid",
          "type": "bool"
        }
      ],
      "stateMutability": "pure",
      "type": "function",
      "constant": true
    },
    {
      "inputs": [
        {
          "internalType": "address",
          "name": "user",
          "type": "address"
        }
      ],
      "name": "checkPosition",
      "outputs": [
        {
          "internalType": "bool",
          "name": "",
          "type": "bool"
        }
      ],
      "stateMutability": "view",
      "type": "function",
      "constant": true
    },
    {
      "inputs": [
        {
          "internalType": "address",
          "name": "user",
          "type": "address"
        }
      ],
      "name": "calcPosition",
      "outputs": [
        {
          "components": [
            {
              "internalType": "enum MarginalFunctionality.PositionState",
              "name": "state",
              "type": "uint8"
            },
            {
              "internalType": "int256",
              "name": "weightedPosition",
              "type": "int256"
            },
            {
              "internalType": "int256",
              "name": "totalPosition",
              "type": "int256"
            },
            {
              "internalType": "int256",
              "name": "totalLiabilities",
              "type": "int256"
            }
          ],
          "internalType": "struct MarginalFunctionality.Position",
          "name": "",
          "type": "tuple"
        }
      ],
      "stateMutability": "view",
      "type": "function",
      "constant": true
    },
    {
      "inputs": [
        {
          "internalType": "address",
          "name": "broker",
          "type": "address"
        },
        {
          "internalType": "address",
          "name": "redeemedAsset",
          "type": "address"
        },
        {
          "internalType": "uint112",
          "name": "amount",
          "type": "uint112"
        }
      ],
      "name": "partiallyLiquidate",
      "outputs": [],
      "stateMutability": "nonpayable",
      "type": "function"
    },
    {
      "inputs": [
        {
          "internalType": "address",
          "name": "user",
          "type": "address"
        }
      ],
      "name": "getStake",
      "outputs": [
        {
          "components": [
            {
              "internalType": "uint64",
              "name": "amount",
              "type": "uint64"
            },
            {
              "internalType": "enum Exchange.StakePhase",
              "name": "phase",
              "type": "uint8"
            },
            {
              "internalType": "uint64",
              "name": "lastActionTimestamp",
              "type": "uint64"
            }
          ],
          "internalType": "struct Exchange.Stake",
          "name": "",
          "type": "tuple"
        }
      ],
      "stateMutability": "view",
      "type": "function",
      "constant": true
    },
    {
      "inputs": [
        {
          "internalType": "address",
          "name": "user",
          "type": "address"
        }
      ],
      "name": "getStakeBalance",
      "outputs": [
        {
          "internalType": "uint256",
          "name": "",
          "type": "uint256"
        }
      ],
      "stateMutability": "view",
      "type": "function",
      "constant": true
    },
    {
      "inputs": [
        {
          "internalType": "address",
          "name": "user",
          "type": "address"
        }
      ],
      "name": "getStakePhase",
      "outputs": [
        {
          "internalType": "enum Exchange.StakePhase",
          "name": "",
          "type": "uint8"
        }
      ],
      "stateMutability": "view",
      "type": "function",
      "constant": true
    },
    {
      "inputs": [
        {
          "internalType": "address",
          "name": "user",
          "type": "address"
        }
      ],
      "name": "getLockedStakeBalance",
      "outputs": [
        {
          "internalType": "uint256",
          "name": "",
          "type": "uint256"
        }
      ],
      "stateMutability": "view",
      "type": "function",
      "constant": true
    },
    {
      "inputs": [
        {
          "internalType": "address",
          "name": "user",
          "type": "address"
        }
      ],
      "name": "postponeStakeRelease",
      "outputs": [],
      "stateMutability": "nonpayable",
      "type": "function"
    },
    {
      "inputs": [
        {
          "internalType": "address",
          "name": "user",
          "type": "address"
        }
      ],
      "name": "allowStakeRelease",
      "outputs": [],
      "stateMutability": "nonpayable",
      "type": "function"
    },
    {
      "inputs": [],
      "name": "requestReleaseStake",
      "outputs": [],
      "stateMutability": "nonpayable",
      "type": "function"
    },
    {
      "inputs": [
        {
          "internalType": "uint64",
          "name": "amount",
          "type": "uint64"
        }
      ],
      "name": "lockStake",
      "outputs": [],
      "stateMutability": "nonpayable",
      "type": "function"
    },
    {
      "inputs": [
        {
          "internalType": "address",
          "name": "user",
          "type": "address"
        },
        {
          "internalType": "address",
          "name": "receiver",
          "type": "address"
        },
        {
          "internalType": "uint64",
          "name": "amount",
          "type": "uint64"
        }
      ],
      "name": "seizeFromStake",
      "outputs": [],
      "stateMutability": "nonpayable",
      "type": "function"
    }
  ],
  "bytecode": "0x608060405234801561001057600080fd5b5061440a806100206000396000f3fe60806040526004361061026a5760003560e01c8063a1ff9bee11610153578063e0c3ebcf116100cb578063f2fde38b1161007f578063f721599e11610064578063f721599e146106f8578063f7522af614610725578063ff782d9b146107545761026a565b8063f2fde38b146106b8578063f4b91c7a146106d85761026a565b8063e4fd7d01116100b0578063e4fd7d0114610663578063e6b8b82514610683578063ef869773146106985761026a565b8063e0c3ebcf14610623578063e326dbbf146106435761026a565b8063c72a8a1411610122578063d1c0702811610107578063d1c07028146105b4578063d4fac45d146105e1578063dcffd7cb1461060e5761026a565b8063c72a8a141461058c578063d0e30db0146105ac5761026a565b8063a1ff9bee146104ef578063a5ffc19a14610511578063a9d5ec761461053f578063c18c9d931461055f5761026a565b80636241d768116101e65780638293e9af116101b55780638da5cb5b1161019a5780638da5cb5b1461048d578063904aa216146104af578063a02fbb78146104cf5761026a565b80638293e9af1461044d57806388a0ec621461046d5761026a565b80636241d768146103d6578063715018a6146104035780637a766460146104185780638129fc1c146104455761026a565b806328d0a3261161023d5780634e91d2c6116102225780634e91d2c614610381578063548dd437146103a157806355664d37146103b65761026a565b806328d0a3261461033f57806340f1a34d146103545761026a565b80630fe31c0f1461029857806311fbc309146102ba578063120b5a3c146102e557806325e4a36e14610312575b34801561027657600080fd5b5060405162461bcd60e51b815260040161028f90613e76565b60405180910390fd5b3480156102a457600080fd5b506102b86102b3366004613191565b610781565b005b3480156102c657600080fd5b506102cf61082b565b6040516102dc91906142ed565b60405180910390f35b3480156102f157600080fd5b506103056103003660046134b6565b610841565b6040516102dc9190613bd0565b34801561031e57600080fd5b5061033261032d3660046130eb565b610854565b6040516102dc9190613c71565b34801561034b57600080fd5b506102cf610869565b34801561036057600080fd5b5061037461036f366004613438565b610887565b6040516102dc91906142d9565b34801561038d57600080fd5b506102b861039c3660046135c4565b6108a2565b3480156103ad57600080fd5b506102b8610a0b565b3480156103c257600080fd5b506103056103d13660046130eb565b610c06565b3480156103e257600080fd5b506103f66103f13660046130eb565b610c68565b6040516102dc9190614302565b34801561040f57600080fd5b506102b8610c7d565b34801561042457600080fd5b506104386104333660046130eb565b610d09565b6040516102dc919061429c565b6102b8610e27565b34801561045957600080fd5b506102b861046836600461321a565b610eb2565b34801561047957600080fd5b506102b861048836600461321a565b6111fa565b34801561049957600080fd5b506104a261122f565b6040516102dc91906138ce565b3480156104bb57600080fd5b506102b86104ca3660046131db565b61123f565b3480156104db57600080fd5b506102b86104ea3660046132d1565b611331565b3480156104fb57600080fd5b506105046113e4565b6040516102dc9190613a0d565b34801561051d57600080fd5b5061053161052c366004613450565b611446565b6040516102dc929190613c93565b34801561054b57600080fd5b506102b861055a3660046134e9565b61149e565b34801561056b57600080fd5b5061057f61057a3660046130eb565b61187a565b6040516102dc9190613b93565b34801561059857600080fd5b506102b86105a73660046130eb565b6118bd565b6102b8611932565b3480156105c057600080fd5b506105d46105cf36600461328d565b61193f565b6040516102dc9190613ae3565b3480156105ed57600080fd5b506106016105fc366004613106565b611a1a565b6040516102dc9190613c85565b34801561061a57600080fd5b506103f6611a49565b34801561062f57600080fd5b506102b861063e366004613392565b611a52565b34801561064f57600080fd5b506102b861065e36600461313a565b611b30565b34801561066f57600080fd5b5061057f61067e3660046134b6565b611bb2565b34801561068f57600080fd5b506103f6611c55565b3480156106a457600080fd5b506103056106b33660046130eb565b611c63565b3480156106c457600080fd5b506102b86106d33660046130eb565b611c7f565b3480156106e457600080fd5b506102b86106f33660046130eb565b611d43565b34801561070457600080fd5b506107186107133660046130eb565b611db3565b6040516102dc9190613b1e565b34801561073157600080fd5b50610745610740366004613263565b611e71565b6040516102dc939291906139d9565b34801561076057600080fd5b5061077461076f3660046130eb565b611edf565b6040516102dc9190614263565b610789612d84565b61079284611fae565b6040517ff96d18e100000000000000000000000000000000000000000000000000000000815290915073__MarginalFunctionality_________________9063f96d18e1906107f590609a90609990609890609b9088908b908b90600401613a85565b60006040518083038186803b15801561080d57600080fd5b505af4158015610821573d6000803e3d6000fd5b5050505050505050565b609c5462010000900467ffffffffffffffff1681565b600061084c82612030565b90505b919050565b600061085f82610d09565b6020015192915050565b609c546a0100000000000000000000900467ffffffffffffffff1681565b6097602052600090815260409020546001600160c01b031681565b60006108ac6120ce565b6001600160a01b038082166000908152609860209081526040808320609d549094168352929052205490915067ffffffffffffffff8316601791820b90910b136109085760405162461bcd60e51b815260040161028f90613f87565b6001600160a01b03818116600090815260a06020908152604080832060988352818420609d549095168452939091529020805477ffffffffffffffffffffffffffffffffffffffffffffffff1981166001600160c01b0367ffffffffffffffff8716601793840b81900390930b1617909155815467ffffffffffffffff19161781556005815468010000000000000000900460ff1660058111156109a857fe5b146109c957805468ff00000000000000001916680100000000000000001781555b80547fffffffffffffffffffffffffffffff0000000000000000ffffffffffffffffff1669010000000000000000004267ffffffffffffffff16021790555050565b6000610a156120ce565b9050610a1f612dc8565b610a2882610d09565b6001600160a01b03831660009081526099602052604090205490915015610a615760405162461bcd60e51b815260040161028f90613cba565b600181602001516005811115610a7357fe5b1480610a8e5750600481602001516005811115610a8c57fe5b145b15610b5057600060a06000610aa16120ce565b6001600160a01b039081168252602080830193909352604091820160009081208054888416835260988652848320609d5490941683529290945291909120805477ffffffffffffffffffffffffffffffffffffffffffffffff1981166001600160c01b0367ffffffffffffffff909416601792830b0190910b9290921691909117905580547fffffffffffffffffffffffffffffffffffffffffffffff00000000000000000016905550610c02565b600281602001516005811115610b6257fe5b1415610bea57600060a06000610b766120ce565b6001600160a01b031681526020810191909152604001600020805468ff0000000000000000191668030000000000000000177fffffffffffffffffffffffffffffff0000000000000000ffffffffffffffffff1669010000000000000000004267ffffffffffffffff160217905550610c02565b60405162461bcd60e51b815260040161028f9061417a565b5050565b6000610c10612dc8565b610c1983610d09565b9050600281602001516005811115610c2d57fe5b1480610c485750600581602001516005811115610c4657fe5b145b15610c5f575167ffffffffffffffff16905061084f565b50600092915050565b609b6020526000908152604090205460ff1681565b610c856120ce565b6065546001600160a01b03908116911614610cb25760405162461bcd60e51b815260040161028f90613f52565b6065546040516000916001600160a01b0316907f8be0079c531659141344cd1fd0a4f28419497f9722a3daafe3b4186f6b6457e0908390a36065805473ffffffffffffffffffffffffffffffffffffffff19169055565b610d11612dc8565b610d19612dc8565b6001600160a01b038316600090815260a06020908152604091829020825160608101909352805467ffffffffffffffff81168452909183019068010000000000000000900460ff166005811115610d6c57fe5b6005811115610d7757fe5b815290546901000000000000000000900467ffffffffffffffff166020909101529050600181602001516005811115610dac57fe5b148015610dc957506000816040015167ffffffffffffffff164203115b15610dda576002602082015261084c565b600381602001516005811115610dec57fe5b148015610e1557506201518067ffffffffffffffff16816040015167ffffffffffffffff164203115b1561084c576004602082015292915050565b600054610100900460ff1680610e405750610e406120d2565b80610e4e575060005460ff16155b610e6a5760405162461bcd60e51b815260040161028f90613fbe565b600054610100900460ff16158015610e95576000805460ff1961ff0019909116610100171660011790555b610e9d6120d8565b8015610eaf576000805461ff00191690555b50565b610edb7fe855346402235fdd185c890e68d2c4ecad599b88587635ee285bce2fda58dacb612156565b156040518060400160405280601981526020017f5245454e5452414e43595f5245454e5452414e545f43414c4c0000000000000081525090610f305760405162461bcd60e51b815260040161028f9190613ca7565b50610f5c7fe855346402235fdd185c890e68d2c4ecad599b88587635ee285bce2fda58dacb600161215a565b6040517f4324960600000000000000000000000000000000000000000000000000000000815260009073__LibUnitConverter______________________90634324960690610fb19086908690600401613997565b60206040518083038186803b158015610fc957600080fd5b505af4158015610fdd573d6000803e3d6000fd5b505050506040513d601f19601f820116820180604052506110019190810190613495565b3360008181526098602090815260408083206001600160a01b038916845290915290205491925090600d83900b601791820b90910b1280159061104857506110488161187a565b6110645760405162461bcd60e51b815260040161028f90613de2565b6001600160a01b0380821660009081526098602090815260408083209388168084529390915290208054600d85900b601782810b91909103900b6001600160c01b031677ffffffffffffffffffffffffffffffffffffffffffffffff199091161790556dffffffffffffffffffffffffffff84169061115f576000826001600160a01b0316826040516110f69061123c565b60006040518083038185875af1925050503d8060008114611133576040519150601f19603f3d011682016040523d82523d6000602084013e611138565b606091505b50509050806111595760405162461bcd60e51b815260040161028f90613d17565b50611179565b6111796001600160a01b038616838363ffffffff61215e16565b846001600160a01b0316826001600160a01b03167f680bf27edbd578e3c9c5afd420badcf2fe53be197a76c602d30480831c2a8587600086426040516111c193929190613b9e565b60405180910390a3505050610c027fe855346402235fdd185c890e68d2c4ecad599b88587635ee285bce2fda58dacb60001b600061215a565b6112256001600160a01b03831633306dffffffffffffffffffffffffffff851663ffffffff6121e116565b610c028282612202565b6065546001600160a01b03165b90565b33301461125e5760405162461bcd60e51b815260040161028f90613ee4565b6001600160a01b038316600090815260a060205260409020805467ffffffffffffffff808416911610156112a45760405162461bcd60e51b815260040161028f90613ead565b805467ffffffffffffffff19811667ffffffffffffffff9182168490038216179091556001600160a01b039283166000908152609860209081526040808320609d54909616835294905292909220805477ffffffffffffffffffffffffffffffffffffffffffffffff1981166001600160c01b0393909416601791820b01900b9190911691909117905550565b6113396120ce565b6065546001600160a01b039081169116146113665760405162461bcd60e51b815260040161028f90613f52565b60005b82518161ffff1610156113df57818161ffff168151811061138657fe5b6020026020010151609b6000858461ffff16815181106113a257fe5b6020908102919091018101516001600160a01b03168252810191909152604001600020805460ff191660ff92909216919091179055600101611369565b505050565b6060609a80548060200260200160405190810160405280929190818152602001828054801561143c57602002820191906000526020600020905b81546001600160a01b0316815260019091019060200180831161141e575b5050505050905090565b60008281526097602052604081205460a083015160e08401516001600160c01b038316939267ffffffffffffffff928316926dffffffffffffffffffffffffffff9091169116028161149457fe5b0490509250929050565b6114c77fe855346402235fdd185c890e68d2c4ecad599b88587635ee285bce2fda58dacb612156565b156040518060400160405280601981526020017f5245454e5452414e43595f5245454e5452414e545f43414c4c000000000000008152509061151c5760405162461bcd60e51b815260040161028f9190613ca7565b506115487fe855346402235fdd185c890e68d2c4ecad599b88587635ee285bce2fda58dacb600161215a565b60006305f5e1006dffffffffffffffffffffffffffff831667ffffffffffffffff8516020490506dffffffffffffffffffffffffffff811061159c5760405162461bcd60e51b815260040161028f90613dab565b8060006115a887612030565b905060006115b587612030565b609f546040517fc956a3b700000000000000000000000000000000000000000000000000000000815291925073__LibValidator__________________________9163c956a3b791611621918c918c9133918c918e9142916001600160a01b03909116906004016141ea565b60206040518083038186803b15801561163957600080fd5b505af415801561164d573d6000803e3d6000fd5b505050506040513d601f19601f820116820180604052506116719190810190613418565b61168d5760405162461bcd60e51b815260040161028f90614089565b600082815260976020526040808220805477ffffffffffffffffffffffffffffffffffffffffffffffff198082166dffffffffffffffffffffffffffff8b166001600160c01b0393841681018416919091178455868652938520805491821691831690940182161790925560a08b0151928590525467ffffffffffffffff9092169116111561172e5760405162461bcd60e51b815260040161028f9061401b565b60a087015160008281526097602052604090205467ffffffffffffffff9091166001600160c01b0390911611156117775760405162461bcd60e51b815260040161028f90613f1b565b611784888685600161245a565b611791878685600061245a565b875161179c9061187a565b6117b85760405162461bcd60e51b815260040161028f9061411d565b86516117c39061187a565b6117df5760405162461bcd60e51b815260040161028f90613e19565b86600001516001600160a01b031688600001516001600160a01b03167f2cb48e3cb1f0f27852a167ba54cb02d89bd8bf1beb99be6d42fa9d6535da5ad78a604001518b606001518a8a8960405161183a95949392919061394a565b60405180910390a3505050506118747fe855346402235fdd185c890e68d2c4ecad599b88587635ee285bce2fda58dacb60001b600061215a565b50505050565b6001600160a01b03811660009081526099602052604081205461189f5750600161084f565b60006118aa83611edf565b5160048111156118b657fe5b1492915050565b6118c56120ce565b6065546001600160a01b039081169116146118f25760405162461bcd60e51b815260040161028f90613f52565b6001600160a01b038116600090815260a0602052604090208054600490829068ff0000000000000000191668010000000000000000835b02179055505050565b61193d600034612202565b565b606080835160405190808252806020026020018201604052801561196d578160200160208202803883390190505b50905060005b84518161ffff161015611a10576001600160a01b03841660009081526098602052604081208651909190879061ffff85169081106119ad57fe5b60200260200101516001600160a01b03166001600160a01b0316815260200190815260200160002060009054906101000a900460170b828261ffff16815181106119f357fe5b601792830b90920b60209283029190910190910152600101611973565b5090505b92915050565b6001600160a01b0380821660009081526098602090815260408083209386168352929052205460170b92915050565b609c5460ff1681565b611a5a6120ce565b6065546001600160a01b03908116911614611a875760405162461bcd60e51b815260040161028f90613f52565b8451611a9a90609a906020880190612dea565b50609c805460ff191660ff9586161761ff0019166101009490951693909302939093177fffffffffffffffffffffffffffffffffffffffffffff0000000000000000ffff166201000067ffffffffffffffff92831602177fffffffffffffffffffffffffffff0000000000000000ffffffffffffffffffff166a0100000000000000000000939091169290920291909117905550565b611b386120ce565b6065546001600160a01b03908116911614611b655760405162461bcd60e51b815260040161028f90613f52565b609d80546001600160a01b0394851673ffffffffffffffffffffffffffffffffffffffff1991821617909155609e805493851693821693909317909255609f805491909316911617905550565b6040517fe7e652ed00000000000000000000000000000000000000000000000000000000815260009073__LibValidator__________________________9063e7e652ed90611c059085906004016141d7565b60206040518083038186803b158015611c1d57600080fd5b505af4158015611c31573d6000803e3d6000fd5b505050506040513d601f19601f8201168201806040525061084c9190810190613418565b609c54610100900460ff1681565b6000611c6e82610d09565b5167ffffffffffffffff1692915050565b611c876120ce565b6065546001600160a01b03908116911614611cb45760405162461bcd60e51b815260040161028f90613f52565b6001600160a01b038116611cda5760405162461bcd60e51b815260040161028f90613d4e565b6065546040516001600160a01b038084169216907f8be0079c531659141344cd1fd0a4f28419497f9722a3daafe3b4186f6b6457e090600090a36065805473ffffffffffffffffffffffffffffffffffffffff19166001600160a01b0392909216919091179055565b611d4b6120ce565b6065546001600160a01b03908116911614611d785760405162461bcd60e51b815260040161028f90613f52565b6001600160a01b038116600090815260a0602052604090208054600590829068ff000000000000000019166801000000000000000083611929565b6001600160a01b0381166000908152609960209081526040808320805482518185028101850190935280835260609492939192909184015b82821015611e66576000848152602090819020604080516060810182526002860290920180546001600160a01b038116845274010000000000000000000000000000000000000000900467ffffffffffffffff16838501526001908101546001600160c01b0316918301919091529083529092019101611deb565b505050509050919050565b60996020528160005260406000208181548110611e8a57fe5b6000918252602090912060029091020180546001909101546001600160a01b03821693507401000000000000000000000000000000000000000090910467ffffffffffffffff1691506001600160c01b031683565b611ee7612e5c565b611eef612d84565b611ef883611fae565b6040517ff127baa100000000000000000000000000000000000000000000000000000000815290915073__MarginalFunctionality_________________9063f127baa190611f5790609a90609990609890609b908890600401613a5a565b60806040518083038186803b158015611f6f57600080fd5b505af4158015611f83573d6000803e3d6000fd5b505050506040513d601f19601f82011682018060405250611fa7919081019061356f565b9392505050565b611fb6612d84565b506040805161010080820183526001600160a01b039384168252609e54841660208301523092820192909252609d549092166060830152609c5467ffffffffffffffff6a01000000000000000000008204811660808501526201000082041660a084015260ff80821660c08501529190041660e082015290565b600080604051602001612042906137c1565b60405160208183030381529060405280519060200120905080836000015184602001518560400151866060015187608001518860a001518960c001518a60e001518b61010001518c61012001518d61014001516040516020016120b09c9b9a99989796959493929190613bd9565b60405160208183030381529060405280519060200120915050919050565b3390565b303b1590565b600054610100900460ff16806120f157506120f16120d2565b806120ff575060005460ff16155b61211b5760405162461bcd60e51b815260040161028f90613fbe565b600054610100900460ff16158015612146576000805460ff1961ff0019909116610100171660011790555b61214e6129ac565b610e9d612a2d565b5490565b9055565b6113df8363a9059cbb60e01b848460405160240161217d9291906139c0565b60408051601f198184030181529190526020810180517bffffffffffffffffffffffffffffffffffffffffffffffffffffffff167fffffffff0000000000000000000000000000000000000000000000000000000090931692909217909152612b14565b611874846323b872dd60e01b85858560405160240161217d939291906138e2565b3360008181526098602090815260408083206001600160a01b03871684529091528082205490517f43249606000000000000000000000000000000000000000000000000000000008152601791820b90910b8213919073__LibUnitConverter______________________906343249606906122849088908890600401613997565b60206040518083038186803b15801561229c57600080fd5b505af41580156122b0573d6000803e3d6000fd5b505050506040513d601f19601f820116820180604052506122d49190810190613495565b6001600160a01b038085166000908152609860209081526040808320938a168352929052208054601781810b600d85900b01900b6001600160c01b031677ffffffffffffffffffffffffffffffffffffffffffffffff1990911617905590506dffffffffffffffffffffffffffff84161561239a57846001600160a01b0316836001600160a01b03167f680bf27edbd578e3c9c5afd420badcf2fe53be197a76c602d30480831c2a85876001844260405161239193929190613b9e565b60405180910390a35b8115612453576001600160a01b03808416600090815260986020908152604080832093891683529290528190205490517fc8d1ef4600000000000000000000000000000000000000000000000000000000815273__MarginalFunctionality_________________9163c8d1ef46916124229187918a91609991889160170b90600401613906565b60006040518083038186803b15801561243a57600080fd5b505af415801561244e573d6000803e3d6000fd5b505050505b5050505050565b835160a085015160e086015167ffffffffffffffff91821691166dffffffffffffffffffffffffffff8616028161248d57fe5b0467ffffffffffffffff1660e0860152816124a6579192915b6001600160a01b03808216600090815260986020908152604080832060808a0151909416835292905290812054601790810b900b81139080846124f257876040015188606001516124fd565b876060015188604001515b91509150600060986000866001600160a01b03166001600160a01b031681526020019081526020016000206000846001600160a01b03166001600160a01b0316815260200190815260200160002060009054906101000a900460170b9050600060986000876001600160a01b03166001600160a01b031681526020019081526020016000206000846001600160a01b03166001600160a01b0316815260200190815260200160002060009054906101000a900460170b905060008060008460170b1290506000808460170b1290508a6dffffffffffffffffffffffffffff16609860008b6001600160a01b03166001600160a01b031681526020019081526020016000206000896001600160a01b03166001600160a01b0316815260200190815260200160002060009054906101000a900460170b03925082609860008b6001600160a01b03166001600160a01b031681526020019081526020016000206000896001600160a01b03166001600160a01b0316815260200190815260200160002060006101000a8154816001600160c01b03021916908360170b6001600160c01b031602179055508b6dffffffffffffffffffffffffffff16609860008b6001600160a01b03166001600160a01b031681526020019081526020016000206000886001600160a01b03166001600160a01b0316815260200190815260200160002060008282829054906101000a900460170b0192506101000a8154816001600160c01b03021916908360170b6001600160c01b0316021790555081158015612748575060008360170b125b1561275857612758898885612ba3565b80801561279257506001600160a01b03808a166000908152609860209081526040808320938a16835292905290812054601790810b900b12155b1561281d576040517fbb1902ff00000000000000000000000000000000000000000000000000000000815273__MarginalFunctionality_________________9063bb1902ff906127ec908c908a906099906004016138e2565b60006040518083038186803b15801561280457600080fd5b505af4158015612818573d6000803e3d6000fd5b505050505b8c60e0015167ffffffffffffffff16609860008b6001600160a01b03166001600160a01b0316815260200190815260200160002060008f608001516001600160a01b03166001600160a01b0316815260200190815260200160002060009054906101000a900460170b03925082609860008b6001600160a01b03166001600160a01b0316815260200190815260200160002060008f608001516001600160a01b03166001600160a01b0316815260200190815260200160002060006101000a8154816001600160c01b03021916908360170b6001600160c01b031602179055508715801561290e575060008360170b125b1561292257612922898e6080015185612ba3565b5050505060e08901516020808b01516001600160a01b0390811660009081526098835260408082206080909e015190921681529b909152909920805477ffffffffffffffffffffffffffffffffffffffffffffffff1981166001600160c01b0367ffffffffffffffff909c16601792830b0190910b9a909a16999099179098555050505050505050565b600054610100900460ff16806129c557506129c56120d2565b806129d3575060005460ff16155b6129ef5760405162461bcd60e51b815260040161028f90613fbe565b600054610100900460ff16158015610e9d576000805460ff1961ff0019909116610100171660011790558015610eaf576000805461ff001916905550565b600054610100900460ff1680612a465750612a466120d2565b80612a54575060005460ff16155b612a705760405162461bcd60e51b815260040161028f90613fbe565b600054610100900460ff16158015612a9b576000805460ff1961ff0019909116610100171660011790555b6000612aa56120ce565b6065805473ffffffffffffffffffffffffffffffffffffffff19166001600160a01b038316908117909155604051919250906000907f8be0079c531659141344cd1fd0a4f28419497f9722a3daafe3b4186f6b6457e0908290a3508015610eaf576000805461ff001916905550565b6060612b69826040518060400160405280602081526020017f5361666545524332303a206c6f772d6c6576656c2063616c6c206661696c6564815250856001600160a01b0316612ca39092919063ffffffff16565b8051909150156113df5780806020019051612b879190810190613418565b6113df5760405162461bcd60e51b815260040161028f906140c0565b6001600160a01b0392831660009081526099602090815260408083208151606081018352958716865267ffffffffffffffff4281168785019081526001600160c01b03968603871693880193845282546001818101855593875294909520965160029094029096018054945190961674010000000000000000000000000000000000000000027fffffffff0000000000000000ffffffffffffffffffffffffffffffffffffffff9390971673ffffffffffffffffffffffffffffffffffffffff19909416939093179190911694909417835592519190920180549190921677ffffffffffffffffffffffffffffffffffffffffffffffff19909116179055565b6060612cb28484600085612cba565b949350505050565b6060612cc585612d7e565b612ce15760405162461bcd60e51b815260040161028f90614052565b60006060866001600160a01b03168587604051612cfe91906137a5565b60006040518083038185875af1925050503d8060008114612d3b576040519150601f19603f3d011682016040523d82523d6000602084013e612d40565b606091505b50915091508115612d54579150612cb29050565b805115612d645780518082602001fd5b8360405162461bcd60e51b815260040161028f9190613ca7565b3b151590565b6040805161010081018252600080825260208201819052918101829052606081018290526080810182905260a0810182905260c0810182905260e081019190915290565b6040805160608101909152600080825260208201908152600060209091015290565b828054828255906000526020600020908101928215612e4c579160200282015b82811115612e4c578251825473ffffffffffffffffffffffffffffffffffffffff19166001600160a01b03909116178255602090920191600190910190612e0a565b50612e58929150612e85565b5090565b604080516080810190915280600081526020016000815260200160008152602001600081525090565b61123c91905b80821115612e5857805473ffffffffffffffffffffffffffffffffffffffff19168155600101612e8b565b80356001600160a01b0381168114611a1457600080fd5b600082601f830112612edd578081fd5b8135612ef0612eeb82614337565b614310565b818152915060208083019084810181840286018201871015612f1157600080fd5b60005b84811015612f3857612f268883612eb6565b84529282019290820190600101612f14565b505050505092915050565b600082601f830112612f53578081fd5b813567ffffffffffffffff811115612f69578182fd5b612f7c6020601f19601f84011601614310565b9150808252836020828501011115612f9357600080fd5b8060208401602084013760009082016020015292915050565b6000610180808385031215612fbf578182fd5b612fc881614310565b915050612fd58383612eb6565b8152612fe48360208401612eb6565b6020820152612ff68360408401612eb6565b60408201526130088360608401612eb6565b606082015261301a8360808401612eb6565b608082015261302c8360a084016130c2565b60a082015261303e8360c084016130c2565b60c08201526130508360e084016130c2565b60e0820152610100613064848285016130c2565b90820152610120613077848483016130c2565b9082015261014061308a848483016130da565b908201526101608281013567ffffffffffffffff8111156130aa57600080fd5b6130b685828601612f43565b82840152505092915050565b803567ffffffffffffffff81168114611a1457600080fd5b803560ff81168114611a1457600080fd5b6000602082840312156130fc578081fd5b611fa78383612eb6565b60008060408385031215613118578081fd5b6131228484612eb6565b91506131318460208501612eb6565b90509250929050565b6000806000806080858703121561314f578182fd5b6131598686612eb6565b93506131688660208701612eb6565b92506131778660408701612eb6565b91506131868660608701612eb6565b905092959194509250565b6000806000606084860312156131a5578283fd5b83356131b08161438d565b925060208401356131c08161438d565b915060408401356131d0816143a2565b809150509250925092565b6000806000606084860312156131ef578283fd5b83356131fa8161438d565b9250602084013561320a8161438d565b915060408401356131d0816143be565b6000806040838503121561322c578182fd5b6132368484612eb6565b915060208301356dffffffffffffffffffffffffffff81168114613258578182fd5b809150509250929050565b60008060408385031215613275578182fd5b61327f8484612eb6565b946020939093013593505050565b6000806040838503121561329f578182fd5b823567ffffffffffffffff8111156132b5578283fd5b6132c185828601612ecd565b9250506131318460208501612eb6565b600080604083850312156132e3578182fd5b823567ffffffffffffffff808211156132fa578384fd5b61330686838701612ecd565b935060209150818501358181111561331c578384fd5b85019050601f8101861361332e578283fd5b803561333c612eeb82614337565b81815283810190838501858402850186018a1015613358578687fd5b8694505b838510156133825761336e8a826130da565b83526001949094019391850191850161335c565b5080955050505050509250929050565b600080600080600060a086880312156133a9578283fd5b853567ffffffffffffffff8111156133bf578384fd5b6133cb88828901612ecd565b9550506133db87602088016130da565b93506133ea87604088016130da565b925060608601356133fa816143be565b9150608086013561340a816143be565b809150509295509295909350565b600060208284031215613429578081fd5b81518015158114611fa7578182fd5b600060208284031215613449578081fd5b5035919050565b60008060408385031215613462578182fd5b82359150602083013567ffffffffffffffff81111561347f578182fd5b61348b85828601612fac565b9150509250929050565b6000602082840312156134a6578081fd5b815180600d0b8114611fa7578182fd5b6000602082840312156134c7578081fd5b813567ffffffffffffffff8111156134dd578182fd5b612cb284828501612fac565b600080600080608085870312156134fe578182fd5b843567ffffffffffffffff80821115613515578384fd5b61352188838901612fac565b95506020870135915080821115613536578384fd5b5061354387828801612fac565b9350506040850135613554816143be565b91506060850135613564816143a2565b939692955090935050565b600060808284031215613580578081fd5b61358a6080614310565b825160058110613598578283fd5b808252506020830151602082015260408301516040820152606083015160608201528091505092915050565b6000602082840312156135d5578081fd5b8135611fa7816143be565b6001600160a01b03169052565b60008151808452613605816020860160208601614357565b601f01601f19169290920160200192915050565b60006101806136298484516135e0565b602083015161363b60208601826135e0565b50604083015161364e60408601826135e0565b50606083015161366160608601826135e0565b50608083015161367460808601826135e0565b5060a083015161368760a0860182613790565b5060c083015161369a60c0860182613790565b5060e08301516136ad60e0860182613790565b50610100808401516136c182870182613790565b5050610120808401516136d682870182613790565b5050610140808401516136eb8287018261379e565b5050610160808401518282870152613705838701826135ed565b9695505050505050565b80516001600160a01b038082168452806020840151166020850152806040840151166040850152806060840151166060850152505067ffffffffffffffff608082015116608083015260a081015161376a60a0840182613790565b5060c081015161377d60c084018261379e565b5060e08101516113df60e084018261379e565b67ffffffffffffffff169052565b60ff169052565b600082516137b7818460208701614357565b9190910192915050565b7f4f7264657228616464726573732073656e646572416464726573732c6164647281527f657373206d617463686572416464726573732c6164647265737320626173654160208201527f737365742c616464726573732071756f746541737365742c616464726573732060408201527f6d61746368657246656541737365742c75696e74363420616d6f756e742c756960608201527f6e7436342070726963652c75696e743634206d6174636865724665652c75696e60808201527f743634206e6f6e63652c75696e7436342065787069726174696f6e2c75696e7460a08201527f382062757953696465290000000000000000000000000000000000000000000060c082015260ca0190565b6001600160a01b0391909116815260200190565b6001600160a01b039384168152919092166020820152604081019190915260600190565b6001600160a01b03958616815293909416602084015260408301919091526dffffffffffffffffffffffffffff16606082015260179190910b608082015260a00190565b6001600160a01b03958616815293909416602084015267ffffffffffffffff9190911660408301526dffffffffffffffffffffffffffff9081166060830152909116608082015260a00190565b6001600160a01b039290921682526dffffffffffffffffffffffffffff16602082015260400190565b6001600160a01b03929092168252602082015260400190565b6001600160a01b0393909316835267ffffffffffffffff9190911660208301526001600160c01b0316604082015260600190565b6020808252825182820181905260009190848201906040850190845b81811015613a4e5783516001600160a01b031683529284019291840191600101613a29565b50909695505050505050565b600061018082019050868252856020830152846040830152836060830152613705608083018461370f565b60006101c082019050888252876020830152866040830152856060830152613ab0608083018661370f565b6001600160a01b0384166101808301526dffffffffffffffffffffffffffff83166101a083015298975050505050505050565b6020808252825182820181905260009190848201906040850190845b81811015613a4e57835160170b83529284019291840191600101613aff565b602080825282518282018190526000919060409081850190868401855b82811015613b8657815180516001600160a01b031685528681015167ffffffffffffffff16878601528501516001600160c01b03168585015260609093019290850190600101613b3b565b5091979650505050505050565b901515815260200190565b92151583526dffffffffffffffffffffffffffff91909116602083015267ffffffffffffffff16604082015260600190565b90815260200190565b8c81526001600160a01b038c811660208301528b811660408301528a811660608301528981166080830152881660a082015267ffffffffffffffff87811660c0830152861660e08201526101808101613c36610100830187613790565b613c44610120830186613790565b613c52610140830185613790565b613c6061016083018461379e565b9d9c50505050505050505050505050565b6020810160068310613c7f57fe5b91905290565b60179190910b815260200190565b601792830b8152910b602082015260400190565b600060208252611fa760208301846135ed565b6020808252602b908201527f43616e206e6f742072656c65617365207374616b653a2075736572206861732060408201527f6c696162696c6974696573000000000000000000000000000000000000000000606082015260800190565b60208082526003908201527f4536770000000000000000000000000000000000000000000000000000000000604082015260600190565b60208082526026908201527f4f776e61626c653a206e6577206f776e657220697320746865207a65726f206160408201527f6464726573730000000000000000000000000000000000000000000000000000606082015260800190565b60208082526004908201527f4531324700000000000000000000000000000000000000000000000000000000604082015260600190565b60208082526003908201527f4531770000000000000000000000000000000000000000000000000000000000604082015260600190565b60208082526024908201527f496e636f7272656374206d617267696e20706f736974696f6e20666f7220736560408201527f6c6c657200000000000000000000000000000000000000000000000000000000606082015260800190565b60208082526002908201527f4536000000000000000000000000000000000000000000000000000000000000604082015260600190565b60208082526002908201527f5558000000000000000000000000000000000000000000000000000000000000604082015260600190565b60208082526003908201527f4531340000000000000000000000000000000000000000000000000000000000604082015260600190565b60208082526004908201527f4531325300000000000000000000000000000000000000000000000000000000604082015260600190565b6020808252818101527f4f776e61626c653a2063616c6c6572206973206e6f7420746865206f776e6572604082015260600190565b60208082526003908201527f4531530000000000000000000000000000000000000000000000000000000000604082015260600190565b6020808252602e908201527f436f6e747261637420696e7374616e63652068617320616c726561647920626560408201527f656e20696e697469616c697a6564000000000000000000000000000000000000606082015260800190565b60208082526004908201527f4531324200000000000000000000000000000000000000000000000000000000604082015260600190565b6020808252601d908201527f416464726573733a2063616c6c20746f206e6f6e2d636f6e7472616374000000604082015260600190565b60208082526003908201527f4533470000000000000000000000000000000000000000000000000000000000604082015260600190565b6020808252602a908201527f5361666545524332303a204552433230206f7065726174696f6e20646964206e60408201527f6f74207375636365656400000000000000000000000000000000000000000000606082015260800190565b60208082526023908201527f496e636f7272656374206d617267696e20706f736974696f6e20666f7220627560408201527f7965720000000000000000000000000000000000000000000000000000000000606082015260800190565b60208082526025908201527f43616e206e6f742072656c656173652066756e64732066726f6d20746869732060408201527f7068617365000000000000000000000000000000000000000000000000000000606082015260800190565b600060208252611fa76020830184613619565b600060e082526141fd60e083018a613619565b828103602084015261420f818a613619565b9150506001600160a01b0380881660408401526dffffffffffffffffffffffffffff8716606084015267ffffffffffffffff861660808401528460a084015280841660c08401525098975050505050505050565b815160808201906005811061427457fe5b8083525060208301516020830152604083015160408301526060830151606083015292915050565b815167ffffffffffffffff9081168252602083015160608301916142bf82614383565b816020850152806040860151166040850152505092915050565b6001600160c01b0391909116815260200190565b67ffffffffffffffff91909116815260200190565b60ff91909116815260200190565b60405181810167ffffffffffffffff8111828210171561432f57600080fd5b604052919050565b600067ffffffffffffffff82111561434d578081fd5b5060209081020190565b60005b8381101561437257818101518382015260200161435a565b838111156118745750506000910152565b60068110610eaf57fe5b6001600160a01b0381168114610eaf57600080fd5b6dffffffffffffffffffffffffffff81168114610eaf57600080fd5b67ffffffffffffffff81168114610eaf57600080fdfea264697066735822122027b5544368bb9a7fd9996aad6c12108664317ca0140c1a811cb032d68c52616964736f6c63430006020033",
  "source": "pragma solidity ^0.6.0;\npragma experimental ABIEncoderV2;\n\nimport \"@openzeppelin/contracts/token/ERC20/IERC20.sol\";\nimport \"@openzeppelin/contracts/token/ERC20/SafeERC20.sol\";\nimport \"@openzeppelin/contracts-ethereum-package/contracts/access/Ownable.sol\";\nimport \"@openzeppelin/contracts/utils/Address.sol\";\nimport \"./utils/ReentrancyGuard.sol\";\nimport \"./libs/LibUnitConverter.sol\";\nimport \"./libs/LibValidator.sol\";\nimport \"./libs/MarginalFunctionality.sol\";\n\n/**\n * @title Exchange\n * @dev Exchange contract for the Orion Protocol\n * @author @wafflemakr\n */\n\n/*\n\n  Overflow safety:\n  We do not use SafeMath and control overflows by\n  not accepting large ints on input.\n\n  Balances inside contract are stored as int192.\n\n  Allowed input amounts are int112 or uint112: it is enough for all\n  practically used tokens: for instance if decimal unit is 1e18, int112\n  allow to encode up to 2.5e15 decimal units.\n  That way adding/subtracting any amount from balances won't overflow, since\n  minimum number of operations to reach max int is practically infinite: ~1e24.\n\n  Allowed prices are uint64. Note, that price is represented as\n  price per 1e8 tokens. That means that amount*price always fit uint256,\n  while amount*price/1e8 not only fit int192, but also can be added, subtracted\n  without overflow checks: number of malicion operations to overflow ~1e13.\n*/\ncontract Exchange is ReentrancyGuard, OwnableUpgradeSafe {\n\n    using LibValidator for LibValidator.Order;\n    using SafeERC20 for IERC20;\n\n    // EVENTS\n    event NewAssetTransaction(\n        address indexed user,\n        address indexed assetAddress,\n        bool isDeposit,\n        uint112 amount,\n        uint64 timestamp\n    );\n\n    event NewTrade(\n        address indexed buyer,\n        address indexed seller,\n        address baseAsset,\n        address quoteAsset,\n        uint64 filledPrice,\n        uint192 filledAmount,\n        uint192 amountQuote\n    );\n\n    //order -> filledAmount\n    mapping(bytes32 => uint192) public filledAmounts;\n\n\n    // Get user balance by address and asset address\n    mapping(address => mapping(address => int192)) private assetBalances;\n    // List of assets with negative balance for each user\n    mapping(address => MarginalFunctionality.Liability[]) public liabilities;\n    // List of assets which can be used as collateral and risk coefficients for them\n    address[] private collateralAssets;\n    mapping(address => uint8) public assetRisks;\n    // Risk coefficient for locked ORN\n    uint8 public stakeRisk;\n    // Liquidation premium\n    uint8 public liquidationPremium;\n    // Delays after which price and position become outdated\n    uint64 public priceOverdue;\n    uint64 public positionOverdue;\n\n    IERC20 _orionToken;\n    address _oracleAddress;\n    address _allowedMatcher;\n\n    // MAIN FUNCTIONS\n\n    function initialize() public payable initializer {\n        OwnableUpgradeSafe.__Ownable_init();\n    }\n\n    function setBasicParams(address orionVaultContractAddress, address orionToken, address priceOracleAddress, address allowedMatcher) public onlyOwner {\n      _orionToken = IERC20(orionToken);\n      _oracleAddress = priceOracleAddress;\n      _allowedMatcher = allowedMatcher;\n    }\n\n    function updateMarginalSettings(address[] memory _collateralAssets,\n                                    uint8 _stakeRisk,\n                                    uint8 _liquidationPremium,\n                                    uint64 _priceOverdue,\n                                    uint64 _positionOverdue) public onlyOwner {\n      collateralAssets = _collateralAssets;\n      stakeRisk = _stakeRisk;\n      liquidationPremium = _liquidationPremium;\n      priceOverdue = _priceOverdue;\n      positionOverdue = _positionOverdue;\n    }\n\n    function updateAssetRisks(address[] memory assets, uint8[] memory risks) public onlyOwner {\n        for(uint16 i; i< assets.length; i++)\n         assetRisks[assets[i]] = risks[i];\n    }\n\n    /**\n     * @dev Deposit ERC20 tokens to the exchange contract\n     * @dev User needs to approve token contract first\n     * @param amount asset amount to deposit in its base unit\n     */\n    function depositAsset(address assetAddress, uint112 amount) external {\n        //require(asset.transferFrom(msg.sender, address(this), uint256(amount)), \"E6\");\n        IERC20(assetAddress).safeTransferFrom(msg.sender, address(this), uint256(amount));\n        generalDeposit(assetAddress,amount);\n    }\n\n    /**\n     * @notice Deposit ETH to the exchange contract\n     * @dev deposit event will be emitted with the amount in decimal format (10^8)\n     * @dev balance will be stored in decimal format too\n     */\n    function deposit() external payable {\n        generalDeposit(address(0), uint112(msg.value));\n    }\n\n    function generalDeposit(address assetAddress, uint112 amount) internal {\n        address user = msg.sender;\n        bool wasLiability = assetBalances[user][assetAddress]<0;\n        int112 safeAmountDecimal = LibUnitConverter.baseUnitToDecimal(\n            assetAddress,\n            amount\n        );\n        assetBalances[user][assetAddress] += safeAmountDecimal;\n        if(amount>0)\n          emit NewAssetTransaction(user, assetAddress, true, uint112(safeAmountDecimal), uint64(now));\n        if(wasLiability)\n          MarginalFunctionality.updateLiability(user, assetAddress, liabilities, uint112(safeAmountDecimal), assetBalances[user][assetAddress]);\n\n    }\n    /**\n     * @dev Withdrawal of remaining funds from the contract back to the address\n     * @param assetAddress address of the asset to withdraw\n     * @param amount asset amount to withdraw in its base unit\n     */\n    function withdraw(address assetAddress, uint112 amount)\n        external\n        nonReentrant\n    {\n        int112 safeAmountDecimal = LibUnitConverter.baseUnitToDecimal(\n            assetAddress,\n            amount\n        );\n\n        address user = msg.sender;\n\n        require(assetBalances[user][assetAddress]>=safeAmountDecimal && checkPosition(user), \"E1w\"); //TODO\n        assetBalances[user][assetAddress] -= safeAmountDecimal;\n        \n        uint256 _amount = uint256(amount);\n        if(assetAddress == address(0)) {\n          (bool success, ) = user.call.value(_amount)(\"\");\n          require(success, \"E6w\");\n        } else {\n          IERC20(assetAddress).safeTransfer(user, _amount);\n        }\n\n\n        emit NewAssetTransaction(user, assetAddress, false, uint112(safeAmountDecimal), uint64(now));\n    }\n\n\n    /**\n     * @dev Get asset balance for a specific address\n     * @param assetAddress address of the asset to query\n     * @param user user address to query\n     */\n    function getBalance(address assetAddress, address user)\n        public\n        view\n        returns (int192 assetBalance)\n    {\n        return assetBalances[user][assetAddress];\n    }\n\n\n    /**\n     * @dev Batch query of asset balances for a user\n     * @param assetsAddresses array of addresses of teh assets to query\n     * @param user user address to query\n     */\n    function getBalances(address[] memory assetsAddresses, address user)\n        public\n        view\n        returns (int192[] memory)\n    {\n        int192[] memory balances = new int192[](assetsAddresses.length);\n        for (uint16 i; i < assetsAddresses.length; i++) {\n            balances[i] = assetBalances[user][assetsAddresses[i]];\n        }\n        return balances;\n    }\n\n    function getLiabilities(address user)\n        public\n        view\n        returns (MarginalFunctionality.Liability[] memory liabilitiesArray)\n    {\n        return liabilities[user];\n    }\n    \n\n    function getCollateralAssets() public view returns (address[] memory) {\n        return collateralAssets;\n    }\n\n    /**\n     * @dev get hash for an order\n     */\n    function getOrderHash(LibValidator.Order memory order) public pure returns (bytes32){\n      return order.getTypeValueHash();\n    }\n\n\n    /**\n     * @dev get trades for a specific order\n     */\n    function getFilledAmounts(bytes32 orderHash, LibValidator.Order memory order)\n        public\n        view\n        returns (int192 totalFilled, int192 totalFeesPaid)\n    {\n        totalFilled = int192(filledAmounts[orderHash]); //It is safe to convert here: filledAmounts is result of ui112 additions\n        totalFeesPaid = int192(uint256(order.matcherFee)*uint112(totalFilled)/order.amount); //matcherFee is u64; safe multiplication here\n    }\n\n\n    /**\n     * @notice Settle a trade with two orders, filled price and amount\n     * @dev 2 orders are submitted, it is necessary to match them:\n        check conditions in orders for compliance filledPrice, filledAmountbuyOrderHash\n        change balances on the contract respectively with buyer, seller, matcbuyOrderHashher\n     * @param buyOrder structure of buy side orderbuyOrderHash\n     * @param sellOrder structure of sell side order\n     * @param filledPrice price at which the order was settled\n     * @param filledAmount amount settled between orders\n     */\n    function fillOrders(\n        LibValidator.Order memory buyOrder,\n        LibValidator.Order memory sellOrder,\n        uint64 filledPrice,\n        uint112 filledAmount\n    ) public nonReentrant {\n        // --- VARIABLES --- //\n        // Amount of quote asset\n        uint256 _amountQuote = uint256(filledAmount)*filledPrice/(10**8);\n        require(_amountQuote<2**112-1, \"E12G\");\n        uint112 amountQuote = uint112(_amountQuote);\n\n        // Order Hashes\n        bytes32 buyOrderHash = buyOrder.getTypeValueHash();\n        bytes32 sellOrderHash = sellOrder.getTypeValueHash();\n\n        // --- VALIDATIONS --- //\n\n        // Validate signatures using eth typed sign V1\n        require(\n            LibValidator.checkOrdersInfo(\n                buyOrder,\n                sellOrder,\n                msg.sender,\n                filledAmount,\n                filledPrice,\n                now,\n                _allowedMatcher\n            ),\n            \"E3G\"\n        );\n\n\n        // --- UPDATES --- //\n\n        //updateFilledAmount\n        filledAmounts[buyOrderHash] += filledAmount; //it is safe to add ui112 to each other to get i192\n        filledAmounts[sellOrderHash] += filledAmount;\n        require(filledAmounts[buyOrderHash] <= buyOrder.amount, \"E12B\");\n        require(filledAmounts[sellOrderHash] <= sellOrder.amount, \"E12S\");\n\n\n        // Update User's balances\n        updateOrderBalance(buyOrder, filledAmount, amountQuote, true);\n        updateOrderBalance(sellOrder, filledAmount, amountQuote, false);\n        require(checkPosition(buyOrder.senderAddress), \"Incorrect margin position for buyer\");\n        require(checkPosition(sellOrder.senderAddress), \"Incorrect margin position for seller\");\n\n\n        emit NewTrade(\n            buyOrder.senderAddress,\n            sellOrder.senderAddress,\n            buyOrder.baseAsset,\n            buyOrder.quoteAsset,\n            filledPrice,\n            filledAmount,\n            amountQuote\n        );\n    }\n\n    function validateOrder(LibValidator.Order memory order)\n        public\n        pure\n        returns (bool isValid)\n    {\n        isValid = LibValidator.validateV3(order);\n    }\n\n    /**\n     *  @notice update user balances and send matcher fee\n     *  @param isBuyer boolean, indicating true if the update is for buyer, false for seller\n     */\n    function updateOrderBalance(\n        LibValidator.Order memory order,\n        uint112 filledAmount,\n        uint112 amountQuote,\n        bool isBuyer\n    ) internal {\n        address user = order.senderAddress;\n\n        // matcherFee: u64, filledAmount u128 => matcherFee*filledAmount fit u256\n        // result matcherFee fit u64\n        order.matcherFee = uint64(uint256(order.matcherFee)*filledAmount/order.amount); //rewrite in memory only\n        if(!isBuyer)\n          (filledAmount, amountQuote) = (amountQuote, filledAmount);\n\n        bool feeAssetInLiabilities  = assetBalances[user][order.matcherFeeAsset]<0;\n        (address firstAsset, address secondAsset) = isBuyer?\n                                                     (order.quoteAsset, order.baseAsset):\n                                                     (order.baseAsset, order.quoteAsset);\n        int192 firstBalance = assetBalances[user][firstAsset];\n        int192 secondBalance = assetBalances[user][secondAsset];\n        int192 temp; // this variable will be used for temporary variable storage (optimization purpose)\n        bool firstInLiabilities = firstBalance<0;\n        bool secondInLiabilities  = secondBalance<0;\n\n        temp = assetBalances[user][firstAsset] - amountQuote;\n        assetBalances[user][firstAsset] = temp;\n        assetBalances[user][secondAsset] += filledAmount;\n        if(!firstInLiabilities && (temp<0)){\n          setLiability(user, firstAsset, temp);\n        }\n        if(secondInLiabilities && (assetBalances[user][secondAsset]>=0)) {\n          MarginalFunctionality.removeLiability(user, secondAsset, liabilities);\n        }\n\n        // User pay for fees\n        temp = assetBalances[user][order.matcherFeeAsset] - order.matcherFee;\n        assetBalances[user][order.matcherFeeAsset] = temp;\n        if(!feeAssetInLiabilities && (temp<0)) {\n            setLiability(user, order.matcherFeeAsset, temp);\n        }\n        assetBalances[order.matcherAddress][order.matcherFeeAsset] += order.matcherFee;\n        //generalTransfer(order.matcherFeeAsset, order.matcherAddress, order.matcherFee, true);\n        //IERC20(order.matcherFeeAsset).safeTransfer(order.matcherAddress, uint256(order.matcherFee)); //TODO not transfer, but add to balance\n    }\n\n    /**\n     * @notice users can cancel an order\n     * @dev write an orderHash in the contract so that such an order cannot be filled (executed)\n     */\n    /* Unused for now\n    function cancelOrder(LibValidator.Order memory order) public {\n        require(order.validateV3(), \"E2\");\n        require(msg.sender == order.senderAddress, \"Not owner\");\n\n        bytes32 orderHash = order.getTypeValueHash();\n\n        require(!isOrderCancelled(orderHash), \"E4\");\n\n        (\n            int192 totalFilled, //uint totalFeesPaid\n\n        ) = getFilledAmounts(orderHash);\n\n        if (totalFilled > 0)\n            orderStatus[orderHash] = Status.PARTIALLY_CANCELLED;\n        else orderStatus[orderHash] = Status.CANCELLED;\n\n        emit OrderUpdate(orderHash, msg.sender, orderStatus[orderHash]);\n\n        assert(\n            orderStatus[orderHash] == Status.PARTIALLY_CANCELLED ||\n                orderStatus[orderHash] == Status.CANCELLED\n        );\n    }\n    */\n\n    function checkPosition(address user) public view returns (bool) {\n        if(liabilities[user].length == 0)\n          return true;\n        return calcPosition(user).state == MarginalFunctionality.PositionState.POSITIVE;\n    }\n\n    function getConstants(address user)\n             internal\n             view\n             returns (MarginalFunctionality.UsedConstants memory) {\n       return MarginalFunctionality.UsedConstants(user,\n                                                  _oracleAddress,\n                                                  address(this),\n                                                  address(_orionToken),\n                                                  positionOverdue,\n                                                  priceOverdue,\n                                                  stakeRisk,\n                                                  liquidationPremium);\n    }\n\n    function calcPosition(address user) public view returns (MarginalFunctionality.Position memory) {\n        MarginalFunctionality.UsedConstants memory constants =\n          getConstants(user);\n        return MarginalFunctionality.calcPosition(collateralAssets,\n                                           liabilities,\n                                           assetBalances,\n                                           assetRisks,\n                                           constants);\n\n    }\n\n    function partiallyLiquidate(address broker, address redeemedAsset, uint112 amount) public {\n        MarginalFunctionality.UsedConstants memory constants =\n          getConstants(broker);\n        MarginalFunctionality.partiallyLiquidate(collateralAssets,\n                                           liabilities,\n                                           assetBalances,\n                                           assetRisks,\n                                           constants,\n                                           redeemedAsset,\n                                           amount);\n    }\n\n    function setLiability(address user, address asset, int192 balance) internal {\n        liabilities[user].push(\n          MarginalFunctionality.Liability({\n                                             asset: asset,\n                                             timestamp: uint64(now),\n                                             outstandingAmount: uint192(-balance)})\n        );\n    }\n\n    /**\n     *  @dev  revert on fallback function\n     */\n    fallback() external {\n        revert(\"E6\");\n    }\n\n    /* Error Codes\n\n        E1: Insufficient Balance, flavor S - stake\n        E2: Invalid Signature, flavor B,S - buyer, seller\n        E3: Invalid Order Info, flavor G - general, M - wrong matcher, M2 unauthorized matcher, As - asset mismatch, AmB/AmS - amount mismatch (buyer,seller), PrB/PrS - price mismatch(buyer,seller), D - direction mismatch,\n        E4: Order expired, flavor B,S - buyer,seller\n        E5: Contract not active,\n        E6: Transfer error\n        E7: Incorrect state prior to liquidation\n        E8: Liquidator doesn't satisfy requirements\n        E9: Data for liquidation handling is outdated\n        E10: Incorrect state after liquidation\n        E11: Amount overflow\n        E12: Incorrect filled amount, flavor G,B,S: general(overflow), buyer order overflow, seller order overflow\n        E14: Authorization error, sfs - seizeFromStake\n    */\n\n// OrionVault part, will be moved in right place after successfull tests\n\n    enum StakePhase{ NOTSTAKED, LOCKING, LOCKED, RELEASING, READYTORELEASE, FROZEN }\n\n    struct Stake {\n      uint64 amount; // 100m ORN in circulation fits uint64\n      StakePhase phase;\n      uint64 lastActionTimestamp;\n    }\n\n    uint64 constant releasingDuration = 3600*24;\n    mapping(address => Stake) private stakingData;\n\n\n\n    function getStake(address user) public view returns (Stake memory){\n        Stake memory stake = stakingData[user];\n        if(stake.phase == StakePhase.LOCKING && (now - stake.lastActionTimestamp) > 0) {\n          stake.phase = StakePhase.LOCKED;\n        } else if(stake.phase == StakePhase.RELEASING && (now - stake.lastActionTimestamp) > releasingDuration) {\n          stake.phase = StakePhase.READYTORELEASE;\n        }\n        return stake;\n    }\n\n    function getStakeBalance(address user) public view returns (uint256) {\n        return getStake(user).amount;\n    }\n\n    function getStakePhase(address user) public view returns (StakePhase) {\n        return getStake(user).phase;\n    }\n\n    function getLockedStakeBalance(address user) public view returns (uint256) {\n      Stake memory stake = getStake(user);\n      if(stake.phase == StakePhase.LOCKED || stake.phase == StakePhase.FROZEN)\n        return stake.amount;\n      return 0;\n    }\n\n\n\n    function postponeStakeRelease(address user) external onlyOwner{\n        Stake storage stake = stakingData[user];\n        stake.phase = StakePhase.FROZEN;\n    }\n\n    function allowStakeRelease(address user) external onlyOwner {\n        Stake storage stake = stakingData[user];\n        stake.phase = StakePhase.READYTORELEASE;\n    }\n\n\n\n    function requestReleaseStake() public {\n        address user = _msgSender();\n        Stake memory current = getStake(user);\n        require(liabilities[user].length == 0, \"Can not release stake: user has liabilities\");\n        if(current.phase == StakePhase.LOCKING || current.phase == StakePhase.READYTORELEASE) {\n          Stake storage stake = stakingData[_msgSender()];\n          assetBalances[user][address(_orionToken)] += stake.amount;\n          stake.amount = 0;\n          stake.phase = StakePhase.NOTSTAKED;\n        } else if (current.phase == StakePhase.LOCKED) {\n          Stake storage stake = stakingData[_msgSender()];\n          stake.phase = StakePhase.RELEASING;\n          stake.lastActionTimestamp = uint64(now);\n        } else {\n          revert(\"Can not release funds from this phase\");\n        }\n    }\n\n    function lockStake(uint64 amount) public {\n        address user = _msgSender();\n        require(assetBalances[user][address(_orionToken)]>amount, \"E1S\");\n        Stake storage stake = stakingData[user];\n\n        assetBalances[user][address(_orionToken)] -= amount;\n        stake.amount = amount;\n        \n        if(stake.phase != StakePhase.FROZEN) {\n          stake.phase = StakePhase.LOCKING; //what is frozen should stay frozen\n        }\n        stake.lastActionTimestamp = uint64(now);\n    }\n\n    function seizeFromStake(address user, address receiver, uint64 amount) public {\n        require(msg.sender == address(this), \"E14\");\n        Stake storage stake = stakingData[user];\n        require(stake.amount >= amount, \"UX\"); //TODO\n        stake.amount -= amount;\n        assetBalances[receiver][address(_orionToken)] += amount;\n    }\n\n\n}\n",
  "sourcePath": "/root/orion-exchange/contracts/Exchange.sol",
  "compiler": {
    "name": "solc",
    "version": "0.6.2+commit.bacdbe57.Emscripten.clang"
  },
  "schemaVersion": "3.3.0",
  "updatedAt": "2020-12-02T13:24:18.738Z",
  "networkType": "ethereum",
  "devdoc": {
    "author": "@wafflemakr",
    "details": "Exchange contract for the Orion Protocol",
    "methods": {
      "checkPosition(address)": {
        "details": "write an orderHash in the contract so that such an order cannot be filled (executed)"
      },
      "deposit()": {
        "details": "deposit event will be emitted with the amount in decimal format (10^8)balance will be stored in decimal format too"
      },
      "depositAsset(address,uint112)": {
        "details": "Deposit ERC20 tokens to the exchange contractUser needs to approve token contract first",
        "params": {
          "amount": "asset amount to deposit in its base unit"
        }
      },
      "fillOrders((address,address,address,address,address,uint64,uint64,uint64,uint64,uint64,uint8,bytes),(address,address,address,address,address,uint64,uint64,uint64,uint64,uint64,uint8,bytes),uint64,uint112)": {
        "details": "2 orders are submitted, it is necessary to match them: check conditions in orders for compliance filledPrice, filledAmountbuyOrderHash change balances on the contract respectively with buyer, seller, matcbuyOrderHashher",
        "params": {
          "buyOrder": "structure of buy side orderbuyOrderHash",
          "filledAmount": "amount settled between orders",
          "filledPrice": "price at which the order was settled",
          "sellOrder": "structure of sell side order"
        }
      },
      "getBalance(address,address)": {
        "details": "Get asset balance for a specific address",
        "params": {
          "assetAddress": "address of the asset to query",
          "user": "user address to query"
        }
      },
      "getBalances(address[],address)": {
        "details": "Batch query of asset balances for a user",
        "params": {
          "assetsAddresses": "array of addresses of teh assets to query",
          "user": "user address to query"
        }
      },
      "getFilledAmounts(bytes32,(address,address,address,address,address,uint64,uint64,uint64,uint64,uint64,uint8,bytes))": {
        "details": "get trades for a specific order"
      },
      "getOrderHash((address,address,address,address,address,uint64,uint64,uint64,uint64,uint64,uint8,bytes))": {
        "details": "get hash for an order"
      },
      "owner()": {
        "details": "Returns the address of the current owner."
      },
      "renounceOwnership()": {
        "details": "Leaves the contract without owner. It will not be possible to call `onlyOwner` functions anymore. Can only be called by the current owner.     * NOTE: Renouncing ownership will leave the contract without an owner, thereby removing any functionality that is only available to the owner."
      },
      "transferOwnership(address)": {
        "details": "Transfers ownership of the contract to a new account (`newOwner`). Can only be called by the current owner."
      },
      "withdraw(address,uint112)": {
        "details": "Withdrawal of remaining funds from the contract back to the address",
        "params": {
          "amount": "asset amount to withdraw in its base unit",
          "assetAddress": "address of the asset to withdraw"
        }
      }
    },
    "title": "Exchange"
  },
  "userdoc": {
    "methods": {
      "checkPosition(address)": {
        "notice": "users can cancel an order"
      },
      "deposit()": {
        "notice": "Deposit ETH to the exchange contract"
      },
      "fillOrders((address,address,address,address,address,uint64,uint64,uint64,uint64,uint64,uint8,bytes),(address,address,address,address,address,uint64,uint64,uint64,uint64,uint64,uint8,bytes),uint64,uint112)": {
        "notice": "Settle a trade with two orders, filled price and amount"
      }
    }
  }
}